{
  "_format": "hh-sol-artifact-1",
  "contractName": "LiquidationEngine",
  "sourceName": "contracts/8.17/stablecoin-core/LiquidationEngine.sol",
  "abi": [
    {
      "anonymous": false,
      "inputs": [
        {
          "indexed": false,
          "internalType": "uint8",
          "name": "version",
          "type": "uint8"
        }
      ],
      "name": "Initialized",
      "type": "event"
    },
    {
      "anonymous": false,
      "inputs": [],
      "name": "LogCage",
      "type": "event"
    },
    {
      "anonymous": false,
      "inputs": [],
      "name": "LogUncage",
      "type": "event"
    },
    {
      "anonymous": false,
      "inputs": [
        {
          "indexed": false,
          "internalType": "address",
          "name": "account",
          "type": "address"
        }
      ],
      "name": "Paused",
      "type": "event"
    },
    {
      "anonymous": false,
      "inputs": [
        {
          "indexed": false,
          "internalType": "address",
          "name": "account",
          "type": "address"
        }
      ],
      "name": "Unpaused",
      "type": "event"
    },
    {
      "inputs": [],
      "name": "bookKeeper",
      "outputs": [
        {
          "internalType": "contract IBookKeeper",
          "name": "",
          "type": "address"
        }
      ],
      "stateMutability": "view",
      "type": "function"
    },
    {
      "inputs": [],
      "name": "cage",
      "outputs": [],
      "stateMutability": "nonpayable",
      "type": "function"
    },
    {
      "inputs": [
        {
          "internalType": "address",
          "name": "_bookKeeper",
          "type": "address"
        },
        {
          "internalType": "address",
          "name": "_systemDebtEngine",
          "type": "address"
        }
      ],
      "name": "initialize",
      "outputs": [],
      "stateMutability": "nonpayable",
      "type": "function"
    },
    {
      "inputs": [
        {
          "internalType": "bytes32",
          "name": "_collateralPoolId",
          "type": "bytes32"
        },
        {
          "internalType": "address",
          "name": "_positionAddress",
          "type": "address"
        },
        {
          "internalType": "uint256",
          "name": "_debtShareToBeLiquidated",
          "type": "uint256"
        },
        {
          "internalType": "uint256",
          "name": "_maxDebtShareToBeLiquidated",
          "type": "uint256"
        },
        {
          "internalType": "address",
          "name": "_collateralRecipient",
          "type": "address"
        },
        {
          "internalType": "bytes",
          "name": "_data",
          "type": "bytes"
        }
      ],
      "name": "liquidate",
      "outputs": [],
      "stateMutability": "nonpayable",
      "type": "function"
    },
    {
      "inputs": [],
      "name": "live",
      "outputs": [
        {
          "internalType": "uint256",
          "name": "",
          "type": "uint256"
        }
      ],
      "stateMutability": "view",
      "type": "function"
    },
    {
      "inputs": [],
      "name": "pause",
      "outputs": [],
      "stateMutability": "nonpayable",
      "type": "function"
    },
    {
      "inputs": [],
      "name": "paused",
      "outputs": [
        {
          "internalType": "bool",
          "name": "",
          "type": "bool"
        }
      ],
      "stateMutability": "view",
      "type": "function"
    },
    {
      "inputs": [],
      "name": "systemDebtEngine",
      "outputs": [
        {
          "internalType": "contract ISystemDebtEngine",
          "name": "",
          "type": "address"
        }
      ],
      "stateMutability": "view",
      "type": "function"
    },
    {
      "inputs": [],
      "name": "uncage",
      "outputs": [],
      "stateMutability": "nonpayable",
      "type": "function"
    },
    {
      "inputs": [],
      "name": "unpause",
      "outputs": [],
      "stateMutability": "nonpayable",
      "type": "function"
    }
  ],
  "bytecode": "0x608060405234801561001057600080fd5b50611d30806100206000396000f3fe608060405234801561001057600080fd5b506004361061009e5760003560e01c8063692450091161006657806369245009146101195780638456cb5914610121578063957aa58c14610129578063d63b23b214610140578063e3b3932a1461014857600080fd5b80631ebce593146100a357806328e49a42146100b85780633f4ba83a146100e8578063485cc955146100f05780635c975abb14610103575b600080fd5b6100b66100b1366004611a64565b61015b565b005b6098546100cb906001600160a01b031681565b6040516001600160a01b0390911681526020015b60405180910390f35b6100b6610b5a565b6100b66100fe366004611b19565b610dcf565b60335460ff1660405190151581526020016100df565b6100b6610ff9565b6100b66112ec565b61013260995481565b6040519081526020016100df565b6100b661155e565b6097546100cb906001600160a01b031681565b6002606554036101b25760405162461bcd60e51b815260206004820152601f60248201527f5265656e7472616e637947756172643a207265656e7472616e742063616c6c0060448201526064015b60405180910390fd5b60026065556101bf61184f565b6099546001146102115760405162461bcd60e51b815260206004820152601a60248201527f4c69717569646174696f6e456e67696e652f6e6f742d6c69766500000000000060448201526064016101a9565b8460000361027c5760405162461bcd60e51b815260206004820152603260248201527f4c69717569646174696f6e456e67696e652f7a65726f2d646562742d76616c75604482015271194b5d1bcb58994b5b1a5c5d5a59185d195960721b60648201526084016101a9565b836000036102eb5760405162461bcd60e51b815260206004820152603660248201527f4c69717569646174696f6e456e67696e652f7a65726f2d6d61782d646562742d6044820152751d985b1d594b5d1bcb58994b5b1a5c5d5a59185d195960521b60648201526084016101a9565b6103246040518060c001604052806000815260200160008152602001600081526020016000815260200160008152602001600081525090565b609754604051630a76216560e21b8152600481018a90526001600160a01b038981166024830152909116906329d88594906044016040805180830381865afa158015610374573d6000803e3d6000fd5b505050506040513d601f19601f820116820180604052508101906103989190611b52565b60208381019190915290825260408051606081018252600080825281840181905281830152609754825163d868246160e01b8152925191936001600160a01b039091169263d868246192600480830193928290030181865afa158015610402573d6000803e3d6000fd5b505050506040513d601f19601f820116820180604052508101906104269190611b76565b6001600160a01b03166328c84bbd8a6040518263ffffffff1660e01b815260040161045391815260200190565b602060405180830381865afa158015610470573d6000803e3d6000fd5b505050506040513d601f19601f820116820180604052508101906104949190611b76565b6001600160a01b0390811682526097546040805163d868246160e01b81529051919092169163d86824619160048083019260209291908290030181865afa1580156104e3573d6000803e3d6000fd5b505050506040513d601f19601f820116820180604052508101906105079190611b76565b6001600160a01b0316638c492d078a6040518263ffffffff1660e01b815260040161053491815260200190565b602060405180830381865afa158015610551573d6000803e3d6000fd5b505050506040513d601f19601f820116820180604052508101906105759190611b9a565b6020808301919091526097546040805163d868246160e01b815290516001600160a01b039092169263d8682461926004808401938290030181865afa1580156105c2573d6000803e3d6000fd5b505050506040513d601f19601f820116820180604052508101906105e69190611b76565b6001600160a01b031663a09b0fe08a6040518263ffffffff1660e01b815260040161061391815260200190565b602060405180830381865afa158015610630573d6000803e3d6000fd5b505050506040513d601f19601f820116820180604052508101906106549190611b9a565b604082015280516001600160a01b0381166106bc5760405162461bcd60e51b815260206004820152602260248201527f4c69717569646174696f6e456e67696e652f6e6f742d7365742d737472617465604482015261677960f01b60648201526084016101a9565b600082602001511180156106f05750604082015160208401516106de91611897565b602083015184516106ee91611897565b105b6107475760405162461bcd60e51b815260206004820152602260248201527f4c69717569646174696f6e456e67696e652f706f736974696f6e2d69732d7361604482015261666560f01b60648201526084016101a9565b60975460985460405163b4ac08bb60e01b81526001600160a01b03918216600482015291169063b4ac08bb90602401602060405180830381865afa158015610793573d6000803e3d6000fd5b505050506040513d601f19601f820116820180604052508101906107b79190611b9a565b836040018181525050806001600160a01b03166316d8d2918b856020015186600001518d8d8d338e8e8e6040518b63ffffffff1660e01b81526004016108069a99989796959493929190611bb3565b600060405180830381600087803b15801561082057600080fd5b505af1158015610834573d6000803e3d6000fd5b5050609754604051630a76216560e21b8152600481018e90526001600160a01b038d8116602483015290911692506329d8859491506044016040805180830381865afa158015610888573d6000803e3d6000fd5b505050506040513d601f19601f820116820180604052508101906108ac9190611b52565b60808501819052606085019190915260208401511161091b5760405162461bcd60e51b815260206004820152602560248201527f4c69717569646174696f6e456e67696e652f646562742d6e6f742d6c6971756960448201526419185d195960da1b60648201526084016101a9565b610944826040015161093e856080015186602001516118ac90919063ffffffff16565b90611897565b60a08401819052604080850151609754609854925163b4ac08bb60e01b81526001600160a01b0393841660048201526109cb939091169063b4ac08bb90602401602060405180830381865afa1580156109a1573d6000803e3d6000fd5b505050506040513d601f19601f820116820180604052508101906109c59190611b9a565b906118ac565b1015610a285760405162461bcd60e51b815260206004820152602660248201527f4c69717569646174696f6e456e67696e652f7061796d656e742d6e6f742d726560448201526518d95a5d995960d21b60648201526084016101a9565b6060830151158015610a3e575060008360800151115b15610b4957600160ff1b836080015110610a9a5760405162461bcd60e51b815260206004820152601a60248201527f4c69717569646174696f6e456e67696e652f6f766572666c6f7700000000000060448201526064016101a9565b60975460985460808501516001600160a01b039283169263b1df2594928e928e9283921690600090610acb90611c47565b6040516001600160e01b031960e089901b16815260048101969096526001600160a01b039485166024870152928416604486015292166064840152608483019190915260a482015260c401600060405180830381600087803b158015610b3057600080fd5b505af1158015610b44573d6000803e3d6000fd5b505050505b505060016065555050505050505050565b6097546040805163c8cc243f60e01b815290516000926001600160a01b03169163c8cc243f9160048083019260209291908290030181865afa158015610ba4573d6000803e3d6000fd5b505050506040513d601f19601f82011682018060405250810190610bc89190611b76565b9050806001600160a01b03166391d14854826001600160a01b031663e58378bb6040518163ffffffff1660e01b8152600401602060405180830381865afa158015610c17573d6000803e3d6000fd5b505050506040513d601f19601f82011682018060405250810190610c3b9190611b9a565b6040516001600160e01b031960e084901b1681526004810191909152336024820152604401602060405180830381865afa158015610c7d573d6000803e3d6000fd5b505050506040513d601f19601f82011682018060405250810190610ca19190611c63565b80610d7e5750806001600160a01b03166391d14854826001600160a01b031663b536818a6040518163ffffffff1660e01b8152600401602060405180830381865afa158015610cf4573d6000803e3d6000fd5b505050506040513d601f19601f82011682018060405250810190610d189190611b9a565b6040516001600160e01b031960e084901b1681526004810191909152336024820152604401602060405180830381865afa158015610d5a573d6000803e3d6000fd5b505050506040513d601f19601f82011682018060405250810190610d7e9190611c63565b610dc45760405162461bcd60e51b815260206004820152601760248201527621286f776e6572526f6c65206f7220676f76526f6c652960481b60448201526064016101a9565b610dcc6118b8565b50565b600054610100900460ff1615808015610def5750600054600160ff909116105b80610e095750303b158015610e09575060005460ff166001145b610e6c5760405162461bcd60e51b815260206004820152602e60248201527f496e697469616c697a61626c653a20636f6e747261637420697320616c72656160448201526d191e481a5b9a5d1a585b1a5e995960921b60648201526084016101a9565b6000805460ff191660011790558015610e8f576000805461ff0019166101001790555b610e9761190a565b610e9f611939565b826001600160a01b0316636f3a3bfc6040518163ffffffff1660e01b81526004016020604051808303816000875af1158015610edf573d6000803e3d6000fd5b505050506040513d601f19601f82011682018060405250810190610f039190611b9a565b5082609760006101000a8154816001600160a01b0302191690836001600160a01b03160217905550816001600160a01b0316632a608d5b6040518163ffffffff1660e01b8152600401602060405180830381865afa158015610f69573d6000803e3d6000fd5b505050506040513d601f19601f82011682018060405250810190610f8d9190611b9a565b50609880546001600160a01b0319166001600160a01b03841617905560016099558015610ff4576000805461ff0019169055604051600181527f7f26b83ff96e1f2b6a682f133852f6798a09c465da95921460cefb38474024989060200160405180910390a15b505050565b6097546040805163c8cc243f60e01b815290516000926001600160a01b03169163c8cc243f9160048083019260209291908290030181865afa158015611043573d6000803e3d6000fd5b505050506040513d601f19601f820116820180604052508101906110679190611b76565b9050806001600160a01b03166391d14854826001600160a01b031663e58378bb6040518163ffffffff1660e01b8152600401602060405180830381865afa1580156110b6573d6000803e3d6000fd5b505050506040513d601f19601f820116820180604052508101906110da9190611b9a565b6040516001600160e01b031960e084901b1681526004810191909152336024820152604401602060405180830381865afa15801561111c573d6000803e3d6000fd5b505050506040513d601f19601f820116820180604052508101906111409190611c63565b8061121d5750806001600160a01b03166391d14854826001600160a01b031663d7a47a696040518163ffffffff1660e01b8152600401602060405180830381865afa158015611193573d6000803e3d6000fd5b505050506040513d601f19601f820116820180604052508101906111b79190611b9a565b6040516001600160e01b031960e084901b1681526004810191909152336024820152604401602060405180830381865afa1580156111f9573d6000803e3d6000fd5b505050506040513d601f19601f8201168201806040525081019061121d9190611c63565b6112695760405162461bcd60e51b815260206004820152601f60248201527f21286f776e6572526f6c65206f722073686f7753746f70706572526f6c65290060448201526064016101a9565b6099546001146112bb5760405162461bcd60e51b815260206004820152601a60248201527f4c69717569646174696f6e456e67696e652f6e6f742d6c69766500000000000060448201526064016101a9565b600060998190556040517fbf689b4aae670d200b1d2b971ace2e0c3bef88a9c5e93f36705c7b86eab630b99190a150565b6097546040805163c8cc243f60e01b815290516000926001600160a01b03169163c8cc243f9160048083019260209291908290030181865afa158015611336573d6000803e3d6000fd5b505050506040513d601f19601f8201168201806040525081019061135a9190611b76565b9050806001600160a01b03166391d14854826001600160a01b031663e58378bb6040518163ffffffff1660e01b8152600401602060405180830381865afa1580156113a9573d6000803e3d6000fd5b505050506040513d601f19601f820116820180604052508101906113cd9190611b9a565b6040516001600160e01b031960e084901b1681526004810191909152336024820152604401602060405180830381865afa15801561140f573d6000803e3d6000fd5b505050506040513d601f19601f820116820180604052508101906114339190611c63565b806115105750806001600160a01b03166391d14854826001600160a01b031663b536818a6040518163ffffffff1660e01b8152600401602060405180830381865afa158015611486573d6000803e3d6000fd5b505050506040513d601f19601f820116820180604052508101906114aa9190611b9a565b6040516001600160e01b031960e084901b1681526004810191909152336024820152604401602060405180830381865afa1580156114ec573d6000803e3d6000fd5b505050506040513d601f19601f820116820180604052508101906115109190611c63565b6115565760405162461bcd60e51b815260206004820152601760248201527621286f776e6572526f6c65206f7220676f76526f6c652960481b60448201526064016101a9565b610dcc611968565b6097546040805163c8cc243f60e01b815290516000926001600160a01b03169163c8cc243f9160048083019260209291908290030181865afa1580156115a8573d6000803e3d6000fd5b505050506040513d601f19601f820116820180604052508101906115cc9190611b76565b9050806001600160a01b03166391d14854826001600160a01b031663e58378bb6040518163ffffffff1660e01b8152600401602060405180830381865afa15801561161b573d6000803e3d6000fd5b505050506040513d601f19601f8201168201806040525081019061163f9190611b9a565b6040516001600160e01b031960e084901b1681526004810191909152336024820152604401602060405180830381865afa158015611681573d6000803e3d6000fd5b505050506040513d601f19601f820116820180604052508101906116a59190611c63565b806117825750806001600160a01b03166391d14854826001600160a01b031663d7a47a696040518163ffffffff1660e01b8152600401602060405180830381865afa1580156116f8573d6000803e3d6000fd5b505050506040513d601f19601f8201168201806040525081019061171c9190611b9a565b6040516001600160e01b031960e084901b1681526004810191909152336024820152604401602060405180830381865afa15801561175e573d6000803e3d6000fd5b505050506040513d601f19601f820116820180604052508101906117829190611c63565b6117ce5760405162461bcd60e51b815260206004820152601f60248201527f21286f776e6572526f6c65206f722073686f7753746f70706572526f6c65290060448201526064016101a9565b6099541561181e5760405162461bcd60e51b815260206004820152601b60248201527f4c69717569646174696f6e456e67696e652f6e6f742d6361676564000000000060448201526064016101a9565b60016099556040517f1868a6ced217213f36be87ba9aee25cde5381b42e85c8f88e73b18772c0bd07390600090a150565b60335460ff16156118955760405162461bcd60e51b815260206004820152601060248201526f14185d5cd8589b194e881c185d5cd95960821b60448201526064016101a9565b565b60006118a38284611c85565b90505b92915050565b60006118a38284611c9c565b6118c06119a5565b6033805460ff191690557f5db9ee0a495bf2e6ff9c91a7834c1ba4fdd244a5e8aa4e537bd38aeae4b073aa335b6040516001600160a01b03909116815260200160405180910390a1565b600054610100900460ff166119315760405162461bcd60e51b81526004016101a990611caf565b6118956119ee565b600054610100900460ff166119605760405162461bcd60e51b81526004016101a990611caf565b611895611a21565b61197061184f565b6033805460ff191660011790557f62e78cea01bee320cd4e420270b5ea74000d11b0c9f74754ebdbfc544b05a2586118ed3390565b60335460ff166118955760405162461bcd60e51b815260206004820152601460248201527314185d5cd8589b194e881b9bdd081c185d5cd95960621b60448201526064016101a9565b600054610100900460ff16611a155760405162461bcd60e51b81526004016101a990611caf565b6033805460ff19169055565b600054610100900460ff16611a485760405162461bcd60e51b81526004016101a990611caf565b6001606555565b6001600160a01b0381168114610dcc57600080fd5b600080600080600080600060c0888a031215611a7f57600080fd5b873596506020880135611a9181611a4f565b955060408801359450606088013593506080880135611aaf81611a4f565b925060a088013567ffffffffffffffff80821115611acc57600080fd5b818a0191508a601f830112611ae057600080fd5b813581811115611aef57600080fd5b8b6020828501011115611b0157600080fd5b60208301945080935050505092959891949750929550565b60008060408385031215611b2c57600080fd5b8235611b3781611a4f565b91506020830135611b4781611a4f565b809150509250929050565b60008060408385031215611b6557600080fd5b505080516020909101519092909150565b600060208284031215611b8857600080fd5b8151611b9381611a4f565b9392505050565b600060208284031215611bac57600080fd5b5051919050565b8a8152602081018a9052604081018990526001600160a01b0388811660608301526080820188905260a0820187905285811660c0830152841660e08201526101206101008201819052810182905260006101408385828501376000838501820152601f909301601f19169091019091019a9950505050505050505050565b634e487b7160e01b600052601160045260246000fd5b6000600160ff1b8201611c5c57611c5c611c31565b5060000390565b600060208284031215611c7557600080fd5b81518015158114611b9357600080fd5b80820281158282048414176118a6576118a6611c31565b818103818111156118a6576118a6611c31565b6020808252602b908201527f496e697469616c697a61626c653a20636f6e7472616374206973206e6f74206960408201526a6e697469616c697a696e6760a81b60608201526080019056fea26469706673582212201861eff8266123f8326dd14244cdb392cccc3fee75a62bf96afdf810d02e980464736f6c63430008110033",
  "linkReferences": {},
  "deployedLinkReferences": {}
}