{
    "contractName": "PriceOracle",
    "abi": [
        {
            "anonymous": false,
            "inputs": [
                {
                    "indexed": false,
                    "internalType": "uint8",
                    "name": "version",
                    "type": "uint8"
                }
            ],
            "name": "Initialized",
            "type": "event"
        },
        {
            "anonymous": false,
            "inputs": [],
            "name": "LogCage",
            "type": "event"
        },
        {
            "anonymous": false,
            "inputs": [
                {
                    "indexed": false,
                    "internalType": "bytes32",
                    "name": "_poolId",
                    "type": "bytes32"
                },
                {
                    "indexed": false,
                    "internalType": "bytes32",
                    "name": "_rawPrice",
                    "type": "bytes32"
                },
                {
                    "indexed": false,
                    "internalType": "uint256",
                    "name": "_priceWithSafetyMargin",
                    "type": "uint256"
                }
            ],
            "name": "LogSetPrice",
            "type": "event"
        },
        {
            "anonymous": false,
            "inputs": [
                {
                    "indexed": true,
                    "internalType": "address",
                    "name": "_caller",
                    "type": "address"
                },
                {
                    "indexed": false,
                    "internalType": "uint256",
                    "name": "_data",
                    "type": "uint256"
                }
            ],
            "name": "LogSetStableCoinReferencePrice",
            "type": "event"
        },
        {
            "anonymous": false,
            "inputs": [],
            "name": "LogUncage",
            "type": "event"
        },
        {
            "anonymous": false,
            "inputs": [
                {
                    "indexed": false,
                    "internalType": "address",
                    "name": "account",
                    "type": "address"
                }
            ],
            "name": "Paused",
            "type": "event"
        },
        {
            "anonymous": false,
            "inputs": [
                {
                    "indexed": false,
                    "internalType": "address",
                    "name": "account",
                    "type": "address"
                }
            ],
            "name": "Unpaused",
            "type": "event"
        },
        {
            "inputs": [],
            "name": "bookKeeper",
            "outputs": [
                {
                    "internalType": "contract IBookKeeper",
                    "name": "",
                    "type": "address"
                }
            ],
            "stateMutability": "view",
            "type": "function"
        },
        {
            "inputs": [],
            "name": "live",
            "outputs": [
                {
                    "internalType": "uint256",
                    "name": "",
                    "type": "uint256"
                }
            ],
            "stateMutability": "view",
            "type": "function"
        },
        {
            "inputs": [],
            "name": "paused",
            "outputs": [
                {
                    "internalType": "bool",
                    "name": "",
                    "type": "bool"
                }
            ],
            "stateMutability": "view",
            "type": "function"
        },
        {
            "inputs": [],
            "name": "stableCoinReferencePrice",
            "outputs": [
                {
                    "internalType": "uint256",
                    "name": "",
                    "type": "uint256"
                }
            ],
            "stateMutability": "view",
            "type": "function"
        },
        {
            "inputs": [
                {
                    "internalType": "address",
                    "name": "_bookKeeper",
                    "type": "address"
                }
            ],
            "name": "initialize",
            "outputs": [],
            "stateMutability": "nonpayable",
            "type": "function"
        },
        {
            "inputs": [
                {
                    "internalType": "uint256",
                    "name": "_data",
                    "type": "uint256"
                }
            ],
            "name": "setStableCoinReferencePrice",
            "outputs": [],
            "stateMutability": "nonpayable",
            "type": "function"
        },
        {
            "inputs": [
                {
                    "internalType": "bytes32",
                    "name": "_collateralPoolId",
                    "type": "bytes32"
                }
            ],
            "name": "setPrice",
            "outputs": [],
            "stateMutability": "nonpayable",
            "type": "function"
        },
        {
            "inputs": [],
            "name": "cage",
            "outputs": [],
            "stateMutability": "nonpayable",
            "type": "function"
        },
        {
            "inputs": [],
            "name": "uncage",
            "outputs": [],
            "stateMutability": "nonpayable",
            "type": "function"
        },
        {
            "inputs": [],
            "name": "pause",
            "outputs": [],
            "stateMutability": "nonpayable",
            "type": "function"
        },
        {
            "inputs": [],
            "name": "unpause",
            "outputs": [],
            "stateMutability": "nonpayable",
            "type": "function"
        }
    ],
    "bytecode": "0x608060405234801561001057600080fd5b50611860806100206000396000f3fe608060405234801561001057600080fd5b50600436106100a95760003560e01c80638456cb59116100715780638456cb5914610101578063957aa58c146101095780639d1eea7814610120578063c4d66de814610129578063d63b23b21461013c578063e3b3932a1461014457600080fd5b8063038a2f0d146100ae578063285da53b146100c35780633f4ba83a146100d65780635c975abb146100de57806369245009146100f9575b600080fd5b6100c16100bc3660046115b4565b61016f565b005b6100c16100d13660046115b4565b61037b565b6100c1610711565b60335460ff1660405190151581526020015b60405180910390f35b6100c1610986565b6100c1610c70565b61011260995481565b6040519081526020016100f0565b61011260985481565b6100c16101373660046115e2565b610ee2565b6100c161108f565b609754610157906001600160a01b031681565b6040516001600160a01b0390911681526020016100f0565b6097546040805163c8cc243f60e01b815290516000926001600160a01b03169163c8cc243f9160048083019260209291908290030181865afa1580156101b9573d6000803e3d6000fd5b505050506040513d601f19601f820116820180604052508101906101dd919061160f565b9050806001600160a01b03166391d14854826001600160a01b031663e58378bb6040518163ffffffff1660e01b8152600401602060405180830381865afa15801561022c573d6000803e3d6000fd5b505050506040513d601f19601f82011682018060405250810190610250919061162c565b6040516001600160e01b031960e084901b1681526004810191909152336024820152604401602060405180830381865afa158015610292573d6000803e3d6000fd5b505050506040513d601f19601f820116820180604052508101906102b69190611655565b6102f45760405162461bcd60e51b815260206004820152600a602482015269216f776e6572526f6c6560b01b60448201526064015b60405180910390fd5b60995460011461033d5760405162461bcd60e51b815260206004820152601460248201527350726963654f7261636c652f6e6f742d6c69766560601b60448201526064016102eb565b609882905560405182815233907f981464cdb0035497ee4816c35dc8771b2d26e321e79163de2b51ee8b6d51df139060200160405180910390a25050565b610383611378565b6097546040805163d868246160e01b815290516000926001600160a01b03169163d86824619160048083019260209291908290030181865afa1580156103cd573d6000803e3d6000fd5b505050506040513d601f19601f820116820180604052508101906103f1919061160f565b6001600160a01b031663d97a3649836040518263ffffffff1660e01b815260040161041e91815260200190565b6101c060405180830381865afa15801561043c573d6000803e3d6000fd5b505050506040513d601f19601f8201168201806040525081019061046091906116a8565b60a0015190506000609760009054906101000a90046001600160a01b03166001600160a01b031663d86824616040518163ffffffff1660e01b8152600401602060405180830381865afa1580156104bb573d6000803e3d6000fd5b505050506040513d601f19601f820116820180604052508101906104df919061160f565b6001600160a01b03166344d0c937846040518263ffffffff1660e01b815260040161050c91815260200190565b602060405180830381865afa158015610529573d6000803e3d6000fd5b505050506040513d601f19601f8201168201806040525081019061054d919061162c565b9050600080836001600160a01b031663140d27206040518163ffffffff1660e01b81526004016040805180830381865afa15801561058f573d6000803e3d6000fd5b505050506040513d601f19601f820116820180604052508101906105b3919061176c565b915091506000816105c55760006105e7565b6105e76105e16105d985633b9aca006113c0565b6098546113f3565b856113f3565b90506000609760009054906101000a90046001600160a01b03166001600160a01b031663d86824616040518163ffffffff1660e01b8152600401602060405180830381865afa15801561063e573d6000803e3d6000fd5b505050506040513d601f19601f82011682018060405250810190610662919061160f565b604051635f3e4f9960e11b815260048101899052602481018490529091506001600160a01b0382169063be7c9f3290604401600060405180830381600087803b1580156106ae57600080fd5b505af11580156106c2573d6000803e3d6000fd5b5050604080518a8152602081018890529081018590527fc6ac892c4d05ed2b88732c325777abce65e43d448251b695c7e19067d33cc0e29250606001905060405180910390a150505050505050565b6097546040805163c8cc243f60e01b815290516000926001600160a01b03169163c8cc243f9160048083019260209291908290030181865afa15801561075b573d6000803e3d6000fd5b505050506040513d601f19601f8201168201806040525081019061077f919061160f565b9050806001600160a01b03166391d14854826001600160a01b031663e58378bb6040518163ffffffff1660e01b8152600401602060405180830381865afa1580156107ce573d6000803e3d6000fd5b505050506040513d601f19601f820116820180604052508101906107f2919061162c565b6040516001600160e01b031960e084901b1681526004810191909152336024820152604401602060405180830381865afa158015610834573d6000803e3d6000fd5b505050506040513d601f19601f820116820180604052508101906108589190611655565b806109355750806001600160a01b03166391d14854826001600160a01b031663b536818a6040518163ffffffff1660e01b8152600401602060405180830381865afa1580156108ab573d6000803e3d6000fd5b505050506040513d601f19601f820116820180604052508101906108cf919061162c565b6040516001600160e01b031960e084901b1681526004810191909152336024820152604401602060405180830381865afa158015610911573d6000803e3d6000fd5b505050506040513d601f19601f820116820180604052508101906109359190611655565b61097b5760405162461bcd60e51b815260206004820152601760248201527621286f776e6572526f6c65206f7220676f76526f6c652960481b60448201526064016102eb565b61098361141d565b50565b6097546040805163c8cc243f60e01b815290516000926001600160a01b03169163c8cc243f9160048083019260209291908290030181865afa1580156109d0573d6000803e3d6000fd5b505050506040513d601f19601f820116820180604052508101906109f4919061160f565b9050806001600160a01b03166391d14854826001600160a01b031663e58378bb6040518163ffffffff1660e01b8152600401602060405180830381865afa158015610a43573d6000803e3d6000fd5b505050506040513d601f19601f82011682018060405250810190610a67919061162c565b6040516001600160e01b031960e084901b1681526004810191909152336024820152604401602060405180830381865afa158015610aa9573d6000803e3d6000fd5b505050506040513d601f19601f82011682018060405250810190610acd9190611655565b80610baa5750806001600160a01b03166391d14854826001600160a01b031663d7a47a696040518163ffffffff1660e01b8152600401602060405180830381865afa158015610b20573d6000803e3d6000fd5b505050506040513d601f19601f82011682018060405250810190610b44919061162c565b6040516001600160e01b031960e084901b1681526004810191909152336024820152604401602060405180830381865afa158015610b86573d6000803e3d6000fd5b505050506040513d601f19601f82011682018060405250810190610baa9190611655565b610bf65760405162461bcd60e51b815260206004820152601f60248201527f21286f776e6572526f6c65206f722073686f7753746f70706572526f6c65290060448201526064016102eb565b609954600114610c3f5760405162461bcd60e51b815260206004820152601460248201527350726963654f7261636c652f6e6f742d6c69766560601b60448201526064016102eb565b600060998190556040517fbf689b4aae670d200b1d2b971ace2e0c3bef88a9c5e93f36705c7b86eab630b99190a150565b6097546040805163c8cc243f60e01b815290516000926001600160a01b03169163c8cc243f9160048083019260209291908290030181865afa158015610cba573d6000803e3d6000fd5b505050506040513d601f19601f82011682018060405250810190610cde919061160f565b9050806001600160a01b03166391d14854826001600160a01b031663e58378bb6040518163ffffffff1660e01b8152600401602060405180830381865afa158015610d2d573d6000803e3d6000fd5b505050506040513d601f19601f82011682018060405250810190610d51919061162c565b6040516001600160e01b031960e084901b1681526004810191909152336024820152604401602060405180830381865afa158015610d93573d6000803e3d6000fd5b505050506040513d601f19601f82011682018060405250810190610db79190611655565b80610e945750806001600160a01b03166391d14854826001600160a01b031663b536818a6040518163ffffffff1660e01b8152600401602060405180830381865afa158015610e0a573d6000803e3d6000fd5b505050506040513d601f19601f82011682018060405250810190610e2e919061162c565b6040516001600160e01b031960e084901b1681526004810191909152336024820152604401602060405180830381865afa158015610e70573d6000803e3d6000fd5b505050506040513d601f19601f82011682018060405250810190610e949190611655565b610eda5760405162461bcd60e51b815260206004820152601760248201527621286f776e6572526f6c65206f7220676f76526f6c652960481b60448201526064016102eb565b61098361146f565b600054610100900460ff1615808015610f025750600054600160ff909116105b80610f1c5750303b158015610f1c575060005460ff166001145b610f7f5760405162461bcd60e51b815260206004820152602e60248201527f496e697469616c697a61626c653a20636f6e747261637420697320616c72656160448201526d191e481a5b9a5d1a585b1a5e995960921b60648201526084016102eb565b6000805460ff191660011790558015610fa2576000805461ff0019166101001790555b610faa6114ac565b610fb26114db565b816001600160a01b031663d86824616040518163ffffffff1660e01b8152600401602060405180830381865afa158015610ff0573d6000803e3d6000fd5b505050506040513d601f19601f82011682018060405250810190611014919061160f565b50609780546001600160a01b0319166001600160a01b0384161790556b033b2e3c9fd0803ce80000006098556001609955801561108b576000805461ff0019169055604051600181527f7f26b83ff96e1f2b6a682f133852f6798a09c465da95921460cefb38474024989060200160405180910390a15b5050565b6097546040805163c8cc243f60e01b815290516000926001600160a01b03169163c8cc243f9160048083019260209291908290030181865afa1580156110d9573d6000803e3d6000fd5b505050506040513d601f19601f820116820180604052508101906110fd919061160f565b9050806001600160a01b03166391d14854826001600160a01b031663e58378bb6040518163ffffffff1660e01b8152600401602060405180830381865afa15801561114c573d6000803e3d6000fd5b505050506040513d601f19601f82011682018060405250810190611170919061162c565b6040516001600160e01b031960e084901b1681526004810191909152336024820152604401602060405180830381865afa1580156111b2573d6000803e3d6000fd5b505050506040513d601f19601f820116820180604052508101906111d69190611655565b806112b35750806001600160a01b03166391d14854826001600160a01b031663d7a47a696040518163ffffffff1660e01b8152600401602060405180830381865afa158015611229573d6000803e3d6000fd5b505050506040513d601f19601f8201168201806040525081019061124d919061162c565b6040516001600160e01b031960e084901b1681526004810191909152336024820152604401602060405180830381865afa15801561128f573d6000803e3d6000fd5b505050506040513d601f19601f820116820180604052508101906112b39190611655565b6112ff5760405162461bcd60e51b815260206004820152601f60248201527f21286f776e6572526f6c65206f722073686f7753746f70706572526f6c65290060448201526064016102eb565b609954156113475760405162461bcd60e51b8152602060048201526015602482015274141c9a58d953dc9858db194bdb9bdd0b58d859d959605a1b60448201526064016102eb565b60016099556040517f1868a6ced217213f36be87ba9aee25cde5381b42e85c8f88e73b18772c0bd07390600090a150565b60335460ff16156113be5760405162461bcd60e51b815260206004820152601060248201526f14185d5cd8589b194e881c185d5cd95960821b60448201526064016102eb565b565b60008115806113e4575082826113d68183611798565b92506113e290836117bd565b145b6113ed57600080fd5b92915050565b60008161140c846b033b2e3c9fd0803ce80000006113c0565b61141691906117bd565b9392505050565b61142561150a565b6033805460ff191690557f5db9ee0a495bf2e6ff9c91a7834c1ba4fdd244a5e8aa4e537bd38aeae4b073aa335b6040516001600160a01b03909116815260200160405180910390a1565b611477611378565b6033805460ff191660011790557f62e78cea01bee320cd4e420270b5ea74000d11b0c9f74754ebdbfc544b05a2586114523390565b600054610100900460ff166114d35760405162461bcd60e51b81526004016102eb906117df565b6113be611553565b600054610100900460ff166115025760405162461bcd60e51b81526004016102eb906117df565b6113be611586565b60335460ff166113be5760405162461bcd60e51b815260206004820152601460248201527314185d5cd8589b194e881b9bdd081c185d5cd95960621b60448201526064016102eb565b600054610100900460ff1661157a5760405162461bcd60e51b81526004016102eb906117df565b6033805460ff19169055565b600054610100900460ff166115ad5760405162461bcd60e51b81526004016102eb906117df565b6001606555565b6000602082840312156115c657600080fd5b5035919050565b6001600160a01b038116811461098357600080fd5b6000602082840312156115f457600080fd5b8135611416816115cd565b805161160a816115cd565b919050565b60006020828403121561162157600080fd5b8151611416816115cd565b60006020828403121561163e57600080fd5b5051919050565b8051801515811461160a57600080fd5b60006020828403121561166757600080fd5b61141682611645565b6040516101c0810167ffffffffffffffff811182821017156116a257634e487b7160e01b600052604160045260246000fd5b60405290565b60006101c082840312156116bb57600080fd5b6116c3611670565b82518152602083015160208201526040830151604082015260608301516060820152608083015160808201526116fb60a084016115ff565b60a082015260c083015160c082015260e083015160e082015261010080840151818301525061012061172e8185016115ff565b908201526101408381015190820152610160808401519082015261018080840151908201526101a06117618185016115ff565b908201529392505050565b6000806040838503121561177f57600080fd5b8251915061178f60208401611645565b90509250929050565b80820281158282048414176113ed57634e487b7160e01b600052601160045260246000fd5b6000826117da57634e487b7160e01b600052601260045260246000fd5b500490565b6020808252602b908201527f496e697469616c697a61626c653a20636f6e7472616374206973206e6f74206960408201526a6e697469616c697a696e6760a81b60608201526080019056fea2646970667358221220d7f30aae4190c7843a908f6cd48ea2d727e8bf3d689cc5cfa7ca5f8d49aa8f0664736f6c63430008110033",
    "immutableReferences": {},
    "source": "// SPDX-License-Identifier: AGPL-3.0-or-later\n\npragma solidity 0.8.17;\npragma experimental ABIEncoderV2;\n\nimport \"@openzeppelin/contracts-upgradeable/security/PausableUpgradeable.sol\";\nimport \"@openzeppelin/contracts-upgradeable/access/AccessControlUpgradeable.sol\";\nimport \"@openzeppelin/contracts-upgradeable/security/ReentrancyGuardUpgradeable.sol\";\n\nimport \"../interfaces/IBookKeeper.sol\";\nimport \"../interfaces/IPriceFeed.sol\";\nimport \"../interfaces/IPriceOracle.sol\";\nimport \"../interfaces/ICagable.sol\";\nimport \"../interfaces/ICollateralPoolConfig.sol\";\n\n/// @title PriceOracle\n/** @notice A contract which is the price oracle of the BookKeeper to keep all collateral pools updated with the latest price of the collateral.\n    The price oracle is important in reflecting the current state of the market price.\n*/\n\ncontract PriceOracle is PausableUpgradeable, ReentrancyGuardUpgradeable, IPriceOracle, ICagable {\n  // --- Data ---\n  struct CollateralPool {\n    IPriceFeed priceFeed; // Price Feed\n    uint256 liquidationRatio; // Liquidation ratio or Collateral ratio [ray]\n  }\n\n  IBookKeeper public bookKeeper; // CDP Engine\n  uint256 public override stableCoinReferencePrice; // ref per FUSD [ray] :: value of stablecoin in the reference asset (e.g. $1 per Fathom USD)\n\n  uint256 public live;\n\n  // --- Events ---\n  event LogSetPrice(\n    bytes32 _poolId,\n    bytes32 _rawPrice, // Raw price from price feed [wad]\n    uint256 _priceWithSafetyMargin // Price with safety margin [ray]\n  );\n\n  // --- Init ---\n  function initialize(address _bookKeeper) external initializer {\n    PausableUpgradeable.__Pausable_init();\n    ReentrancyGuardUpgradeable.__ReentrancyGuard_init();\n\n    IBookKeeper(_bookKeeper).collateralPoolConfig(); // Sanity check call\n    bookKeeper = IBookKeeper(_bookKeeper);\n    stableCoinReferencePrice = ONE;\n    live = 1;\n  }\n\n  // --- Math ---\n  uint256 constant ONE = 10**27;\n\n  function mul(uint256 _x, uint256 _y) internal pure returns (uint256 _z) {\n    require(_y == 0 || (_z = _x * _y) / _y == _x);\n  }\n\n  function rdiv(uint256 _x, uint256 _y) internal pure returns (uint256 _z) {\n    _z = mul(_x, ONE) / _y;\n  }\n\n  // --- Administration ---\n  event LogSetStableCoinReferencePrice(address indexed _caller, uint256 _data);\n\n  modifier onlyOwner() {\n    IAccessControlConfig _accessControlConfig = IAccessControlConfig(bookKeeper.accessControlConfig());\n    require(_accessControlConfig.hasRole(_accessControlConfig.OWNER_ROLE(), msg.sender), \"!ownerRole\");\n    _;\n  }\n\n  modifier onlyOwnerOrGov() {\n    IAccessControlConfig _accessControlConfig = IAccessControlConfig(IBookKeeper(bookKeeper).accessControlConfig());\n    require(\n      _accessControlConfig.hasRole(_accessControlConfig.OWNER_ROLE(), msg.sender) ||\n        _accessControlConfig.hasRole(_accessControlConfig.GOV_ROLE(), msg.sender),\n      \"!(ownerRole or govRole)\"\n    );\n    _;\n  }\n\n  modifier onlyOwnerOrShowStopper() {\n    IAccessControlConfig _accessControlConfig = IAccessControlConfig(IBookKeeper(bookKeeper).accessControlConfig());\n    require(\n      _accessControlConfig.hasRole(_accessControlConfig.OWNER_ROLE(), msg.sender) ||\n        _accessControlConfig.hasRole(_accessControlConfig.SHOW_STOPPER_ROLE(), msg.sender),\n      \"!(ownerRole or showStopperRole)\"\n    );\n    _;\n  }\n\n  /// @dev access: OWNER_ROLE\n  function setStableCoinReferencePrice(uint256 _data) external onlyOwner {\n    require(live == 1, \"PriceOracle/not-live\");\n    stableCoinReferencePrice = _data;\n    emit LogSetStableCoinReferencePrice(msg.sender, _data);\n  }\n\n  // --- Update value ---\n  /// @dev Update the latest price with safety margin of the collateral pool to the BookKeeper\n  /// @param _collateralPoolId Collateral pool id\n  function setPrice(bytes32 _collateralPoolId) external whenNotPaused {\n    IPriceFeed _priceFeed = IPriceFeed(\n      ICollateralPoolConfig(bookKeeper.collateralPoolConfig()).collateralPools(_collateralPoolId).priceFeed\n    );\n    uint256 _liquidationRatio = ICollateralPoolConfig(bookKeeper.collateralPoolConfig()).getLiquidationRatio(\n      _collateralPoolId\n    );\n    (bytes32 _rawPrice, bool _hasPrice) = _priceFeed.peekPrice();\n    uint256 _priceWithSafetyMargin = _hasPrice\n      ? rdiv(rdiv(mul(uint256(_rawPrice), 10**9), stableCoinReferencePrice), _liquidationRatio)\n      : 0;\n    address _collateralPoolConfig = address(bookKeeper.collateralPoolConfig());\n    ICollateralPoolConfig(_collateralPoolConfig).setPriceWithSafetyMargin(_collateralPoolId, _priceWithSafetyMargin);\n    emit LogSetPrice(_collateralPoolId, _rawPrice, _priceWithSafetyMargin);\n  }\n\n  /// @dev access: OWNER_ROLE, SHOW_STOPPER_ROLE\n  function cage() external override onlyOwnerOrShowStopper {\n    require(live == 1, \"PriceOracle/not-live\");\n    live = 0;\n    emit LogCage();\n  }\n\n  /// @dev access: OWNER_ROLE, SHOW_STOPPER_ROLE\n  function uncage() external override onlyOwnerOrShowStopper {\n    require(live == 0, \"PriceOracle/not-caged\");\n    live = 1;\n    emit LogUncage();\n  }\n\n  // --- pause ---\n  /// @dev access: OWNER_ROLE, GOV_ROLE\n  function pause() external onlyOwnerOrGov {\n    _pause();\n  }\n\n  /// @dev access: OWNER_ROLE, GOV_ROLE\n  function unpause() external onlyOwnerOrGov {\n    _unpause();\n  }\n}\n",
    "sourcePath": "/Users/vitaliikoval/dev/fathom-stablecoin-smart-contracts/contracts/8.17/stablecoin-core/PriceOracle.sol",
    "compiler": {
        "name": "solc",
        "version": "0.8.17+commit.8df45f5f.Emscripten.clang"
    },
    "schemaVersion": "3.4.10",
    "updatedAt": "2022-10-04T12:39:38.162Z",
    "devdoc": {
        "kind": "dev",
        "methods": {
            "cage()": {
                "details": "access: OWNER_ROLE, SHOW_STOPPER_ROLE"
            },
            "pause()": {
                "details": "access: OWNER_ROLE, GOV_ROLE"
            },
            "paused()": {
                "details": "Returns true if the contract is paused, and false otherwise."
            },
            "setPrice(bytes32)": {
                "details": "Update the latest price with safety margin of the collateral pool to the BookKeeper",
                "params": {
                    "_collateralPoolId": "Collateral pool id"
                }
            },
            "setStableCoinReferencePrice(uint256)": {
                "details": "access: OWNER_ROLE"
            },
            "uncage()": {
                "details": "access: OWNER_ROLE, SHOW_STOPPER_ROLE"
            },
            "unpause()": {
                "details": "access: OWNER_ROLE, GOV_ROLE"
            }
        },
        "version": 1
    },
    "userdoc": {
        "kind": "user",
        "methods": {},
        "notice": "A contract which is the price oracle of the BookKeeper to keep all collateral pools updated with the latest price of the collateral. The price oracle is important in reflecting the current state of the market price.",
        "version": 1
    }
}