{
    "contractName": "BookKeeperFlashMintArbitrager",
    "abi": [
        {
            "anonymous": false,
            "inputs": [
                {
                    "indexed": false,
                    "internalType": "uint8",
                    "name": "version",
                    "type": "uint8"
                }
            ],
            "name": "Initialized",
            "type": "event"
        },
        {
            "anonymous": false,
            "inputs": [
                {
                    "indexed": true,
                    "internalType": "address",
                    "name": "previousOwner",
                    "type": "address"
                },
                {
                    "indexed": true,
                    "internalType": "address",
                    "name": "newOwner",
                    "type": "address"
                }
            ],
            "name": "OwnershipTransferred",
            "type": "event"
        },
        {
            "inputs": [],
            "name": "owner",
            "outputs": [
                {
                    "internalType": "address",
                    "name": "",
                    "type": "address"
                }
            ],
            "stateMutability": "view",
            "type": "function"
        },
        {
            "inputs": [],
            "name": "renounceOwnership",
            "outputs": [],
            "stateMutability": "nonpayable",
            "type": "function"
        },
        {
            "inputs": [],
            "name": "stablecoin",
            "outputs": [
                {
                    "internalType": "address",
                    "name": "",
                    "type": "address"
                }
            ],
            "stateMutability": "view",
            "type": "function"
        },
        {
            "inputs": [
                {
                    "internalType": "address",
                    "name": "newOwner",
                    "type": "address"
                }
            ],
            "name": "transferOwnership",
            "outputs": [],
            "stateMutability": "nonpayable",
            "type": "function"
        },
        {
            "inputs": [
                {
                    "internalType": "address",
                    "name": "_stablecoin",
                    "type": "address"
                }
            ],
            "name": "initialize",
            "outputs": [],
            "stateMutability": "nonpayable",
            "type": "function"
        },
        {
            "inputs": [
                {
                    "internalType": "address",
                    "name": "initiator",
                    "type": "address"
                },
                {
                    "internalType": "uint256",
                    "name": "loanValue",
                    "type": "uint256"
                },
                {
                    "internalType": "uint256",
                    "name": "fee",
                    "type": "uint256"
                },
                {
                    "internalType": "bytes",
                    "name": "data",
                    "type": "bytes"
                }
            ],
            "name": "onBookKeeperFlashLoan",
            "outputs": [
                {
                    "internalType": "bytes32",
                    "name": "",
                    "type": "bytes32"
                }
            ],
            "stateMutability": "nonpayable",
            "type": "function"
        }
    ],
    "bytecode": "0x608060405234801561001057600080fd5b5061113d806100206000396000f3fe608060405234801561001057600080fd5b50600436106100625760003560e01c8063715018a6146100675780638da5cb5b14610071578063acb554681461009b578063c4d66de8146100bc578063e9cbd822146100cf578063f2fde38b146100e2575b600080fd5b61006f6100f5565b005b6033546001600160a01b03165b6040516001600160a01b0390911681526020015b60405180910390f35b6100ae6100a9366004610d24565b610109565b604051908152602001610092565b61006f6100ca366004610dba565b6108b8565b60655461007e906001600160a01b031681565b61006f6100f0366004610dba565b6109ea565b6100fd610a63565b6101076000610abd565b565b6040805160608101825260008082526020820181905291810182905261013183850185610dd7565b6001600160a01b039081166040850152908116602084015216815260006002604051908082528060200260200182016040528015610179578160200160208202803683370190505b5060655481519192506001600160a01b031690829060009061019d5761019d610e38565b60200260200101906001600160a01b031690816001600160a01b0316815250508160200151816001815181106101d5576101d5610e38565b6001600160a01b039092166020928302919091019091015260006102056b033b2e3c9fd0803ce800000089610e64565b905082604001516001600160a01b03166346a311d36040518163ffffffff1660e01b8152600401602060405180830381865afa158015610249573d6000803e3d6000fd5b505050506040513d601f19601f8201168201806040525081019061026d9190610e86565b6001600160a01b031663e3b3932a6040518163ffffffff1660e01b81526004016020604051808303816000875af11580156102ac573d6000803e3d6000fd5b505050506040513d601f19601f820116820180604052508101906102d09190610e86565b6001600160a01b0316639b19251a84604001516001600160a01b03166346a311d36040518163ffffffff1660e01b8152600401602060405180830381865afa158015610320573d6000803e3d6000fd5b505050506040513d601f19601f820116820180604052508101906103449190610e86565b6040516001600160e01b031960e084901b1681526001600160a01b039091166004820152602401600060405180830381600087803b15801561038557600080fd5b505af1158015610399573d6000803e3d6000fd5b5050505082604001516001600160a01b03166346a311d36040518163ffffffff1660e01b8152600401602060405180830381865afa1580156103df573d6000803e3d6000fd5b505050506040513d601f19601f820116820180604052508101906104039190610e86565b60408051600060208201526001600160a01b0392909216916331f092659130918591016040516020818303038152906040526040518463ffffffff1660e01b815260040161045393929190610ec7565b600060405180830381600087803b15801561046d57600080fd5b505af1158015610481573d6000803e3d6000fd5b50505050600061049d84602001516001600160a01b0316610b0f565b84516065549192506104bb916001600160a01b031690600019610b80565b83516040516338ed173960e01b81526001600160a01b03909116906338ed1739906104f3908590600090889030904290600401610f10565b6000604051808303816000875af1158015610512573d6000803e3d6000fd5b505050506040513d6000823e601f3d908101601f1916820160405261053a9190810190610f81565b508351606554610557916001600160a01b03909116906000610b80565b600061056f85602001516001600160a01b0316610b0f565b90506105f185604001516001600160a01b031663e723b9776040518163ffffffff1660e01b8152600401602060405180830381865afa1580156105b6573d6000803e3d6000fd5b505050506040513d601f19601f820116820180604052508101906105da9190610e86565b60208701516001600160a01b031690600019610b80565b60408501516001600160a01b03166340853dce3061060f8486610c8a565b6040516001600160e01b031960e085901b1681526001600160a01b0390921660048301526024820152604401600060405180830381600087803b15801561065557600080fd5b505af1158015610669573d6000803e3d6000fd5b505050506106ec85604001516001600160a01b031663e723b9776040518163ffffffff1660e01b8152600401602060405180830381865afa1580156106b2573d6000803e3d6000fd5b505050506040513d601f19601f820116820180604052508101906106d69190610e86565b60208701516001600160a01b0316906000610b80565b61078885604001516001600160a01b03166346a311d36040518163ffffffff1660e01b8152600401602060405180830381865afa158015610731573d6000803e3d6000fd5b505050506040513d601f19601f820116820180604052508101906107559190610e86565b61077561076e8c6b033b2e3c9fd0803ce8000000610c9d565b8690610ca9565b6065546001600160a01b03169190610b80565b84604001516001600160a01b03166346a311d36040518163ffffffff1660e01b8152600401602060405180830381865afa1580156107ca573d6000803e3d6000fd5b505050506040513d601f19601f820116820180604052508101906107ee9190610e86565b6001600160a01b03166349bdc2b83361081d6108168d6b033b2e3c9fd0803ce8000000610c9d565b8790610ca9565b6040805160006020820152016040516020818303038152906040526040518463ffffffff1660e01b815260040161085693929190610ec7565b600060405180830381600087803b15801561087057600080fd5b505af1158015610884573d6000803e3d6000fd5b507f0a749ded14b97653a44d6e6b0b8342c23ed955e329d919b01a4ee7ef7907f64c9e9d5050505050505050505050505050565b600054610100900460ff16158080156108d85750600054600160ff909116105b806108f25750303b1580156108f2575060005460ff166001145b61095a5760405162461bcd60e51b815260206004820152602e60248201527f496e697469616c697a61626c653a20636f6e747261637420697320616c72656160448201526d191e481a5b9a5d1a585b1a5e995960921b60648201526084015b60405180910390fd5b6000805460ff19166001179055801561097d576000805461ff0019166101001790555b610985610cb5565b606580546001600160a01b0319166001600160a01b03841617905580156109e6576000805461ff0019169055604051600181527f7f26b83ff96e1f2b6a682f133852f6798a09c465da95921460cefb38474024989060200160405180910390a15b5050565b6109f2610a63565b6001600160a01b038116610a575760405162461bcd60e51b815260206004820152602660248201527f4f776e61626c653a206e6577206f776e657220697320746865207a65726f206160448201526564647265737360d01b6064820152608401610951565b610a6081610abd565b50565b6033546001600160a01b031633146101075760405162461bcd60e51b815260206004820181905260248201527f4f776e61626c653a2063616c6c6572206973206e6f7420746865206f776e65726044820152606401610951565b603380546001600160a01b038381166001600160a01b0319831681179093556040519116919082907f8be0079c531659141344cd1fd0a4f28419497f9722a3daafe3b4186f6b6457e090600090a35050565b6040516370a0823160e01b81523060048201526000906001600160a01b038316906370a0823190602401602060405180830381865afa158015610b56573d6000803e3d6000fd5b505050506040513d601f19601f82011682018060405250810190610b7a919061103f565b92915050565b604080516001600160a01b038481166024830152604480830185905283518084039091018152606490920183526020820180516001600160e01b031663095ea7b360e01b1790529151600092839290871691610bdc9190611058565b6000604051808303816000865af19150503d8060008114610c19576040519150601f19603f3d011682016040523d82523d6000602084013e610c1e565b606091505b5091509150818015610c48575080511580610c48575080806020019051810190610c489190611074565b610c835760405162461bcd60e51b815260206004820152600c60248201526b2173616665417070726f766560a01b6044820152606401610951565b5050505050565b6000610c968284611096565b9392505050565b6000610c968284610e64565b6000610c9682846110a9565b600054610100900460ff16610cdc5760405162461bcd60e51b8152600401610951906110bc565b610107600054610100900460ff16610d065760405162461bcd60e51b8152600401610951906110bc565b61010733610abd565b6001600160a01b0381168114610a6057600080fd5b600080600080600060808688031215610d3c57600080fd5b8535610d4781610d0f565b94506020860135935060408601359250606086013567ffffffffffffffff80821115610d7257600080fd5b818801915088601f830112610d8657600080fd5b813581811115610d9557600080fd5b896020828501011115610da757600080fd5b9699959850939650602001949392505050565b600060208284031215610dcc57600080fd5b8135610c9681610d0f565b600080600060608486031215610dec57600080fd5b8335610df781610d0f565b92506020840135610e0781610d0f565b91506040840135610e1781610d0f565b809150509250925092565b634e487b7160e01b600052604160045260246000fd5b634e487b7160e01b600052603260045260246000fd5b634e487b7160e01b600052601160045260246000fd5b600082610e8157634e487b7160e01b600052601260045260246000fd5b500490565b600060208284031215610e9857600080fd5b8151610c9681610d0f565b60005b83811015610ebe578181015183820152602001610ea6565b50506000910152565b60018060a01b03841681528260208201526060604082015260008251806060840152610efa816080850160208701610ea3565b601f01601f191691909101608001949350505050565b600060a082018783526020878185015260a0604085015281875180845260c086019150828901935060005b81811015610f605784516001600160a01b031683529383019391830191600101610f3b565b50506001600160a01b03969096166060850152505050608001529392505050565b60006020808385031215610f9457600080fd5b825167ffffffffffffffff80821115610fac57600080fd5b818501915085601f830112610fc057600080fd5b815181811115610fd257610fd2610e22565b8060051b604051601f19603f83011681018181108582111715610ff757610ff7610e22565b60405291825284820192508381018501918883111561101557600080fd5b938501935b828510156110335784518452938501939285019261101a565b98975050505050505050565b60006020828403121561105157600080fd5b5051919050565b6000825161106a818460208701610ea3565b9190910192915050565b60006020828403121561108657600080fd5b81518015158114610c9657600080fd5b81810381811115610b7a57610b7a610e4e565b80820180821115610b7a57610b7a610e4e565b6020808252602b908201527f496e697469616c697a61626c653a20636f6e7472616374206973206e6f74206960408201526a6e697469616c697a696e6760a81b60608201526080019056fea26469706673582212202251bb0fb3f70b692858c5d8b6c06202aea4a855c12edec41cbb9b66f2ce6c2864736f6c63430008110033",
    "immutableReferences": {},
    "source": "// SPDX-License-Identifier: MIT\npragma solidity 0.8.17;\n\nimport \"@openzeppelin/contracts-upgradeable/access/OwnableUpgradeable.sol\";\nimport \"@openzeppelin/contracts-upgradeable/utils/math/SafeMathUpgradeable.sol\";\n\nimport \"../../main/interfaces/IBookKeeperFlashBorrower.sol\";\nimport \"../../main/interfaces/IStableSwapModule.sol\";\nimport \"../../main/interfaces/IStablecoinAdapter.sol\";\nimport \"../../main/utils/SafeToken.sol\";\nimport \"../../main/price-oracles/lib/IFathomSwapRouter.sol\";\n\ncontract BookKeeperFlashMintArbitrager is OwnableUpgradeable, IBookKeeperFlashBorrower {\n    using SafeMathUpgradeable for uint256;\n    using SafeToken for address;\n    address public stablecoin;\n\n    struct LocalVars {\n        address router;\n        address stableSwapToken;\n        IStableSwapModule stableSwapModule;\n    }\n\n    function initialize(address _stablecoin) external initializer {\n        OwnableUpgradeable.__Ownable_init();\n\n        stablecoin = _stablecoin;\n    }\n\n    uint256 constant RAY = 10 ** 27;\n\n    function onBookKeeperFlashLoan(\n        address initiator,\n        uint256 loanValue, // [rad]\n        uint256 fee,\n        bytes calldata data\n    ) external override returns (bytes32) {\n        LocalVars memory vars;\n        (vars.router, vars.stableSwapToken, vars.stableSwapModule) = abi.decode(data, (address, address, IStableSwapModule));\n        address[] memory path = new address[](2);\n        path[0] = stablecoin;\n        path[1] = vars.stableSwapToken;\n\n        uint256 loanAmount = loanValue / RAY;\n\n        // 1. Swap AUSD to BUSD at a DEX\n        vars.stableSwapModule.stablecoinAdapter().bookKeeper().whitelist(address(vars.stableSwapModule.stablecoinAdapter()));\n        vars.stableSwapModule.stablecoinAdapter().withdraw(address(this), loanAmount, abi.encode(0));\n        uint256 balanceBefore = vars.stableSwapToken.myBalance();\n        stablecoin.safeApprove(vars.router, type(uint).max);\n        IFathomSwapRouter(vars.router).swapExactTokensForTokens(loanAmount, 0, path, address(this), block.timestamp);\n        stablecoin.safeApprove(vars.router, 0);\n        uint256 balanceAfter = vars.stableSwapToken.myBalance();\n\n        // 2. Swap BUSD to AUSD at StableSwapModule\n        vars.stableSwapToken.safeApprove(address(vars.stableSwapModule.authTokenAdapter()), type(uint).max);\n        vars.stableSwapModule.swapTokenToStablecoin(address(this), balanceAfter.sub(balanceBefore));\n        vars.stableSwapToken.safeApprove(address(vars.stableSwapModule.authTokenAdapter()), 0);\n\n        // 3. Approve AUSD for FlashMintModule\n        stablecoin.safeApprove(address(vars.stableSwapModule.stablecoinAdapter()), loanAmount.add(fee.div(RAY)));\n        vars.stableSwapModule.stablecoinAdapter().deposit(msg.sender, loanAmount.add(fee.div(RAY)), abi.encode(0));\n\n        return keccak256(\"BookKeeperFlashBorrower.onBookKeeperFlashLoan\");\n    }\n}\n",
    "sourcePath": "/Users/vitaliikoval/dev/fathom-stablecoin-smart-contracts/contracts/tests/mocks/BookKeeperFlashMintArbitrager.sol",
    "compiler": {
        "name": "solc",
        "version": "0.8.17+commit.8df45f5f.Emscripten.clang"
    },
    "schemaVersion": "3.4.10",
    "updatedAt": "2023-01-02T07:05:53.756Z",
    "devdoc": {
        "kind": "dev",
        "methods": {
            "owner()": {
                "details": "Returns the address of the current owner."
            },
            "renounceOwnership()": {
                "details": "Leaves the contract without owner. It will not be possible to call `onlyOwner` functions anymore. Can only be called by the current owner. NOTE: Renouncing ownership will leave the contract without an owner, thereby removing any functionality that is only available to the owner."
            },
            "transferOwnership(address)": {
                "details": "Transfers ownership of the contract to a new account (`newOwner`). Can only be called by the current owner."
            }
        },
        "version": 1
    },
    "userdoc": {
        "kind": "user",
        "methods": {},
        "version": 1
    }
}