{
    "contractName": "CollateralTokenAdapterFactory",
    "abi": [
        {
            "anonymous": false,
            "inputs": [
                {
                    "indexed": true,
                    "internalType": "bytes32",
                    "name": "collateralPoolId",
                    "type": "bytes32"
                },
                {
                    "indexed": false,
                    "internalType": "address",
                    "name": "adapterAddress",
                    "type": "address"
                }
            ],
            "name": "CollateralTokenAdapterCreated",
            "type": "event"
        },
        {
            "anonymous": false,
            "inputs": [
                {
                    "indexed": false,
                    "internalType": "uint8",
                    "name": "version",
                    "type": "uint8"
                }
            ],
            "name": "Initialized",
            "type": "event"
        },
        {
            "anonymous": false,
            "inputs": [
                {
                    "indexed": true,
                    "internalType": "address",
                    "name": "previousOwner",
                    "type": "address"
                },
                {
                    "indexed": true,
                    "internalType": "address",
                    "name": "newOwner",
                    "type": "address"
                }
            ],
            "name": "OwnershipTransferred",
            "type": "event"
        },
        {
            "inputs": [
                {
                    "internalType": "bytes32",
                    "name": "",
                    "type": "bytes32"
                }
            ],
            "name": "adapters",
            "outputs": [
                {
                    "internalType": "address",
                    "name": "",
                    "type": "address"
                }
            ],
            "stateMutability": "view",
            "type": "function"
        },
        {
            "inputs": [],
            "name": "implementation",
            "outputs": [
                {
                    "internalType": "address",
                    "name": "",
                    "type": "address"
                }
            ],
            "stateMutability": "view",
            "type": "function"
        },
        {
            "inputs": [],
            "name": "owner",
            "outputs": [
                {
                    "internalType": "address",
                    "name": "",
                    "type": "address"
                }
            ],
            "stateMutability": "view",
            "type": "function"
        },
        {
            "inputs": [],
            "name": "renounceOwnership",
            "outputs": [],
            "stateMutability": "nonpayable",
            "type": "function"
        },
        {
            "inputs": [
                {
                    "internalType": "address",
                    "name": "newOwner",
                    "type": "address"
                }
            ],
            "name": "transferOwnership",
            "outputs": [],
            "stateMutability": "nonpayable",
            "type": "function"
        },
        {
            "inputs": [
                {
                    "internalType": "address",
                    "name": "impl",
                    "type": "address"
                }
            ],
            "name": "initialize",
            "outputs": [],
            "stateMutability": "nonpayable",
            "type": "function"
        },
        {
            "inputs": [
                {
                    "internalType": "address",
                    "name": "bookKeeper",
                    "type": "address"
                },
                {
                    "internalType": "bytes32",
                    "name": "collateralPoolId",
                    "type": "bytes32"
                },
                {
                    "internalType": "address",
                    "name": "collateralToken",
                    "type": "address"
                },
                {
                    "internalType": "address",
                    "name": "rewardToken",
                    "type": "address"
                },
                {
                    "internalType": "address",
                    "name": "fairlaunch",
                    "type": "address"
                },
                {
                    "internalType": "uint256",
                    "name": "pid",
                    "type": "uint256"
                },
                {
                    "internalType": "address",
                    "name": "shield",
                    "type": "address"
                },
                {
                    "internalType": "address",
                    "name": "timelock",
                    "type": "address"
                },
                {
                    "internalType": "uint256",
                    "name": "treasuryFeeBps",
                    "type": "uint256"
                },
                {
                    "internalType": "address",
                    "name": "treasuryAccount",
                    "type": "address"
                },
                {
                    "internalType": "address",
                    "name": "positionManager",
                    "type": "address"
                }
            ],
            "name": "createAdapter",
            "outputs": [],
            "stateMutability": "nonpayable",
            "type": "function"
        }
    ],
    "bytecode": "0x608060405234801561001057600080fd5b5061075d806100206000396000f3fe608060405234801561001057600080fd5b506004361061007d5760003560e01c80638da5cb5b1161005b5780638da5cb5b146100e4578063c4d66de8146100f5578063dde6d54914610108578063f2fde38b1461011b57600080fd5b80635c60da1b14610082578063715018a6146100b157806372c6838f146100bb575b600080fd5b606554610095906001600160a01b031681565b6040516001600160a01b03909116815260200160405180910390f35b6100b961012e565b005b6100956100c93660046105d3565b6066602052600090815260409020546001600160a01b031681565b6033546001600160a01b0316610095565b6100b9610103366004610603565b610142565b6100b9610116366004610625565b610274565b6100b9610129366004610603565b6103b2565b61013661042b565b6101406000610485565b565b600054610100900460ff16158080156101625750600054600160ff909116105b8061017c5750303b15801561017c575060005460ff166001145b6101e45760405162461bcd60e51b815260206004820152602e60248201527f496e697469616c697a61626c653a20636f6e747261637420697320616c72656160448201526d191e481a5b9a5d1a585b1a5e995960921b60648201526084015b60405180910390fd5b6000805460ff191660011790558015610207576000805461ff0019166101001790555b61020f6104d7565b606580546001600160a01b0319166001600160a01b0384161790558015610270576000805461ff0019169055604051600181527f7f26b83ff96e1f2b6a682f133852f6798a09c465da95921460cefb38474024989060200160405180910390a15b5050565b61027c61042b565b606554600090610294906001600160a01b0316610506565b6040516323905f6360e01b81526001600160a01b038e81166004830152602482018e90528c811660448301528b811660648301528a8116608483015260a482018a905288811660c483015287811660e48301526101048201879052858116610124830152848116610144830152919250908216906323905f639061016401600060405180830381600087803b15801561032c57600080fd5b505af1158015610340573d6000803e3d6000fd5b50505060008c81526066602090815260409182902080546001600160a01b0319166001600160a01b03861690811790915591519182528d92507fa4c941b726a20f9a104cc8d00d069f22b5553faefd5ce7698399fbe77ba3fe18910160405180910390a2505050505050505050505050565b6103ba61042b565b6001600160a01b03811661041f5760405162461bcd60e51b815260206004820152602660248201527f4f776e61626c653a206e6577206f776e657220697320746865207a65726f206160448201526564647265737360d01b60648201526084016101db565b61042881610485565b50565b6033546001600160a01b031633146101405760405162461bcd60e51b815260206004820181905260248201527f4f776e61626c653a2063616c6c6572206973206e6f7420746865206f776e657260448201526064016101db565b603380546001600160a01b038381166001600160a01b0319831681179093556040519116919082907f8be0079c531659141344cd1fd0a4f28419497f9722a3daafe3b4186f6b6457e090600090a35050565b600054610100900460ff166104fe5760405162461bcd60e51b81526004016101db906106dc565b6101406105a3565b6000604051733d602d80600a3d3981f3363d3d373d3d3d363d7360601b81528260601b60148201526e5af43d82803e903d91602b57fd5bf360881b60288201526037816000f09150506001600160a01b03811661059e5760405162461bcd60e51b8152602060048201526016602482015275115490cc4c4d8dce8818dc99585d194819985a5b195960521b60448201526064016101db565b919050565b600054610100900460ff166105ca5760405162461bcd60e51b81526004016101db906106dc565b61014033610485565b6000602082840312156105e557600080fd5b5035919050565b80356001600160a01b038116811461059e57600080fd5b60006020828403121561061557600080fd5b61061e826105ec565b9392505050565b60008060008060008060008060008060006101608c8e03121561064757600080fd5b6106508c6105ec565b9a5060208c0135995061066560408d016105ec565b985061067360608d016105ec565b975061068160808d016105ec565b965060a08c0135955061069660c08d016105ec565b94506106a460e08d016105ec565b93506101008c013592506106bb6101208d016105ec565b91506106ca6101408d016105ec565b90509295989b509295989b9093969950565b6020808252602b908201527f496e697469616c697a61626c653a20636f6e7472616374206973206e6f74206960408201526a6e697469616c697a696e6760a81b60608201526080019056fea2646970667358221220b65d7be980f672fb1cf9ab7496586a9ff85aaa1033770c473f5760906af637a464736f6c63430008110033",
    "immutableReferences": {},
    "source": "// SPDX-License-Identifier: AGPL-3.0-or-later\npragma solidity 0.8.17;\n\nimport \"./CollateralTokenAdapter.sol\";\nimport \"@openzeppelin/contracts-upgradeable/access/OwnableUpgradeable.sol\";\nimport {Clones} from \"@openzeppelin/contracts/proxy/Clones.sol\";\n\ncontract CollateralTokenAdapterFactory is OwnableUpgradeable {\n    address public implementation;\n    mapping(bytes32 => address) public adapters;\n\n    event CollateralTokenAdapterCreated(\n        bytes32 indexed collateralPoolId,\n        address adapterAddress\n    );\n\n    function initialize(address impl) external initializer {\n        OwnableUpgradeable.__Ownable_init();\n        implementation = impl;\n    }\n\n    function createAdapter(\n        address bookKeeper,\n        bytes32 collateralPoolId,\n        address collateralToken,\n        address rewardToken,\n        address fairlaunch,\n        uint256 pid,\n        address shield,\n        address timelock,\n        uint256 treasuryFeeBps,\n        address treasuryAccount,\n        address positionManager\n    ) external onlyOwner {\n        CollateralTokenAdapter adapter = CollateralTokenAdapter(\n            Clones.clone(implementation)\n        );\n\n        adapter.initialize(\n            bookKeeper,\n            collateralPoolId,\n            collateralToken,\n            rewardToken,\n            fairlaunch,\n            pid,\n            shield,\n            timelock,\n            treasuryFeeBps,\n            treasuryAccount,\n            positionManager\n        );\n        adapters[collateralPoolId] = address(adapter);\n\n        emit CollateralTokenAdapterCreated(collateralPoolId, address(adapter));\n    }\n}\n",
    "sourcePath": "/Users/vitaliikoval/dev/fathom-stablecoin-smart-contracts/contracts/main/stablecoin-core/adapters/FarmableTokenAdapter/CollateralTokenAdapterFactory.sol",
    "compiler": {
        "name": "solc",
        "version": "0.8.17+commit.8df45f5f.Emscripten.clang"
    },
    "schemaVersion": "3.4.10",
    "updatedAt": "2023-01-02T07:05:53.713Z",
    "devdoc": {
        "kind": "dev",
        "methods": {
            "owner()": {
                "details": "Returns the address of the current owner."
            },
            "renounceOwnership()": {
                "details": "Leaves the contract without owner. It will not be possible to call `onlyOwner` functions anymore. Can only be called by the current owner. NOTE: Renouncing ownership will leave the contract without an owner, thereby removing any functionality that is only available to the owner."
            },
            "transferOwnership(address)": {
                "details": "Transfers ownership of the contract to a new account (`newOwner`). Can only be called by the current owner."
            }
        },
        "version": 1
    },
    "userdoc": {
        "kind": "user",
        "methods": {},
        "version": 1
    }
}