{
    "contractName": "DelayFathomOraclePriceFeed",
    "abi": [
        {
            "anonymous": false,
            "inputs": [
                {
                    "indexed": false,
                    "internalType": "uint8",
                    "name": "version",
                    "type": "uint8"
                }
            ],
            "name": "Initialized",
            "type": "event"
        },
        {
            "anonymous": false,
            "inputs": [
                {
                    "indexed": true,
                    "internalType": "address",
                    "name": "_caller",
                    "type": "address"
                },
                {
                    "indexed": false,
                    "internalType": "uint256",
                    "name": "_second",
                    "type": "uint256"
                }
            ],
            "name": "LogSetPriceLife",
            "type": "event"
        },
        {
            "anonymous": false,
            "inputs": [
                {
                    "indexed": true,
                    "internalType": "address",
                    "name": "_caller",
                    "type": "address"
                },
                {
                    "indexed": false,
                    "internalType": "uint256",
                    "name": "_second",
                    "type": "uint256"
                }
            ],
            "name": "LogSetTimeDelay",
            "type": "event"
        },
        {
            "anonymous": false,
            "inputs": [
                {
                    "indexed": false,
                    "internalType": "address",
                    "name": "account",
                    "type": "address"
                }
            ],
            "name": "Paused",
            "type": "event"
        },
        {
            "anonymous": false,
            "inputs": [
                {
                    "indexed": false,
                    "internalType": "address",
                    "name": "account",
                    "type": "address"
                }
            ],
            "name": "Unpaused",
            "type": "event"
        },
        {
            "inputs": [],
            "name": "accessControlConfig",
            "outputs": [
                {
                    "internalType": "contract IAccessControlConfig",
                    "name": "",
                    "type": "address"
                }
            ],
            "stateMutability": "view",
            "type": "function"
        },
        {
            "inputs": [],
            "name": "currentPrice",
            "outputs": [
                {
                    "internalType": "uint256",
                    "name": "price",
                    "type": "uint256"
                },
                {
                    "internalType": "uint256",
                    "name": "lastUpdateTS",
                    "type": "uint256"
                }
            ],
            "stateMutability": "view",
            "type": "function"
        },
        {
            "inputs": [],
            "name": "fathomOracle",
            "outputs": [
                {
                    "internalType": "contract IFathomOracle",
                    "name": "",
                    "type": "address"
                }
            ],
            "stateMutability": "view",
            "type": "function"
        },
        {
            "inputs": [],
            "name": "paused",
            "outputs": [
                {
                    "internalType": "bool",
                    "name": "",
                    "type": "bool"
                }
            ],
            "stateMutability": "view",
            "type": "function"
        },
        {
            "inputs": [],
            "name": "priceLife",
            "outputs": [
                {
                    "internalType": "uint256",
                    "name": "",
                    "type": "uint256"
                }
            ],
            "stateMutability": "view",
            "type": "function"
        },
        {
            "inputs": [],
            "name": "timeDelay",
            "outputs": [
                {
                    "internalType": "uint256",
                    "name": "",
                    "type": "uint256"
                }
            ],
            "stateMutability": "view",
            "type": "function"
        },
        {
            "inputs": [],
            "name": "token0",
            "outputs": [
                {
                    "internalType": "address",
                    "name": "",
                    "type": "address"
                }
            ],
            "stateMutability": "view",
            "type": "function"
        },
        {
            "inputs": [],
            "name": "token1",
            "outputs": [
                {
                    "internalType": "address",
                    "name": "",
                    "type": "address"
                }
            ],
            "stateMutability": "view",
            "type": "function"
        },
        {
            "inputs": [
                {
                    "internalType": "address",
                    "name": "_fathomOracle",
                    "type": "address"
                },
                {
                    "internalType": "address",
                    "name": "_token0",
                    "type": "address"
                },
                {
                    "internalType": "address",
                    "name": "_token1",
                    "type": "address"
                },
                {
                    "internalType": "address",
                    "name": "_accessControlConfig",
                    "type": "address"
                }
            ],
            "name": "initialize",
            "outputs": [],
            "stateMutability": "nonpayable",
            "type": "function"
        },
        {
            "inputs": [
                {
                    "internalType": "uint256",
                    "name": "_second",
                    "type": "uint256"
                }
            ],
            "name": "setPriceLife",
            "outputs": [],
            "stateMutability": "nonpayable",
            "type": "function"
        },
        {
            "inputs": [
                {
                    "internalType": "uint256",
                    "name": "_second",
                    "type": "uint256"
                }
            ],
            "name": "setTimeDelay",
            "outputs": [],
            "stateMutability": "nonpayable",
            "type": "function"
        },
        {
            "inputs": [],
            "name": "pause",
            "outputs": [],
            "stateMutability": "nonpayable",
            "type": "function"
        },
        {
            "inputs": [],
            "name": "unpause",
            "outputs": [],
            "stateMutability": "nonpayable",
            "type": "function"
        },
        {
            "inputs": [],
            "name": "readPrice",
            "outputs": [
                {
                    "internalType": "bytes32",
                    "name": "",
                    "type": "bytes32"
                }
            ],
            "stateMutability": "view",
            "type": "function"
        },
        {
            "inputs": [],
            "name": "peekPrice",
            "outputs": [
                {
                    "internalType": "bytes32",
                    "name": "",
                    "type": "bytes32"
                },
                {
                    "internalType": "bool",
                    "name": "",
                    "type": "bool"
                }
            ],
            "stateMutability": "nonpayable",
            "type": "function"
        },
        {
            "inputs": [],
            "name": "isPriceOk",
            "outputs": [
                {
                    "internalType": "bool",
                    "name": "",
                    "type": "bool"
                }
            ],
            "stateMutability": "view",
            "type": "function"
        }
    ],
    "bytecode": "0x608060405234801561001057600080fd5b50611012806100206000396000f3fe608060405234801561001057600080fd5b50600436106101005760003560e01c80637e91400f11610097578063c9dec36111610066578063c9dec36114610202578063d21220a71461020b578063ef36ee471461021e578063f8c8765e1461023157600080fd5b80637e91400f146101bc5780638456cb59146101c45780639d1b464a146101cc578063c8cc243f146101ef57600080fd5b806339af6ba9116100d357806339af6ba91461017d5780633f4ba83a146101925780635af639c31461019a5780635c975abb146101b157600080fd5b80630184a92a146101055780630831bf42146101225780630dfe16811461014d578063140d272014610160575b600080fd5b61010d610244565b60405190151581526020015b60405180910390f35b606854610135906001600160a01b031681565b6040516001600160a01b039091168152602001610119565b606a54610135906001600160a01b031681565b610168610253565b60408051928352901515602083015201610119565b61019061018b366004610e60565b61032e565b005b6101906104f3565b6101a3606c5481565b604051908152602001610119565b60335460ff1661010d565b6065546101a3565b610190610701565b6065546066546101da919082565b60408051928352602083019190915201610119565b606954610135906001600160a01b031681565b6101a360675481565b606b54610135906001600160a01b031681565b61019061022c366004610e60565b61090d565b61019061023f366004610e95565b610ac6565b600061024e610caa565b905090565b6065546000908190158061027657506067546066546102729190610eff565b4210155b1561031b57606854606a54606b54604051635620c32d60e11b81526001600160a01b03928316600482015290821660248201526000928392169063ac41865a906044016040805180830381865afa1580156102d5573d6000803e3d6000fd5b505050506040513d601f19601f820116820180604052508101906102f99190610f18565b60658290556066819055909250905081610311610caa565b9350935050509091565b606554610326610caa565b915091509091565b6069546040805163e58378bb60e01b815290516001600160a01b03909216916391d1485491839163e58378bb916004808201926020929091908290030181865afa158015610380573d6000803e3d6000fd5b505050506040513d601f19601f820116820180604052508101906103a49190610f3c565b6040516001600160e01b031960e084901b1681526004810191909152336024820152604401602060405180830381865afa1580156103e6573d6000803e3d6000fd5b505050506040513d601f19601f8201168201806040525081019061040a9190610f55565b6104485760405162461bcd60e51b815260206004820152600a602482015269216f776e6572526f6c6560b01b60448201526064015b60405180910390fd5b61012c811015801561045d5750620151808111155b6104b55760405162461bcd60e51b8152602060048201526024808201527f466174686f6d4f7261636c655072696365466565642f6261642d64656c61792d60448201526374696d6560e01b606482015260840161043f565b606781905560405181815233907f8c7220e16b36c16980047cfd2faf359f5a489e40edbb55fc4818907c9dde734a906020015b60405180910390a250565b6069546040805163e58378bb60e01b815290516001600160a01b03909216916391d1485491839163e58378bb916004808201926020929091908290030181865afa158015610545573d6000803e3d6000fd5b505050506040513d601f19601f820116820180604052508101906105699190610f3c565b6040516001600160e01b031960e084901b1681526004810191909152336024820152604401602060405180830381865afa1580156105ab573d6000803e3d6000fd5b505050506040513d601f19601f820116820180604052508101906105cf9190610f55565b806106b1575060695460408051635a9b40c560e11b815290516001600160a01b03909216916391d1485491839163b536818a916004808201926020929091908290030181865afa158015610627573d6000803e3d6000fd5b505050506040513d601f19601f8201168201806040525081019061064b9190610f3c565b6040516001600160e01b031960e084901b1681526004810191909152336024820152604401602060405180830381865afa15801561068d573d6000803e3d6000fd5b505050506040513d601f19601f820116820180604052508101906106b19190610f55565b6106f75760405162461bcd60e51b815260206004820152601760248201527621286f776e6572526f6c65206f7220676f76526f6c652960481b604482015260640161043f565b6106ff610cc6565b565b6069546040805163e58378bb60e01b815290516001600160a01b03909216916391d1485491839163e58378bb916004808201926020929091908290030181865afa158015610753573d6000803e3d6000fd5b505050506040513d601f19601f820116820180604052508101906107779190610f3c565b6040516001600160e01b031960e084901b1681526004810191909152336024820152604401602060405180830381865afa1580156107b9573d6000803e3d6000fd5b505050506040513d601f19601f820116820180604052508101906107dd9190610f55565b806108bf575060695460408051635a9b40c560e11b815290516001600160a01b03909216916391d1485491839163b536818a916004808201926020929091908290030181865afa158015610835573d6000803e3d6000fd5b505050506040513d601f19601f820116820180604052508101906108599190610f3c565b6040516001600160e01b031960e084901b1681526004810191909152336024820152604401602060405180830381865afa15801561089b573d6000803e3d6000fd5b505050506040513d601f19601f820116820180604052508101906108bf9190610f55565b6109055760405162461bcd60e51b815260206004820152601760248201527621286f776e6572526f6c65206f7220676f76526f6c652960481b604482015260640161043f565b6106ff610d18565b6069546040805163e58378bb60e01b815290516001600160a01b03909216916391d1485491839163e58378bb916004808201926020929091908290030181865afa15801561095f573d6000803e3d6000fd5b505050506040513d601f19601f820116820180604052508101906109839190610f3c565b6040516001600160e01b031960e084901b1681526004810191909152336024820152604401602060405180830381865afa1580156109c5573d6000803e3d6000fd5b505050506040513d601f19601f820116820180604052508101906109e99190610f55565b610a225760405162461bcd60e51b815260206004820152600a602482015269216f776e6572526f6c6560b01b604482015260640161043f565b61012c8110158015610a375750620151808111155b610a8f5760405162461bcd60e51b8152602060048201526024808201527f466174686f6d4f7261636c655072696365466565642f6261642d70726963652d6044820152636c69666560e01b606482015260840161043f565b606c81905560405181815233907f472c5e14bb804bd7b201c5c27f2ea820980b37ef7611806e7b3f6db6758f32e0906020016104e8565b600054610100900460ff1615808015610ae65750600054600160ff909116105b80610b005750303b158015610b00575060005460ff166001145b610b635760405162461bcd60e51b815260206004820152602e60248201527f496e697469616c697a61626c653a20636f6e747261637420697320616c72656160448201526d191e481a5b9a5d1a585b1a5e995960921b606482015260840161043f565b6000805460ff191660011790558015610b86576000805461ff0019166101001790555b610b8e610d55565b606980546001600160a01b038085166001600160a01b03199283161790925560688054888416921691909117905583811690851603610c215760405162461bcd60e51b815260206004820152602960248201527f466174686f6d4f7261636c655072696365466565642f77726f6e672d746f6b656044820152686e302d746f6b656e3160b81b606482015260840161043f565b606a80546001600160a01b038087166001600160a01b031992831617909255606b805492861692909116919091179055610708606c556103846067558015610ca3576000805461ff0019169055604051600181527f7f26b83ff96e1f2b6a682f133852f6798a09c465da95921460cefb38474024989060200160405180910390a15b5050505050565b6000610cb4610d84565b801561024e57505060335460ff161590565b610cce610d9e565b6033805460ff191690557f5db9ee0a495bf2e6ff9c91a7834c1ba4fdd244a5e8aa4e537bd38aeae4b073aa335b6040516001600160a01b03909116815260200160405180910390a1565b610d20610de7565b6033805460ff191660011790557f62e78cea01bee320cd4e420270b5ea74000d11b0c9f74754ebdbfc544b05a258610cfb3390565b600054610100900460ff16610d7c5760405162461bcd60e51b815260040161043f90610f7e565b6106ff610e2d565b6000606c5442610d949190610fc9565b6066541015919050565b60335460ff166106ff5760405162461bcd60e51b815260206004820152601460248201527314185d5cd8589b194e881b9bdd081c185d5cd95960621b604482015260640161043f565b60335460ff16156106ff5760405162461bcd60e51b815260206004820152601060248201526f14185d5cd8589b194e881c185d5cd95960821b604482015260640161043f565b600054610100900460ff16610e545760405162461bcd60e51b815260040161043f90610f7e565b6033805460ff19169055565b600060208284031215610e7257600080fd5b5035919050565b80356001600160a01b0381168114610e9057600080fd5b919050565b60008060008060808587031215610eab57600080fd5b610eb485610e79565b9350610ec260208601610e79565b9250610ed060408601610e79565b9150610ede60608601610e79565b905092959194509250565b634e487b7160e01b600052601160045260246000fd5b80820180821115610f1257610f12610ee9565b92915050565b60008060408385031215610f2b57600080fd5b505080516020909101519092909150565b600060208284031215610f4e57600080fd5b5051919050565b600060208284031215610f6757600080fd5b81518015158114610f7757600080fd5b9392505050565b6020808252602b908201527f496e697469616c697a61626c653a20636f6e7472616374206973206e6f74206960408201526a6e697469616c697a696e6760a81b606082015260800190565b81810381811115610f1257610f12610ee956fea264697066735822122010fd1daada06a25af517cb30d9b7c3a5d2f7222fc40594cf702ea45ba23905ea64736f6c63430008110033",
    "immutableReferences": {},
    "source": "// SPDX-License-Identifier: AGPL-3.0-or-later\npragma solidity 0.8.17;\n\nimport \"@openzeppelin/contracts-upgradeable/security/PausableUpgradeable.sol\";\n\nimport \"../interfaces/IFathomOraclePriceFeed.sol\";\nimport \"../interfaces/IFathomOracle.sol\";\nimport \"../interfaces/IAccessControlConfig.sol\";\n\ncontract DelayFathomOraclePriceFeed is PausableUpgradeable, IFathomOraclePriceFeed {\n    struct Feed {\n        uint256 price;\n        uint256 lastUpdateTS;\n    }\n\n    Feed public currentPrice;\n    uint256 public timeDelay;\n\n    IFathomOracle public fathomOracle;\n    IAccessControlConfig public accessControlConfig;\n    address public token0;\n    address public token1;\n    uint256 public priceLife; // [seconds] how old the price is considered stale, default 1 day\n\n    function initialize(address _fathomOracle, address _token0, address _token1, address _accessControlConfig) external initializer {\n        PausableUpgradeable.__Pausable_init();\n\n        accessControlConfig = IAccessControlConfig(_accessControlConfig);\n\n        fathomOracle = IFathomOracle(_fathomOracle);\n        require(_token0 != _token1, \"FathomOraclePriceFeed/wrong-token0-token1\");\n        token0 = _token0;\n        token1 = _token1;\n        priceLife = 30 minutes;\n        timeDelay = 15 minutes;\n    }\n\n    modifier onlyOwner() {\n        require(accessControlConfig.hasRole(accessControlConfig.OWNER_ROLE(), msg.sender), \"!ownerRole\");\n        _;\n    }\n\n    modifier onlyOwnerOrGov() {\n        require(\n            accessControlConfig.hasRole(accessControlConfig.OWNER_ROLE(), msg.sender) ||\n                accessControlConfig.hasRole(accessControlConfig.GOV_ROLE(), msg.sender),\n            \"!(ownerRole or govRole)\"\n        );\n        _;\n    }\n\n    event LogSetPriceLife(address indexed _caller, uint256 _second);\n    event LogSetTimeDelay(address indexed _caller, uint256 _second);\n\n    function setPriceLife(uint256 _second) external onlyOwner {\n        require(_second >= 5 minutes && _second <= 1 days, \"FathomOraclePriceFeed/bad-price-life\");\n        priceLife = _second;\n        emit LogSetPriceLife(msg.sender, _second);\n    }\n\n    function setTimeDelay(uint256 _second) external onlyOwner {\n        require(_second >= 5 minutes && _second <= 1 days, \"FathomOraclePriceFeed/bad-delay-time\");\n        timeDelay = _second;\n        emit LogSetTimeDelay(msg.sender, _second);\n    }\n\n    function pause() external onlyOwnerOrGov {\n        _pause();\n    }\n\n    function unpause() external onlyOwnerOrGov {\n        _unpause();\n    }\n\n    function readPrice() external view override returns (bytes32) {\n        uint256 _price = currentPrice.price;\n        return bytes32(_price);\n    }\n\n    function peekPrice() external override returns (bytes32, bool) {\n        if (currentPrice.price == 0 || block.timestamp >= currentPrice.lastUpdateTS + timeDelay) {\n            (uint256 _price, uint256 _lastUpdate) = fathomOracle.getPrice(token0, token1);\n            currentPrice.price = _price;\n            currentPrice.lastUpdateTS = _lastUpdate;\n            return (bytes32(currentPrice.price), _isPriceOk());\n        } else {\n            return (bytes32(currentPrice.price), _isPriceOk());\n        }\n    }\n\n    function isPriceOk() external view override returns (bool) {\n        return _isPriceOk();\n    }\n\n    function _isPriceFresh() internal view returns (bool) {\n        return currentPrice.lastUpdateTS >= block.timestamp - priceLife;\n    }\n\n    function _isPriceOk() internal view returns (bool) {\n        return _isPriceFresh() && !paused();\n    }\n}\n",
    "sourcePath": "/Users/vitaliikoval/dev/fathom-stablecoin-smart-contracts/contracts/main/price-feeders/DelayFathomOraclePriceFeed.sol",
    "compiler": {
        "name": "solc",
        "version": "0.8.17+commit.8df45f5f.Emscripten.clang"
    },
    "schemaVersion": "3.4.10",
    "updatedAt": "2023-01-02T07:05:53.577Z",
    "devdoc": {
        "kind": "dev",
        "methods": {
            "paused()": {
                "details": "Returns true if the contract is paused, and false otherwise."
            }
        },
        "version": 1
    },
    "userdoc": {
        "kind": "user",
        "methods": {},
        "version": 1
    }
}