{
    "contractName": "FathomToken",
    "abi": [
        {
            "inputs": [
                {
                    "internalType": "uint256",
                    "name": "_startReleaseBlock",
                    "type": "uint256"
                },
                {
                    "internalType": "uint256",
                    "name": "_endReleaseBlock",
                    "type": "uint256"
                }
            ],
            "stateMutability": "nonpayable",
            "type": "constructor"
        },
        {
            "anonymous": false,
            "inputs": [
                {
                    "indexed": true,
                    "internalType": "address",
                    "name": "owner",
                    "type": "address"
                },
                {
                    "indexed": true,
                    "internalType": "address",
                    "name": "spender",
                    "type": "address"
                },
                {
                    "indexed": false,
                    "internalType": "uint256",
                    "name": "value",
                    "type": "uint256"
                }
            ],
            "name": "Approval",
            "type": "event"
        },
        {
            "anonymous": false,
            "inputs": [
                {
                    "indexed": true,
                    "internalType": "address",
                    "name": "delegator",
                    "type": "address"
                },
                {
                    "indexed": true,
                    "internalType": "address",
                    "name": "fromDelegate",
                    "type": "address"
                },
                {
                    "indexed": true,
                    "internalType": "address",
                    "name": "toDelegate",
                    "type": "address"
                }
            ],
            "name": "DelegateChanged",
            "type": "event"
        },
        {
            "anonymous": false,
            "inputs": [
                {
                    "indexed": true,
                    "internalType": "address",
                    "name": "delegate",
                    "type": "address"
                },
                {
                    "indexed": false,
                    "internalType": "uint256",
                    "name": "previousBalance",
                    "type": "uint256"
                },
                {
                    "indexed": false,
                    "internalType": "uint256",
                    "name": "newBalance",
                    "type": "uint256"
                }
            ],
            "name": "DelegateVotesChanged",
            "type": "event"
        },
        {
            "anonymous": false,
            "inputs": [
                {
                    "indexed": true,
                    "internalType": "address",
                    "name": "to",
                    "type": "address"
                },
                {
                    "indexed": false,
                    "internalType": "uint256",
                    "name": "value",
                    "type": "uint256"
                }
            ],
            "name": "Lock",
            "type": "event"
        },
        {
            "anonymous": false,
            "inputs": [
                {
                    "indexed": true,
                    "internalType": "address",
                    "name": "previousOwner",
                    "type": "address"
                },
                {
                    "indexed": true,
                    "internalType": "address",
                    "name": "newOwner",
                    "type": "address"
                }
            ],
            "name": "OwnershipTransferred",
            "type": "event"
        },
        {
            "anonymous": false,
            "inputs": [
                {
                    "indexed": true,
                    "internalType": "address",
                    "name": "from",
                    "type": "address"
                },
                {
                    "indexed": true,
                    "internalType": "address",
                    "name": "to",
                    "type": "address"
                },
                {
                    "indexed": false,
                    "internalType": "uint256",
                    "name": "value",
                    "type": "uint256"
                }
            ],
            "name": "Transfer",
            "type": "event"
        },
        {
            "inputs": [],
            "name": "DELEGATION_TYPEHASH",
            "outputs": [
                {
                    "internalType": "bytes32",
                    "name": "",
                    "type": "bytes32"
                }
            ],
            "stateMutability": "view",
            "type": "function"
        },
        {
            "inputs": [],
            "name": "DOMAIN_TYPEHASH",
            "outputs": [
                {
                    "internalType": "bytes32",
                    "name": "",
                    "type": "bytes32"
                }
            ],
            "stateMutability": "view",
            "type": "function"
        },
        {
            "inputs": [],
            "name": "MANUAL_MINT_LIMIT",
            "outputs": [
                {
                    "internalType": "uint256",
                    "name": "",
                    "type": "uint256"
                }
            ],
            "stateMutability": "view",
            "type": "function"
        },
        {
            "inputs": [
                {
                    "internalType": "address",
                    "name": "owner",
                    "type": "address"
                },
                {
                    "internalType": "address",
                    "name": "spender",
                    "type": "address"
                }
            ],
            "name": "allowance",
            "outputs": [
                {
                    "internalType": "uint256",
                    "name": "",
                    "type": "uint256"
                }
            ],
            "stateMutability": "view",
            "type": "function"
        },
        {
            "inputs": [
                {
                    "internalType": "address",
                    "name": "spender",
                    "type": "address"
                },
                {
                    "internalType": "uint256",
                    "name": "amount",
                    "type": "uint256"
                }
            ],
            "name": "approve",
            "outputs": [
                {
                    "internalType": "bool",
                    "name": "",
                    "type": "bool"
                }
            ],
            "stateMutability": "nonpayable",
            "type": "function"
        },
        {
            "inputs": [
                {
                    "internalType": "address",
                    "name": "account",
                    "type": "address"
                }
            ],
            "name": "balanceOf",
            "outputs": [
                {
                    "internalType": "uint256",
                    "name": "",
                    "type": "uint256"
                }
            ],
            "stateMutability": "view",
            "type": "function"
        },
        {
            "inputs": [
                {
                    "internalType": "address",
                    "name": "",
                    "type": "address"
                },
                {
                    "internalType": "uint32",
                    "name": "",
                    "type": "uint32"
                }
            ],
            "name": "checkpoints",
            "outputs": [
                {
                    "internalType": "uint32",
                    "name": "fromBlock",
                    "type": "uint32"
                },
                {
                    "internalType": "uint256",
                    "name": "votes",
                    "type": "uint256"
                }
            ],
            "stateMutability": "view",
            "type": "function"
        },
        {
            "inputs": [],
            "name": "debugFlag",
            "outputs": [
                {
                    "internalType": "uint256",
                    "name": "",
                    "type": "uint256"
                }
            ],
            "stateMutability": "view",
            "type": "function"
        },
        {
            "inputs": [],
            "name": "decimals",
            "outputs": [
                {
                    "internalType": "uint8",
                    "name": "",
                    "type": "uint8"
                }
            ],
            "stateMutability": "view",
            "type": "function"
        },
        {
            "inputs": [
                {
                    "internalType": "address",
                    "name": "spender",
                    "type": "address"
                },
                {
                    "internalType": "uint256",
                    "name": "subtractedValue",
                    "type": "uint256"
                }
            ],
            "name": "decreaseAllowance",
            "outputs": [
                {
                    "internalType": "bool",
                    "name": "",
                    "type": "bool"
                }
            ],
            "stateMutability": "nonpayable",
            "type": "function"
        },
        {
            "inputs": [],
            "name": "endReleaseBlock",
            "outputs": [
                {
                    "internalType": "uint256",
                    "name": "",
                    "type": "uint256"
                }
            ],
            "stateMutability": "view",
            "type": "function"
        },
        {
            "inputs": [
                {
                    "internalType": "address",
                    "name": "spender",
                    "type": "address"
                },
                {
                    "internalType": "uint256",
                    "name": "addedValue",
                    "type": "uint256"
                }
            ],
            "name": "increaseAllowance",
            "outputs": [
                {
                    "internalType": "bool",
                    "name": "",
                    "type": "bool"
                }
            ],
            "stateMutability": "nonpayable",
            "type": "function"
        },
        {
            "inputs": [],
            "name": "manualMinted",
            "outputs": [
                {
                    "internalType": "uint256",
                    "name": "",
                    "type": "uint256"
                }
            ],
            "stateMutability": "view",
            "type": "function"
        },
        {
            "inputs": [],
            "name": "name",
            "outputs": [
                {
                    "internalType": "string",
                    "name": "",
                    "type": "string"
                }
            ],
            "stateMutability": "view",
            "type": "function"
        },
        {
            "inputs": [
                {
                    "internalType": "address",
                    "name": "",
                    "type": "address"
                }
            ],
            "name": "nonces",
            "outputs": [
                {
                    "internalType": "uint256",
                    "name": "",
                    "type": "uint256"
                }
            ],
            "stateMutability": "view",
            "type": "function"
        },
        {
            "inputs": [
                {
                    "internalType": "address",
                    "name": "",
                    "type": "address"
                }
            ],
            "name": "numCheckpoints",
            "outputs": [
                {
                    "internalType": "uint32",
                    "name": "",
                    "type": "uint32"
                }
            ],
            "stateMutability": "view",
            "type": "function"
        },
        {
            "inputs": [],
            "name": "owner",
            "outputs": [
                {
                    "internalType": "address",
                    "name": "",
                    "type": "address"
                }
            ],
            "stateMutability": "view",
            "type": "function"
        },
        {
            "inputs": [],
            "name": "renounceOwnership",
            "outputs": [],
            "stateMutability": "nonpayable",
            "type": "function"
        },
        {
            "inputs": [],
            "name": "startReleaseBlock",
            "outputs": [
                {
                    "internalType": "uint256",
                    "name": "",
                    "type": "uint256"
                }
            ],
            "stateMutability": "view",
            "type": "function"
        },
        {
            "inputs": [],
            "name": "symbol",
            "outputs": [
                {
                    "internalType": "string",
                    "name": "",
                    "type": "string"
                }
            ],
            "stateMutability": "view",
            "type": "function"
        },
        {
            "inputs": [],
            "name": "totalSupply",
            "outputs": [
                {
                    "internalType": "uint256",
                    "name": "",
                    "type": "uint256"
                }
            ],
            "stateMutability": "view",
            "type": "function"
        },
        {
            "inputs": [
                {
                    "internalType": "address",
                    "name": "newOwner",
                    "type": "address"
                }
            ],
            "name": "transferOwnership",
            "outputs": [],
            "stateMutability": "nonpayable",
            "type": "function"
        },
        {
            "inputs": [],
            "name": "cap",
            "outputs": [
                {
                    "internalType": "uint256",
                    "name": "",
                    "type": "uint256"
                }
            ],
            "stateMutability": "pure",
            "type": "function"
        },
        {
            "inputs": [],
            "name": "unlockedSupply",
            "outputs": [
                {
                    "internalType": "uint256",
                    "name": "",
                    "type": "uint256"
                }
            ],
            "stateMutability": "view",
            "type": "function"
        },
        {
            "inputs": [],
            "name": "totalLock",
            "outputs": [
                {
                    "internalType": "uint256",
                    "name": "",
                    "type": "uint256"
                }
            ],
            "stateMutability": "view",
            "type": "function"
        },
        {
            "inputs": [
                {
                    "internalType": "address",
                    "name": "_to",
                    "type": "address"
                },
                {
                    "internalType": "uint256",
                    "name": "_amount",
                    "type": "uint256"
                }
            ],
            "name": "manualMint",
            "outputs": [],
            "stateMutability": "nonpayable",
            "type": "function"
        },
        {
            "inputs": [
                {
                    "internalType": "address",
                    "name": "_to",
                    "type": "address"
                },
                {
                    "internalType": "uint256",
                    "name": "_amount",
                    "type": "uint256"
                }
            ],
            "name": "mint",
            "outputs": [],
            "stateMutability": "nonpayable",
            "type": "function"
        },
        {
            "inputs": [
                {
                    "internalType": "address",
                    "name": "_account",
                    "type": "address"
                },
                {
                    "internalType": "uint256",
                    "name": "_amount",
                    "type": "uint256"
                }
            ],
            "name": "burn",
            "outputs": [],
            "stateMutability": "nonpayable",
            "type": "function"
        },
        {
            "inputs": [
                {
                    "internalType": "address",
                    "name": "recipient",
                    "type": "address"
                },
                {
                    "internalType": "uint256",
                    "name": "amount",
                    "type": "uint256"
                }
            ],
            "name": "transfer",
            "outputs": [
                {
                    "internalType": "bool",
                    "name": "",
                    "type": "bool"
                }
            ],
            "stateMutability": "nonpayable",
            "type": "function"
        },
        {
            "inputs": [
                {
                    "internalType": "address",
                    "name": "sender",
                    "type": "address"
                },
                {
                    "internalType": "address",
                    "name": "recipient",
                    "type": "address"
                },
                {
                    "internalType": "uint256",
                    "name": "amount",
                    "type": "uint256"
                }
            ],
            "name": "transferFrom",
            "outputs": [
                {
                    "internalType": "bool",
                    "name": "",
                    "type": "bool"
                }
            ],
            "stateMutability": "nonpayable",
            "type": "function"
        },
        {
            "inputs": [
                {
                    "internalType": "address",
                    "name": "_account",
                    "type": "address"
                }
            ],
            "name": "totalBalanceOf",
            "outputs": [
                {
                    "internalType": "uint256",
                    "name": "",
                    "type": "uint256"
                }
            ],
            "stateMutability": "view",
            "type": "function"
        },
        {
            "inputs": [
                {
                    "internalType": "address",
                    "name": "_account",
                    "type": "address"
                }
            ],
            "name": "lockOf",
            "outputs": [
                {
                    "internalType": "uint256",
                    "name": "",
                    "type": "uint256"
                }
            ],
            "stateMutability": "view",
            "type": "function"
        },
        {
            "inputs": [
                {
                    "internalType": "address",
                    "name": "_account",
                    "type": "address"
                }
            ],
            "name": "lastUnlockBlock",
            "outputs": [
                {
                    "internalType": "uint256",
                    "name": "",
                    "type": "uint256"
                }
            ],
            "stateMutability": "view",
            "type": "function"
        },
        {
            "inputs": [
                {
                    "internalType": "address",
                    "name": "_account",
                    "type": "address"
                },
                {
                    "internalType": "uint256",
                    "name": "_amount",
                    "type": "uint256"
                }
            ],
            "name": "lock",
            "outputs": [],
            "stateMutability": "nonpayable",
            "type": "function"
        },
        {
            "inputs": [
                {
                    "internalType": "address",
                    "name": "_account",
                    "type": "address"
                }
            ],
            "name": "canUnlockAmount",
            "outputs": [
                {
                    "internalType": "uint256",
                    "name": "",
                    "type": "uint256"
                }
            ],
            "stateMutability": "view",
            "type": "function"
        },
        {
            "inputs": [],
            "name": "unlock",
            "outputs": [],
            "stateMutability": "nonpayable",
            "type": "function"
        },
        {
            "inputs": [
                {
                    "internalType": "address",
                    "name": "_to",
                    "type": "address"
                }
            ],
            "name": "transferAll",
            "outputs": [],
            "stateMutability": "nonpayable",
            "type": "function"
        },
        {
            "inputs": [
                {
                    "internalType": "address",
                    "name": "delegator",
                    "type": "address"
                }
            ],
            "name": "delegates",
            "outputs": [
                {
                    "internalType": "address",
                    "name": "",
                    "type": "address"
                }
            ],
            "stateMutability": "view",
            "type": "function"
        },
        {
            "inputs": [
                {
                    "internalType": "address",
                    "name": "delegatee",
                    "type": "address"
                }
            ],
            "name": "delegate",
            "outputs": [],
            "stateMutability": "nonpayable",
            "type": "function"
        },
        {
            "inputs": [
                {
                    "internalType": "address",
                    "name": "delegatee",
                    "type": "address"
                },
                {
                    "internalType": "uint256",
                    "name": "nonce",
                    "type": "uint256"
                },
                {
                    "internalType": "uint256",
                    "name": "expiry",
                    "type": "uint256"
                },
                {
                    "internalType": "uint8",
                    "name": "v",
                    "type": "uint8"
                },
                {
                    "internalType": "bytes32",
                    "name": "r",
                    "type": "bytes32"
                },
                {
                    "internalType": "bytes32",
                    "name": "s",
                    "type": "bytes32"
                }
            ],
            "name": "delegateBySig",
            "outputs": [],
            "stateMutability": "nonpayable",
            "type": "function"
        },
        {
            "inputs": [
                {
                    "internalType": "address",
                    "name": "account",
                    "type": "address"
                }
            ],
            "name": "getCurrentVotes",
            "outputs": [
                {
                    "internalType": "uint256",
                    "name": "",
                    "type": "uint256"
                }
            ],
            "stateMutability": "view",
            "type": "function"
        },
        {
            "inputs": [
                {
                    "internalType": "address",
                    "name": "account",
                    "type": "address"
                },
                {
                    "internalType": "uint256",
                    "name": "blockNumber",
                    "type": "uint256"
                }
            ],
            "name": "getPriorVotes",
            "outputs": [
                {
                    "internalType": "uint256",
                    "name": "",
                    "type": "uint256"
                }
            ],
            "stateMutability": "view",
            "type": "function"
        }
    ],
    "bytecode": "0x60806040526000600a553480156200001657600080fd5b5060405162002c1138038062002c11833981016040819052620000399162000780565b6040518060400160405280600b81526020016a2330ba3437b6aa37b5b2b760a91b815250604051806040016040528060048152602001634654484d60e01b81525081600390816200008b919062000841565b5060046200009a828262000841565b505050620000b7620000b16200014360201b60201c565b62000147565b818111620001185760405162461bcd60e51b815260206004820152602360248201527f656e6452656c65617365426c6f636b203c20737461727452656c65617365426c6044820152626f636b60e81b60648201526084015b60405180910390fd5b600882905560098190556200013b336c3f1bdf10116048a5934000000062000199565b5050620009e6565b3390565b600580546001600160a01b038381166001600160a01b0319831681179093556040519116919082907f8be0079c531659141344cd1fd0a4f28419497f9722a3daafe3b4186f6b6457e090600090a35050565b620001a362000238565b70373f8c4ba27af8499f017127000000000081600a54620001c5919062000923565b1115620002155760405162461bcd60e51b815260206004820152601360248201527f6d696e74206c696d69742065786365656465640000000000000000000000000060448201526064016200010f565b80600a5462000225919062000923565b600a5562000234828262000296565b5050565b6005546001600160a01b03163314620002945760405162461bcd60e51b815260206004820181905260248201527f4f776e61626c653a2063616c6c6572206973206e6f7420746865206f776e657260448201526064016200010f565b565b620002a062000238565b70373f8c4ba27af8499f017127000000000081620002bd60025490565b620002c9919062000923565b1115620003085760405162461bcd60e51b815260206004820152600c60248201526b18d85c08195e18d95959195960a21b60448201526064016200010f565b6200031482826200033b565b6001600160a01b038083166000908152600d60205260408120546200023492168362000420565b6001600160a01b038216620003935760405162461bcd60e51b815260206004820152601f60248201527f45524332303a206d696e7420746f20746865207a65726f20616464726573730060448201526064016200010f565b8060026000828254620003a7919062000923565b90915550506001600160a01b03821660009081526020819052604081208054839290620003d690849062000923565b90915550506040518181526001600160a01b038316906000907fddf252ad1be2c89b69c2b068fc378daa952ba7f163c4a11628f55a4df523b3ef9060200160405180910390a35050565b816001600160a01b0316836001600160a01b031614158015620004435750600081115b1562000597576001600160a01b03831615620004f0576001600160a01b0383166000908152600f602052604081205463ffffffff16908162000487576000620004cc565b6001600160a01b0385166000908152600e6020526040812090620004ad60018562000939565b63ffffffff1663ffffffff168152602001908152602001600020600101545b90506000620004dc848362000960565b9050620004ec868484846200059c565b5050505b6001600160a01b0382161562000597576001600160a01b0382166000908152600f602052604081205463ffffffff1690816200052e57600062000573565b6001600160a01b0384166000908152600e60205260408120906200055460018562000939565b63ffffffff1663ffffffff168152602001908152602001600020600101545b9050600062000583848362000923565b905062000593858484846200059c565b5050505b505050565b6000620005c34360405180606001604052806036815260200162002bdb603691396200074a565b905060008463ffffffff161180156200062057506001600160a01b0385166000908152600e6020526040812063ffffffff8316916200060460018862000939565b63ffffffff908116825260208201929092526040016000205416145b156200066d576001600160a01b0385166000908152600e6020526040812083916200064d60018862000939565b63ffffffff168152602081019190915260400160002060010155620006ff565b60408051808201825263ffffffff838116825260208083018681526001600160a01b038a166000908152600e83528581208a851682529092529390209151825463ffffffff191691161781559051600191820155620006ce90859062000976565b6001600160a01b0386166000908152600f60205260409020805463ffffffff191663ffffffff929092169190911790555b60408051848152602081018490526001600160a01b038716917fdec2bacdd2f05b59de34da9b523dff8be42e5e38e818c82fdb0bae774387a724910160405180910390a25050505050565b6000816401000000008410620007755760405162461bcd60e51b81526004016200010f919062000996565b508290505b92915050565b600080604083850312156200079457600080fd5b505080516020909101519092909150565b634e487b7160e01b600052604160045260246000fd5b600181811c90821680620007d057607f821691505b602082108103620007f157634e487b7160e01b600052602260045260246000fd5b50919050565b601f8211156200059757600081815260208120601f850160051c81016020861015620008205750805b601f850160051c820191505b8181101562000593578281556001016200082c565b81516001600160401b038111156200085d576200085d620007a5565b62000875816200086e8454620007bb565b84620007f7565b602080601f831160018114620008ad5760008415620008945750858301515b600019600386901b1c1916600185901b17855562000593565b600085815260208120601f198616915b82811015620008de57888601518255948401946001909101908401620008bd565b5085821015620008fd5787850151600019600388901b60f8161c191681555b5050505050600190811b01905550565b634e487b7160e01b600052601160045260246000fd5b808201808211156200077a576200077a6200090d565b63ffffffff8281168282160390808211156200095957620009596200090d565b5092915050565b818103818111156200077a576200077a6200090d565b63ffffffff8181168382160190808211156200095957620009596200090d565b600060208083528351808285015260005b81811015620009c557858101830151858201604001528201620009a7565b506000604082860101526040601f19601f8301168501019250505092915050565b6121e580620009f66000396000f3fe608060405234801561001057600080fd5b506004361061025e5760003560e01c80637ecebe0011610146578063ae6bcd5b116100c3578063e4c5ff4611610087578063e4c5ff461461059c578063e6b2fb4a146105af578063e7a324dc146105b8578063f1127ed8146105df578063f2fde38b14610636578063fd3d27b81461064957600080fd5b8063ae6bcd5b14610551578063b4b5ea571461055a578063c3cda5201461056d578063ce4079ef14610580578063dd62ed3e1461058957600080fd5b80639dc29fac1161010a5780639dc29fac146104fd578063a3a7e7f314610510578063a457c2d714610523578063a69df4b514610536578063a9059cbb1461053e57600080fd5b80637ecebe00146104925780637ee41615146104b257806389a2867c146104bb5780638da5cb5b146104e457806395d89b41146104f557600080fd5b80633a1aae35116101df5780635c19a95c116101a35780635c19a95c146103ea57806368fe6e1d146103fd5780636fcfff451461041357806370a082311461044e578063715018a614610477578063782d6fe11461047f57600080fd5b80633a1aae351461034f57806340c10f19146103575780634b0ee02a1461036a578063587cde1e1461037d5780635a46d3b5146103c157600080fd5b806323b872dd1161022657806323b872dd146102f0578063282d3fdf14610303578063313ce56714610318578063355274ea14610327578063395093511461033c57600080fd5b806306fdde0314610263578063095ea7b31461028157806318160ddd146102a4578063202b1760146102b657806320606b70146102c9575b600080fd5b61026b610651565b6040516102789190611e8c565b60405180910390f35b61029461028f366004611ef1565b6106e3565b6040519015158152602001610278565b6002545b604051908152602001610278565b6102a86102c4366004611f1b565b6106fd565b6102a87f8cad95687ba82c2ce50e74f7b754645e5117c3a5bec8151c0726d5857980a86681565b6102946102fe366004611f36565b6107c4565b610316610311366004611ef1565b6108a5565b005b60405160128152602001610278565b6b373f8c4ba27af8499f01712760281b6102a8565b61029461034a366004611ef1565b610a39565b6006546102a8565b610316610365366004611ef1565b610a5b565b6102a8610378366004611f1b565b610af7565b6103a961038b366004611f1b565b6001600160a01b039081166000908152600d60205260409020541690565b6040516001600160a01b039091168152602001610278565b6102a86103cf366004611f1b565b6001600160a01b03166000908152600b602052604090205490565b6103166103f8366004611f1b565b610b23565b6102a86b373f8c4ba27af8499f01712760281b81565b610439610421366004611f1b565b600f6020526000908152604090205463ffffffff1681565b60405163ffffffff9091168152602001610278565b6102a861045c366004611f1b565b6001600160a01b031660009081526020819052604090205490565b610316610b30565b6102a861048d366004611ef1565b610b44565b6102a86104a0366004611f1b565b60106020526000908152604090205481565b6102a860085481565b6102a86104c9366004611f1b565b6001600160a01b03166000908152600c602052604090205490565b6005546001600160a01b03166103a9565b61026b610dae565b61031661050b366004611ef1565b610dbd565b61031661051e366004611f1b565b610dcf565b610294610531366004611ef1565b610f0e565b610316610f89565b61029461054c366004611ef1565b61103e565b6102a860075481565b6102a8610568366004611f1b565b611085565b61031661057b366004611f72565b6110fa565b6102a860095481565b6102a8610597366004611fd2565b6113cd565b6103166105aa366004611ef1565b6113f8565b6102a8600a5481565b6102a87fe48329057bfd03d55e49b547132e39cffd9c1820ad7b9d4c5307691425d15adf81565b61061a6105ed366004612005565b600e6020908152600092835260408084209091529082529020805460019091015463ffffffff9091169082565b6040805163ffffffff9093168352602083019190915201610278565b610316610644366004611f1b565b61147d565b6102a86114f3565b60606003805461066090612045565b80601f016020809104026020016040519081016040528092919081815260200182805461068c90612045565b80156106d95780601f106106ae576101008083540402835291602001916106d9565b820191906000526020600020905b8154815290600101906020018083116106bc57829003601f168201915b5050505050905090565b6000336106f1818585611510565b60019150505b92915050565b600060085443101561071157506000919050565b600954431061073657506001600160a01b03166000908152600b602052604090205490565b6001600160a01b0382166000908152600c60205260408120546107599043612095565b6001600160a01b0384166000908152600c602052604081205460095492935090916107849190612095565b6001600160a01b0385166000908152600b602052604090205490915081906107ad9084906120a8565b6107b791906120d5565b949350505050565b919050565b60006107d1848484611634565b6000826107de86336113cd565b106107ff57826107ee86336113cd565b6107f89190612095565b905061085d565b60405162461bcd60e51b815260206004820152602860248201527f45524332303a207472616e7366657220616d6f756e74206578636565647320616044820152676c6c6f77616e636560c01b60648201526084015b60405180910390fd5b610868853383611510565b6001600160a01b038086166000908152600d602052604080822054878416835291205461089a92918216911685611804565b506001949350505050565b6108ad611968565b6001600160a01b0382166108fb5760405162461bcd60e51b81526020600482015260156024820152746e6f206c6f636b20746f206164647265737328302960581b6044820152606401610854565b6001600160a01b03821660009081526020819052604090205481111561095a5760405162461bcd60e51b81526020600482015260146024820152736e6f206c6f636b206f7665722062616c616e636560601b6044820152606401610854565b610965823083611634565b6001600160a01b0382166000908152600b60205260409020546109899082906120e9565b6001600160a01b0383166000908152600b60205260409020556006546109b09082906120e9565b6006556008546001600160a01b0383166000908152600c602052604090205410156109f2576008546001600160a01b0383166000908152600c60205260409020555b816001600160a01b03167f625fed9875dada8643f2418b838ae0bc78d9a148a18eee4ee1979ff0f3f5d42782604051610a2d91815260200190565b60405180910390a25050565b6000336106f1818585610a4c83836113cd565b610a5691906120e9565b611510565b610a63611968565b6b373f8c4ba27af8499f01712760281b81610a7d60025490565b610a8791906120e9565b1115610ac45760405162461bcd60e51b815260206004820152600c60248201526b18d85c08195e18d95959195960a21b6044820152606401610854565b610ace82826119c2565b6001600160a01b038083166000908152600d6020526040812054610af3921683611804565b5050565b6001600160a01b03811660009081526020818152604080832054600b9092528220546106f791906120e9565b610b2d3382611aa1565b50565b610b38611968565b610b426000611b1a565b565b6000438210610ba75760405162461bcd60e51b815260206004820152602960248201527f464154484f4d3a3a6765745072696f72566f7465733a206e6f74207965742064604482015268195d195c9b5a5b995960ba1b6064820152608401610854565b6001600160a01b0383166000908152600f602052604081205463ffffffff1690819003610bd85760009150506106f7565b6001600160a01b0384166000908152600e602052604081208491610bfd6001856120fc565b63ffffffff90811682526020820192909252604001600020541611610c66576001600160a01b0384166000908152600e6020526040812090610c406001846120fc565b63ffffffff1663ffffffff168152602001908152602001600020600101549150506106f7565b6001600160a01b0384166000908152600e6020908152604080832083805290915290205463ffffffff16831015610ca15760009150506106f7565b600080610caf6001846120fc565b90505b8163ffffffff168163ffffffff161115610d775760006002610cd484846120fc565b610cde9190612120565b610ce890836120fc565b6001600160a01b0388166000908152600e6020908152604080832063ffffffff8086168552908352928190208151808301909252805490931680825260019093015491810191909152919250879003610d4b576020015194506106f79350505050565b805163ffffffff16871115610d6257819350610d70565b610d6d6001836120fc565b92505b5050610cb2565b506001600160a01b0385166000908152600e6020908152604080832063ffffffff9094168352929052206001015491505092915050565b60606004805461066090612045565b610dc5611968565b610af38282611b6c565b6001600160a01b0381163303610e1d5760405162461bcd60e51b81526020600482015260136024820152721b9bc81cd95b198b5d1c985b9cd9995c905b1b606a1b6044820152606401610854565b336000908152600b6020526040808220546001600160a01b0384168352912054610e4791906120e9565b6001600160a01b0382166000908152600b6020908152604080832093909355600854600c909152919020541015610e95576008546001600160a01b0382166000908152600c60205260409020555b336000908152600c6020526040808220546001600160a01b03841683529120541015610edc57336000908152600c6020526040808220546001600160a01b03841683529120555b336000818152600b60209081526040808320839055600c825280832083905590829052902054610b2d91908390611634565b60003381610f1c82866113cd565b905083811015610f7c5760405162461bcd60e51b815260206004820152602560248201527f45524332303a2064656372656173656420616c6c6f77616e63652062656c6f77604482015264207a65726f60d81b6064820152608401610854565b61089a8286868403611510565b336000908152600b6020526040902054610fd95760405162461bcd60e51b81526020600482015260116024820152706e6f206c6f636b656420464154484f4d7360781b6044820152606401610854565b6000610fe4336106fd565b9050610ff1303383611634565b336000908152600b602052604090205461100c908290612095565b336000908152600b6020908152604080832093909355600c905220439055600654611038908290612095565b60065550565b600061104b338484611634565b336000908152600d6020526040808220546001600160a01b038681168452919092205461107c928216911684611804565b50600192915050565b6001600160a01b0381166000908152600f602052604081205463ffffffff16806110b05760006110f3565b6001600160a01b0383166000908152600e60205260408120906110d46001846120fc565b63ffffffff1663ffffffff168152602001908152602001600020600101545b9392505050565b60007f8cad95687ba82c2ce50e74f7b754645e5117c3a5bec8151c0726d5857980a866611125610651565b805190602001206111334690565b60408051602080820195909552808201939093526060830191909152306080808401919091528151808403909101815260a0830182528051908401207fe48329057bfd03d55e49b547132e39cffd9c1820ad7b9d4c5307691425d15adf60c08401526001600160a01b038b1660e084015261010083018a90526101208084018a90528251808503909101815261014084019092528151919093012061190160f01b610160830152610162820183905261018282018190529192506000906101a20160408051601f198184030181528282528051602091820120600080855291840180845281905260ff8a169284019290925260608301889052608083018790529092509060019060a0016020604051602081039080840390855afa15801561125f573d6000803e3d6000fd5b5050604051601f1901519150506001600160a01b0381166112d35760405162461bcd60e51b815260206004820152602860248201527f464154484f4d3a3a64656c656761746542795369673a20696e76616c6964207360448201526769676e617475726560c01b6064820152608401610854565b6001600160a01b03811660009081526010602052604081208054916112f783612143565b9190505589146113555760405162461bcd60e51b8152602060048201526024808201527f464154484f4d3a3a64656c656761746542795369673a20696e76616c6964206e6044820152636f6e636560e01b6064820152608401610854565b874211156113b65760405162461bcd60e51b815260206004820152602860248201527f464154484f4d3a3a64656c656761746542795369673a207369676e617475726560448201526708195e1c1a5c995960c21b6064820152608401610854565b6113c0818b611aa1565b505050505b505050505050565b6001600160a01b03918216600090815260016020908152604080832093909416825291909152205490565b611400611968565b6b373f8c4ba27af8499f01712760281b81600a5461141e91906120e9565b11156114625760405162461bcd60e51b81526020600482015260136024820152721b5a5b9d081b1a5b5a5d08195e18d959591959606a1b6044820152606401610854565b80600a5461147091906120e9565b600a55610af38282610a5b565b611485611968565b6001600160a01b0381166114ea5760405162461bcd60e51b815260206004820152602660248201527f4f776e61626c653a206e6577206f776e657220697320746865207a65726f206160448201526564647265737360d01b6064820152608401610854565b610b2d81611b1a565b60006114fe60065490565b60025461150b9190612095565b905090565b6001600160a01b0383166115725760405162461bcd60e51b8152602060048201526024808201527f45524332303a20617070726f76652066726f6d20746865207a65726f206164646044820152637265737360e01b6064820152608401610854565b6001600160a01b0382166115d35760405162461bcd60e51b815260206004820152602260248201527f45524332303a20617070726f766520746f20746865207a65726f206164647265604482015261737360f01b6064820152608401610854565b6001600160a01b0383811660008181526001602090815260408083209487168084529482529182902085905590518481527f8c5be1e5ebec7d5bd14f71427d1e84f3dd0314c0f7b2291e5b200ac8c7c3b925910160405180910390a3505050565b6001600160a01b0383166116985760405162461bcd60e51b815260206004820152602560248201527f45524332303a207472616e736665722066726f6d20746865207a65726f206164604482015264647265737360d81b6064820152608401610854565b6001600160a01b0382166116fa5760405162461bcd60e51b815260206004820152602360248201527f45524332303a207472616e7366657220746f20746865207a65726f206164647260448201526265737360e81b6064820152608401610854565b6001600160a01b038316600090815260208190526040902054818110156117725760405162461bcd60e51b815260206004820152602660248201527f45524332303a207472616e7366657220616d6f756e7420657863656564732062604482015265616c616e636560d01b6064820152608401610854565b6001600160a01b038085166000908152602081905260408082208585039055918516815290812080548492906117a99084906120e9565b92505081905550826001600160a01b0316846001600160a01b03167fddf252ad1be2c89b69c2b068fc378daa952ba7f163c4a11628f55a4df523b3ef846040516117f591815260200190565b60405180910390a35b50505050565b816001600160a01b0316836001600160a01b0316141580156118265750600081115b15611963576001600160a01b038316156118c9576001600160a01b0383166000908152600f602052604081205463ffffffff1690816118665760006118a9565b6001600160a01b0385166000908152600e602052604081209061188a6001856120fc565b63ffffffff1663ffffffff168152602001908152602001600020600101545b905060006118b78483612095565b90506118c586848484611cba565b5050505b6001600160a01b03821615611963576001600160a01b0382166000908152600f602052604081205463ffffffff169081611904576000611947565b6001600160a01b0384166000908152600e60205260408120906119286001856120fc565b63ffffffff1663ffffffff168152602001908152602001600020600101545b9050600061195584836120e9565b90506113c585848484611cba565b505050565b6005546001600160a01b03163314610b425760405162461bcd60e51b815260206004820181905260248201527f4f776e61626c653a2063616c6c6572206973206e6f7420746865206f776e65726044820152606401610854565b6001600160a01b038216611a185760405162461bcd60e51b815260206004820152601f60248201527f45524332303a206d696e7420746f20746865207a65726f2061646472657373006044820152606401610854565b8060026000828254611a2a91906120e9565b90915550506001600160a01b03821660009081526020819052604081208054839290611a579084906120e9565b90915550506040518181526001600160a01b038316906000907fddf252ad1be2c89b69c2b068fc378daa952ba7f163c4a11628f55a4df523b3ef9060200160405180910390a35050565b6001600160a01b038281166000818152600d60208181526040808420805485845282862054949093528787166001600160a01b03198416811790915590519190951694919391928592917f3134e8a2e6d97e929a7e54011ea5485d7d196dd5f0ba4d4ef95803e8e3fc257f9190a46117fe828483611804565b600580546001600160a01b038381166001600160a01b0319831681179093556040519116919082907f8be0079c531659141344cd1fd0a4f28419497f9722a3daafe3b4186f6b6457e090600090a35050565b6001600160a01b038216611bcc5760405162461bcd60e51b815260206004820152602160248201527f45524332303a206275726e2066726f6d20746865207a65726f206164647265736044820152607360f81b6064820152608401610854565b6001600160a01b03821660009081526020819052604090205481811015611c405760405162461bcd60e51b815260206004820152602260248201527f45524332303a206275726e20616d6f756e7420657863656564732062616c616e604482015261636560f01b6064820152608401610854565b6001600160a01b0383166000908152602081905260408120838303905560028054849290611c6f908490612095565b90915550506040518281526000906001600160a01b038516907fddf252ad1be2c89b69c2b068fc378daa952ba7f163c4a11628f55a4df523b3ef9060200160405180910390a3505050565b6000611cde4360405180606001604052806036815260200161217a60369139611e5c565b905060008463ffffffff16118015611d3857506001600160a01b0385166000908152600e6020526040812063ffffffff831691611d1c6001886120fc565b63ffffffff908116825260208201929092526040016000205416145b15611d81576001600160a01b0385166000908152600e602052604081208391611d626001886120fc565b63ffffffff168152602081019190915260400160002060010155611e11565b60408051808201825263ffffffff838116825260208083018681526001600160a01b038a166000908152600e83528581208a851682529092529390209151825463ffffffff191691161781559051600191820155611de090859061215c565b6001600160a01b0386166000908152600f60205260409020805463ffffffff191663ffffffff929092169190911790555b60408051848152602081018490526001600160a01b038716917fdec2bacdd2f05b59de34da9b523dff8be42e5e38e818c82fdb0bae774387a724910160405180910390a25050505050565b6000816401000000008410611e845760405162461bcd60e51b81526004016108549190611e8c565b509192915050565b600060208083528351808285015260005b81811015611eb957858101830151858201604001528201611e9d565b506000604082860101526040601f19601f8301168501019250505092915050565b80356001600160a01b03811681146107bf57600080fd5b60008060408385031215611f0457600080fd5b611f0d83611eda565b946020939093013593505050565b600060208284031215611f2d57600080fd5b6110f382611eda565b600080600060608486031215611f4b57600080fd5b611f5484611eda565b9250611f6260208501611eda565b9150604084013590509250925092565b60008060008060008060c08789031215611f8b57600080fd5b611f9487611eda565b95506020870135945060408701359350606087013560ff81168114611fb857600080fd5b9598949750929560808101359460a0909101359350915050565b60008060408385031215611fe557600080fd5b611fee83611eda565b9150611ffc60208401611eda565b90509250929050565b6000806040838503121561201857600080fd5b61202183611eda565b9150602083013563ffffffff8116811461203a57600080fd5b809150509250929050565b600181811c9082168061205957607f821691505b60208210810361207957634e487b7160e01b600052602260045260246000fd5b50919050565b634e487b7160e01b600052601160045260246000fd5b818103818111156106f7576106f761207f565b80820281158282048414176106f7576106f761207f565b634e487b7160e01b600052601260045260246000fd5b6000826120e4576120e46120bf565b500490565b808201808211156106f7576106f761207f565b63ffffffff8281168282160390808211156121195761211961207f565b5092915050565b600063ffffffff80841680612137576121376120bf565b92169190910492915050565b6000600182016121555761215561207f565b5060010190565b63ffffffff8181168382160190808211156121195761211961207f56fe464154484f4d3a3a5f7772697465436865636b706f696e743a20626c6f636b206e756d62657220657863656564732033322062697473a26469706673582212209acca5eb72d7a47935ed3f31311f6b9f19d8bee0766e1dd96a521cd50eed74c164736f6c63430008110033464154484f4d3a3a5f7772697465436865636b706f696e743a20626c6f636b206e756d62657220657863656564732033322062697473",
    "immutableReferences": {},
    "source": "// SPDX-License-Identifier: MIT\npragma solidity 0.8.17;\n\nimport \"@openzeppelin/contracts/access/Ownable.sol\";\nimport \"@openzeppelin/contracts/token/ERC20/ERC20.sol\";\nimport \"@openzeppelin/contracts/token/ERC20/IERC20.sol\";\n\ncontract FathomToken is ERC20(\"FathomToken\", \"FTHM\"), Ownable {\n    uint256 private constant CAP = 18800000000000000000000e18;\n    uint256 private _totalLock;\n\n    uint256 public debugFlag;\n\n    uint256 public startReleaseBlock;\n    uint256 public endReleaseBlock;\n    uint256 public constant MANUAL_MINT_LIMIT = 18800000000000000000000e18;\n    uint256 public manualMinted = 0;\n\n    mapping(address => uint256) private _locks;\n    mapping(address => uint256) private _lastUnlockBlock;\n\n    event Lock(address indexed to, uint256 value);\n\n    constructor(uint256 _startReleaseBlock, uint256 _endReleaseBlock) {\n        require(_endReleaseBlock > _startReleaseBlock, \"endReleaseBlock < startReleaseBlock\");\n        startReleaseBlock = _startReleaseBlock;\n        endReleaseBlock = _endReleaseBlock;\n\n        // maunalMint for seeding liquidity\n        manualMint(msg.sender, 5000000000000e18);\n    }\n\n    function cap() public pure returns (uint256) {\n        return CAP;\n    }\n\n    function unlockedSupply() external view returns (uint256) {\n        return totalSupply() - totalLock();\n    }\n\n    function totalLock() public view returns (uint256) {\n        return _totalLock;\n    }\n\n    function manualMint(address _to, uint256 _amount) public onlyOwner {\n        require(manualMinted + _amount <= MANUAL_MINT_LIMIT, \"mint limit exceeded\");\n        manualMinted = manualMinted + _amount;\n        mint(_to, _amount);\n    }\n\n    function mint(address _to, uint256 _amount) public onlyOwner {\n        require(totalSupply() + _amount <= cap(), \"cap exceeded\");\n        _mint(_to, _amount);\n        _moveDelegates(address(0), _delegates[_to], _amount);\n    }\n\n    function burn(address _account, uint256 _amount) external onlyOwner {\n        _burn(_account, _amount);\n    }\n\n    function transfer(address recipient, uint256 amount) public virtual override returns (bool) {\n        _transfer(_msgSender(), recipient, amount);\n        _moveDelegates(_delegates[_msgSender()], _delegates[recipient], amount);\n        return true;\n    }\n\n    function transferFrom(address sender, address recipient, uint256 amount) public virtual override returns (bool) {\n        _transfer(sender, recipient, amount);\n        // uint256 amen = allowance(sender, _msgSender());\n        // require( amen > amount, \"ERC20: transfer amount exceeds allowance\");\n        // amen = (amen - amount);\n        // _approve(\n        //   sender,\n        //   _msgSender(),\n        //   amen\n        // );\n        uint256 allowanceTemp;\n        if (allowance(sender, _msgSender()) >= amount) {\n            allowanceTemp = allowance(sender, _msgSender()) - amount;\n        } else {\n            revert(\"ERC20: transfer amount exceeds allowance\");\n        }\n\n        _approve(sender, _msgSender(), allowanceTemp);\n\n        _moveDelegates(_delegates[sender], _delegates[recipient], amount);\n        return true;\n    }\n\n    function totalBalanceOf(address _account) external view returns (uint256) {\n        return _locks[_account] + balanceOf(_account);\n    }\n\n    function lockOf(address _account) external view returns (uint256) {\n        return _locks[_account];\n    }\n\n    function lastUnlockBlock(address _account) external view returns (uint256) {\n        return _lastUnlockBlock[_account];\n    }\n\n    function lock(address _account, uint256 _amount) external onlyOwner {\n        require(_account != address(0), \"no lock to address(0)\");\n        require(_amount <= balanceOf(_account), \"no lock over balance\");\n\n        _transfer(_account, address(this), _amount);\n\n        _locks[_account] = _locks[_account] + _amount;\n        _totalLock = _totalLock + _amount;\n\n        if (_lastUnlockBlock[_account] < startReleaseBlock) {\n            _lastUnlockBlock[_account] = startReleaseBlock;\n        }\n\n        emit Lock(_account, _amount);\n    }\n\n    function canUnlockAmount(address _account) public view returns (uint256) {\n        // When block number less than startReleaseBlock, no FATHOMs can be unlocked\n        if (block.number < startReleaseBlock) {\n            return 0;\n        }\n        // When block number more than endReleaseBlock, all locked FATHOMs can be unlocked\n        else if (block.number >= endReleaseBlock) {\n            return _locks[_account];\n        }\n        // When block number is more than startReleaseBlock but less than endReleaseBlock,\n        // some FATHOMs can be released\n        else {\n            uint256 releasedBlock = block.number - _lastUnlockBlock[_account];\n            uint256 blockLeft = endReleaseBlock - _lastUnlockBlock[_account];\n            return (_locks[_account] * releasedBlock) / blockLeft;\n        }\n    }\n\n    function unlock() external {\n        require(_locks[msg.sender] > 0, \"no locked FATHOMs\");\n\n        uint256 amount = canUnlockAmount(msg.sender);\n\n        _transfer(address(this), msg.sender, amount);\n        _locks[msg.sender] = _locks[msg.sender] - amount;\n        _lastUnlockBlock[msg.sender] = block.number;\n        _totalLock = _totalLock - amount;\n    }\n\n    // @dev move FATHOMs with its locked funds to another account\n    function transferAll(address _to) external {\n        require(msg.sender != _to, \"no self-transferAll\");\n\n        _locks[_to] = _locks[_to] + _locks[msg.sender];\n\n        if (_lastUnlockBlock[_to] < startReleaseBlock) {\n            _lastUnlockBlock[_to] = startReleaseBlock;\n        }\n\n        if (_lastUnlockBlock[_to] < _lastUnlockBlock[msg.sender]) {\n            _lastUnlockBlock[_to] = _lastUnlockBlock[msg.sender];\n        }\n\n        _locks[msg.sender] = 0;\n        _lastUnlockBlock[msg.sender] = 0;\n\n        _transfer(msg.sender, _to, balanceOf(msg.sender));\n    }\n\n    // Copied and modified from YAM code:\n    // https://github.com/yam-finance/yam-protocol/blob/master/contracts/token/YAMGovernanceStorage.sol\n    // https://github.com/yam-finance/yam-protocol/blob/master/contracts/token/YAMGovernance.sol\n    // Which is copied and modified from COMPOUND:\n    // https://github.com/compound-finance/compound-protocol/blob/master/contracts/Governance/Comp.sol\n\n    /// @notice A record of each accounts delegate\n    mapping(address => address) internal _delegates;\n\n    /// @notice A checkpoint for marking number of votes from a given block\n    struct Checkpoint {\n        uint32 fromBlock;\n        uint256 votes;\n    }\n\n    /// @notice A record of votes checkpoints for each account, by index\n    mapping(address => mapping(uint32 => Checkpoint)) public checkpoints;\n\n    /// @notice The number of checkpoints for each account\n    mapping(address => uint32) public numCheckpoints;\n\n    /// @notice The EIP-712 typehash for the contract's domain\n    bytes32 public constant DOMAIN_TYPEHASH = keccak256(\"EIP712Domain(string name,uint256 chainId,address verifyingContract)\");\n\n    /// @notice The EIP-712 typehash for the delegation struct used by the contract\n    bytes32 public constant DELEGATION_TYPEHASH = keccak256(\"Delegation(address delegatee,uint256 nonce,uint256 expiry)\");\n\n    /// @notice A record of states for signing / validating signatures\n    mapping(address => uint256) public nonces;\n\n    /// @notice An event thats emitted when an account changes its delegate\n    event DelegateChanged(address indexed delegator, address indexed fromDelegate, address indexed toDelegate);\n\n    /// @notice An event thats emitted when a delegate account's vote balance changes\n    event DelegateVotesChanged(address indexed delegate, uint256 previousBalance, uint256 newBalance);\n\n    /**\n     * @notice Delegate votes from `msg.sender` to `delegatee`\n     * @param delegator The address to get delegatee for\n     */\n    function delegates(address delegator) external view returns (address) {\n        return _delegates[delegator];\n    }\n\n    /**\n     * @notice Delegate votes from `msg.sender` to `delegatee`\n     * @param delegatee The address to delegate votes to\n     */\n    function delegate(address delegatee) external {\n        return _delegate(msg.sender, delegatee);\n    }\n\n    /**\n     * @notice Delegates votes from signatory to `delegatee`\n     * @param delegatee The address to delegate votes to\n     * @param nonce The contract state required to match the signature\n     * @param expiry The time at which to expire the signature\n     * @param v The recovery byte of the signature\n     * @param r Half of the ECDSA signature pair\n     * @param s Half of the ECDSA signature pair\n     */\n    function delegateBySig(address delegatee, uint256 nonce, uint256 expiry, uint8 v, bytes32 r, bytes32 s) external {\n        bytes32 domainSeparator = keccak256(abi.encode(DOMAIN_TYPEHASH, keccak256(bytes(name())), getChainId(), address(this)));\n\n        bytes32 structHash = keccak256(abi.encode(DELEGATION_TYPEHASH, delegatee, nonce, expiry));\n\n        bytes32 digest = keccak256(abi.encodePacked(\"\\x19\\x01\", domainSeparator, structHash));\n\n        address signatory = ecrecover(digest, v, r, s);\n        require(signatory != address(0), \"FATHOM::delegateBySig: invalid signature\");\n        require(nonce == nonces[signatory]++, \"FATHOM::delegateBySig: invalid nonce\");\n        require(block.timestamp <= expiry, \"FATHOM::delegateBySig: signature expired\");\n        return _delegate(signatory, delegatee);\n    }\n\n    /**\n     * @notice Gets the current votes balance for `account`\n     * @param account The address to get votes balance\n     * @return The number of current votes for `account`\n     */\n    function getCurrentVotes(address account) external view returns (uint256) {\n        uint32 nCheckpoints = numCheckpoints[account];\n        return nCheckpoints > 0 ? checkpoints[account][nCheckpoints - 1].votes : 0;\n    }\n\n    /**\n     * @notice Determine the prior number of votes for an account as of a block number\n     * @dev Block number must be a finalized block or else this function will revert to prevent misinformation.\n     * @param account The address of the account to check\n     * @param blockNumber The block number to get the vote balance at\n     * @return The number of votes the account had as of the given block\n     */\n    function getPriorVotes(address account, uint256 blockNumber) external view returns (uint256) {\n        require(blockNumber < block.number, \"FATHOM::getPriorVotes: not yet determined\");\n\n        uint32 nCheckpoints = numCheckpoints[account];\n        if (nCheckpoints == 0) {\n            return 0;\n        }\n\n        // First check most recent balance\n        if (checkpoints[account][nCheckpoints - 1].fromBlock <= blockNumber) {\n            return checkpoints[account][nCheckpoints - 1].votes;\n        }\n\n        // Next check implicit zero balance\n        if (checkpoints[account][0].fromBlock > blockNumber) {\n            return 0;\n        }\n\n        uint32 lower = 0;\n        uint32 upper = nCheckpoints - 1;\n        while (upper > lower) {\n            uint32 center = upper - (upper - lower) / 2; // ceil, avoiding overflow\n            Checkpoint memory cp = checkpoints[account][center];\n            if (cp.fromBlock == blockNumber) {\n                return cp.votes;\n            } else if (cp.fromBlock < blockNumber) {\n                lower = center;\n            } else {\n                upper = center - 1;\n            }\n        }\n        return checkpoints[account][lower].votes;\n    }\n\n    function _delegate(address delegator, address delegatee) internal {\n        address currentDelegate = _delegates[delegator];\n        uint256 delegatorBalance = balanceOf(delegator); // balance of underlying FATHOMs (not scaled);\n        _delegates[delegator] = delegatee;\n\n        emit DelegateChanged(delegator, currentDelegate, delegatee);\n\n        _moveDelegates(currentDelegate, delegatee, delegatorBalance);\n    }\n\n    function _moveDelegates(address srcRep, address dstRep, uint256 amount) internal {\n        if (srcRep != dstRep && amount > 0) {\n            if (srcRep != address(0)) {\n                // decrease old representative\n                uint32 srcRepNum = numCheckpoints[srcRep];\n                uint256 srcRepOld = srcRepNum > 0 ? checkpoints[srcRep][srcRepNum - 1].votes : 0;\n                uint256 srcRepNew = srcRepOld - amount;\n                _writeCheckpoint(srcRep, srcRepNum, srcRepOld, srcRepNew);\n            }\n\n            if (dstRep != address(0)) {\n                // increase new representative\n                uint32 dstRepNum = numCheckpoints[dstRep];\n                uint256 dstRepOld = dstRepNum > 0 ? checkpoints[dstRep][dstRepNum - 1].votes : 0;\n                uint256 dstRepNew = dstRepOld + amount;\n                _writeCheckpoint(dstRep, dstRepNum, dstRepOld, dstRepNew);\n            }\n        }\n    }\n\n    function _writeCheckpoint(address delegatee, uint32 nCheckpoints, uint256 oldVotes, uint256 newVotes) internal {\n        uint32 blockNumber = safe32(block.number, \"FATHOM::_writeCheckpoint: block number exceeds 32 bits\");\n\n        if (nCheckpoints > 0 && checkpoints[delegatee][nCheckpoints - 1].fromBlock == blockNumber) {\n            checkpoints[delegatee][nCheckpoints - 1].votes = newVotes;\n        } else {\n            checkpoints[delegatee][nCheckpoints] = Checkpoint(blockNumber, newVotes);\n            numCheckpoints[delegatee] = nCheckpoints + 1;\n        }\n\n        emit DelegateVotesChanged(delegatee, oldVotes, newVotes);\n    }\n\n    function safe32(uint256 n, string memory errorMessage) internal pure returns (uint32) {\n        require(n < 2 ** 32, errorMessage);\n        return uint32(n);\n    }\n\n    function getChainId() internal view returns (uint256) {\n        uint256 chainId;\n        assembly {\n            chainId := chainid()\n        }\n        return chainId;\n    }\n}\n",
    "sourcePath": "/Users/vitaliikoval/dev/fathom-stablecoin-smart-contracts/contracts/tests/FathomToken.sol",
    "compiler": {
        "name": "solc",
        "version": "0.8.17+commit.8df45f5f.Emscripten.clang"
    },
    "schemaVersion": "3.4.10",
    "updatedAt": "2023-01-02T07:05:53.746Z",
    "devdoc": {
        "kind": "dev",
        "methods": {
            "allowance(address,address)": {
                "details": "See {IERC20-allowance}."
            },
            "approve(address,uint256)": {
                "details": "See {IERC20-approve}. NOTE: If `amount` is the maximum `uint256`, the allowance is not updated on `transferFrom`. This is semantically equivalent to an infinite approval. Requirements: - `spender` cannot be the zero address."
            },
            "balanceOf(address)": {
                "details": "See {IERC20-balanceOf}."
            },
            "decimals()": {
                "details": "Returns the number of decimals used to get its user representation. For example, if `decimals` equals `2`, a balance of `505` tokens should be displayed to a user as `5.05` (`505 / 10 ** 2`). Tokens usually opt for a value of 18, imitating the relationship between Ether and Wei. This is the value {ERC20} uses, unless this function is overridden; NOTE: This information is only used for _display_ purposes: it in no way affects any of the arithmetic of the contract, including {IERC20-balanceOf} and {IERC20-transfer}."
            },
            "decreaseAllowance(address,uint256)": {
                "details": "Atomically decreases the allowance granted to `spender` by the caller. This is an alternative to {approve} that can be used as a mitigation for problems described in {IERC20-approve}. Emits an {Approval} event indicating the updated allowance. Requirements: - `spender` cannot be the zero address. - `spender` must have allowance for the caller of at least `subtractedValue`."
            },
            "delegate(address)": {
                "params": {
                    "delegatee": "The address to delegate votes to"
                }
            },
            "delegateBySig(address,uint256,uint256,uint8,bytes32,bytes32)": {
                "params": {
                    "delegatee": "The address to delegate votes to",
                    "expiry": "The time at which to expire the signature",
                    "nonce": "The contract state required to match the signature",
                    "r": "Half of the ECDSA signature pair",
                    "s": "Half of the ECDSA signature pair",
                    "v": "The recovery byte of the signature"
                }
            },
            "delegates(address)": {
                "params": {
                    "delegator": "The address to get delegatee for"
                }
            },
            "getCurrentVotes(address)": {
                "params": {
                    "account": "The address to get votes balance"
                },
                "returns": {
                    "_0": "The number of current votes for `account`"
                }
            },
            "getPriorVotes(address,uint256)": {
                "details": "Block number must be a finalized block or else this function will revert to prevent misinformation.",
                "params": {
                    "account": "The address of the account to check",
                    "blockNumber": "The block number to get the vote balance at"
                },
                "returns": {
                    "_0": "The number of votes the account had as of the given block"
                }
            },
            "increaseAllowance(address,uint256)": {
                "details": "Atomically increases the allowance granted to `spender` by the caller. This is an alternative to {approve} that can be used as a mitigation for problems described in {IERC20-approve}. Emits an {Approval} event indicating the updated allowance. Requirements: - `spender` cannot be the zero address."
            },
            "name()": {
                "details": "Returns the name of the token."
            },
            "owner()": {
                "details": "Returns the address of the current owner."
            },
            "renounceOwnership()": {
                "details": "Leaves the contract without owner. It will not be possible to call `onlyOwner` functions anymore. Can only be called by the current owner. NOTE: Renouncing ownership will leave the contract without an owner, thereby removing any functionality that is only available to the owner."
            },
            "symbol()": {
                "details": "Returns the symbol of the token, usually a shorter version of the name."
            },
            "totalSupply()": {
                "details": "See {IERC20-totalSupply}."
            },
            "transferOwnership(address)": {
                "details": "Transfers ownership of the contract to a new account (`newOwner`). Can only be called by the current owner."
            }
        },
        "version": 1
    },
    "userdoc": {
        "events": {
            "DelegateChanged(address,address,address)": {
                "notice": "An event thats emitted when an account changes its delegate"
            },
            "DelegateVotesChanged(address,uint256,uint256)": {
                "notice": "An event thats emitted when a delegate account's vote balance changes"
            }
        },
        "kind": "user",
        "methods": {
            "DELEGATION_TYPEHASH()": {
                "notice": "The EIP-712 typehash for the delegation struct used by the contract"
            },
            "DOMAIN_TYPEHASH()": {
                "notice": "The EIP-712 typehash for the contract's domain"
            },
            "checkpoints(address,uint32)": {
                "notice": "A record of votes checkpoints for each account, by index"
            },
            "delegate(address)": {
                "notice": "Delegate votes from `msg.sender` to `delegatee`"
            },
            "delegateBySig(address,uint256,uint256,uint8,bytes32,bytes32)": {
                "notice": "Delegates votes from signatory to `delegatee`"
            },
            "delegates(address)": {
                "notice": "Delegate votes from `msg.sender` to `delegatee`"
            },
            "getCurrentVotes(address)": {
                "notice": "Gets the current votes balance for `account`"
            },
            "getPriorVotes(address,uint256)": {
                "notice": "Determine the prior number of votes for an account as of a block number"
            },
            "nonces(address)": {
                "notice": "A record of states for signing / validating signatures"
            },
            "numCheckpoints(address)": {
                "notice": "The number of checkpoints for each account"
            }
        },
        "version": 1
    }
}