{
    "contractName": "FathomOraclePriceFeedFactory",
    "abi": [
        {
            "anonymous": false,
            "inputs": [
                {
                    "indexed": false,
                    "internalType": "uint8",
                    "name": "version",
                    "type": "uint8"
                }
            ],
            "name": "Initialized",
            "type": "event"
        },
        {
            "anonymous": false,
            "inputs": [
                {
                    "indexed": true,
                    "internalType": "address",
                    "name": "previousOwner",
                    "type": "address"
                },
                {
                    "indexed": true,
                    "internalType": "address",
                    "name": "newOwner",
                    "type": "address"
                }
            ],
            "name": "OwnershipTransferred",
            "type": "event"
        },
        {
            "inputs": [
                {
                    "internalType": "address",
                    "name": "",
                    "type": "address"
                }
            ],
            "name": "feeds",
            "outputs": [
                {
                    "internalType": "address",
                    "name": "",
                    "type": "address"
                }
            ],
            "stateMutability": "view",
            "type": "function"
        },
        {
            "inputs": [],
            "name": "implementation",
            "outputs": [
                {
                    "internalType": "address",
                    "name": "",
                    "type": "address"
                }
            ],
            "stateMutability": "view",
            "type": "function"
        },
        {
            "inputs": [],
            "name": "owner",
            "outputs": [
                {
                    "internalType": "address",
                    "name": "",
                    "type": "address"
                }
            ],
            "stateMutability": "view",
            "type": "function"
        },
        {
            "inputs": [],
            "name": "renounceOwnership",
            "outputs": [],
            "stateMutability": "nonpayable",
            "type": "function"
        },
        {
            "inputs": [
                {
                    "internalType": "address",
                    "name": "newOwner",
                    "type": "address"
                }
            ],
            "name": "transferOwnership",
            "outputs": [],
            "stateMutability": "nonpayable",
            "type": "function"
        },
        {
            "inputs": [
                {
                    "internalType": "address",
                    "name": "impl",
                    "type": "address"
                }
            ],
            "name": "initialize",
            "outputs": [],
            "stateMutability": "nonpayable",
            "type": "function"
        },
        {
            "inputs": [
                {
                    "internalType": "address",
                    "name": "fathomOracle",
                    "type": "address"
                },
                {
                    "internalType": "address",
                    "name": "token0",
                    "type": "address"
                },
                {
                    "internalType": "address",
                    "name": "token1",
                    "type": "address"
                },
                {
                    "internalType": "address",
                    "name": "accessControlConfig",
                    "type": "address"
                }
            ],
            "name": "createPriceFeed",
            "outputs": [],
            "stateMutability": "nonpayable",
            "type": "function"
        }
    ],
    "bytecode": "0x608060405234801561001057600080fd5b5061066c806100206000396000f3fe608060405234801561001057600080fd5b506004361061007d5760003560e01c80638da5cb5b1161005b5780638da5cb5b146100e4578063c4d66de8146100f5578063eeecf87414610108578063f2fde38b1461011b57600080fd5b80632fba4aa9146100825780635c60da1b146100c7578063715018a6146100da575b600080fd5b6100ab610090366004610575565b6066602052600090815260409020546001600160a01b031681565b6040516001600160a01b03909116815260200160405180910390f35b6065546100ab906001600160a01b031681565b6100e261012e565b005b6033546001600160a01b03166100ab565b6100e2610103366004610575565b610142565b6100e2610116366004610597565b610274565b6100e2610129366004610575565b61033d565b6101366103b6565b6101406000610410565b565b600054610100900460ff16158080156101625750600054600160ff909116105b8061017c5750303b15801561017c575060005460ff166001145b6101e45760405162461bcd60e51b815260206004820152602e60248201527f496e697469616c697a61626c653a20636f6e747261637420697320616c72656160448201526d191e481a5b9a5d1a585b1a5e995960921b60648201526084015b60405180910390fd5b6000805460ff191660011790558015610207576000805461ff0019166101001790555b61020f610462565b606580546001600160a01b0319166001600160a01b0384161790558015610270576000805461ff0019169055604051600181527f7f26b83ff96e1f2b6a682f133852f6798a09c465da95921460cefb38474024989060200160405180910390a15b5050565b61027c6103b6565b606554600090610294906001600160a01b0316610491565b604051637c643b2f60e11b81526001600160a01b0387811660048301528681166024830152858116604483015284811660648301529192509082169063f8c8765e90608401600060405180830381600087803b1580156102f357600080fd5b505af1158015610307573d6000803e3d6000fd5b505050506001600160a01b03928316600090815260666020526040902080546001600160a01b0319169190931617909155505050565b6103456103b6565b6001600160a01b0381166103aa5760405162461bcd60e51b815260206004820152602660248201527f4f776e61626c653a206e6577206f776e657220697320746865207a65726f206160448201526564647265737360d01b60648201526084016101db565b6103b381610410565b50565b6033546001600160a01b031633146101405760405162461bcd60e51b815260206004820181905260248201527f4f776e61626c653a2063616c6c6572206973206e6f7420746865206f776e657260448201526064016101db565b603380546001600160a01b038381166001600160a01b0319831681179093556040519116919082907f8be0079c531659141344cd1fd0a4f28419497f9722a3daafe3b4186f6b6457e090600090a35050565b600054610100900460ff166104895760405162461bcd60e51b81526004016101db906105eb565b61014061052e565b6000604051733d602d80600a3d3981f3363d3d373d3d3d363d7360601b81528260601b60148201526e5af43d82803e903d91602b57fd5bf360881b60288201526037816000f09150506001600160a01b0381166105295760405162461bcd60e51b8152602060048201526016602482015275115490cc4c4d8dce8818dc99585d194819985a5b195960521b60448201526064016101db565b919050565b600054610100900460ff166105555760405162461bcd60e51b81526004016101db906105eb565b61014033610410565b80356001600160a01b038116811461052957600080fd5b60006020828403121561058757600080fd5b6105908261055e565b9392505050565b600080600080608085870312156105ad57600080fd5b6105b68561055e565b93506105c46020860161055e565b92506105d26040860161055e565b91506105e06060860161055e565b905092959194509250565b6020808252602b908201527f496e697469616c697a61626c653a20636f6e7472616374206973206e6f74206960408201526a6e697469616c697a696e6760a81b60608201526080019056fea264697066735822122096b88a4765ee2445a8702e25c98185340b0785c8392f9985e0af00f02438735d64736f6c63430008110033",
    "immutableReferences": {},
    "source": "// SPDX-License-Identifier: AGPL-3.0-or-later\npragma solidity 0.8.17;\n\nimport \"./DelayFathomOraclePriceFeed.sol\";\nimport \"@openzeppelin/contracts-upgradeable/access/OwnableUpgradeable.sol\";\nimport {Clones} from \"@openzeppelin/contracts/proxy/Clones.sol\";\n\ncontract FathomOraclePriceFeedFactory is OwnableUpgradeable {\n    address public implementation;\n    mapping(address => address) public feeds;\n\n    function initialize(address impl) external initializer {\n        OwnableUpgradeable.__Ownable_init();\n        implementation = impl;\n    }\n\n    function createPriceFeed(\n        address fathomOracle,\n        address token0,\n        address token1,\n        address accessControlConfig\n    ) external onlyOwner {\n        DelayFathomOraclePriceFeed feed = DelayFathomOraclePriceFeed(\n            Clones.clone(implementation)\n        );\n\n        feed.initialize(fathomOracle, token0, token1, accessControlConfig);\n        feeds[token1] = address(feed);\n    }\n}\n",
    "sourcePath": "/Users/vitaliikoval/dev/fathom-stablecoin-smart-contracts/contracts/main/price-feeders/FathomOraclePriceFeedFactory.sol",
    "compiler": {
        "name": "solc",
        "version": "0.8.17+commit.8df45f5f.Emscripten.clang"
    },
    "schemaVersion": "3.4.10",
    "updatedAt": "2023-01-02T07:05:53.584Z",
    "devdoc": {
        "kind": "dev",
        "methods": {
            "owner()": {
                "details": "Returns the address of the current owner."
            },
            "renounceOwnership()": {
                "details": "Leaves the contract without owner. It will not be possible to call `onlyOwner` functions anymore. Can only be called by the current owner. NOTE: Renouncing ownership will leave the contract without an owner, thereby removing any functionality that is only available to the owner."
            },
            "transferOwnership(address)": {
                "details": "Transfers ownership of the contract to a new account (`newOwner`). Can only be called by the current owner."
            }
        },
        "version": 1
    },
    "userdoc": {
        "kind": "user",
        "methods": {},
        "version": 1
    }
}