{
    "contractName": "FathomOraclePriceFeed",
    "abi": [
        {
            "anonymous": false,
            "inputs": [
                {
                    "indexed": false,
                    "internalType": "uint8",
                    "name": "version",
                    "type": "uint8"
                }
            ],
            "name": "Initialized",
            "type": "event"
        },
        {
            "anonymous": false,
            "inputs": [
                {
                    "indexed": true,
                    "internalType": "address",
                    "name": "_caller",
                    "type": "address"
                },
                {
                    "indexed": false,
                    "internalType": "uint256",
                    "name": "_second",
                    "type": "uint256"
                }
            ],
            "name": "LogSetPriceLife",
            "type": "event"
        },
        {
            "anonymous": false,
            "inputs": [
                {
                    "indexed": false,
                    "internalType": "address",
                    "name": "account",
                    "type": "address"
                }
            ],
            "name": "Paused",
            "type": "event"
        },
        {
            "anonymous": false,
            "inputs": [
                {
                    "indexed": false,
                    "internalType": "address",
                    "name": "account",
                    "type": "address"
                }
            ],
            "name": "Unpaused",
            "type": "event"
        },
        {
            "inputs": [],
            "name": "accessControlConfig",
            "outputs": [
                {
                    "internalType": "contract IAccessControlConfig",
                    "name": "",
                    "type": "address"
                }
            ],
            "stateMutability": "view",
            "type": "function"
        },
        {
            "inputs": [],
            "name": "fathomOracle",
            "outputs": [
                {
                    "internalType": "contract IFathomOracle",
                    "name": "",
                    "type": "address"
                }
            ],
            "stateMutability": "view",
            "type": "function"
        },
        {
            "inputs": [],
            "name": "lastUpdate",
            "outputs": [
                {
                    "internalType": "uint256",
                    "name": "",
                    "type": "uint256"
                }
            ],
            "stateMutability": "view",
            "type": "function"
        },
        {
            "inputs": [],
            "name": "paused",
            "outputs": [
                {
                    "internalType": "bool",
                    "name": "",
                    "type": "bool"
                }
            ],
            "stateMutability": "view",
            "type": "function"
        },
        {
            "inputs": [],
            "name": "priceLife",
            "outputs": [
                {
                    "internalType": "uint256",
                    "name": "",
                    "type": "uint256"
                }
            ],
            "stateMutability": "view",
            "type": "function"
        },
        {
            "inputs": [],
            "name": "token0",
            "outputs": [
                {
                    "internalType": "address",
                    "name": "",
                    "type": "address"
                }
            ],
            "stateMutability": "view",
            "type": "function"
        },
        {
            "inputs": [],
            "name": "token1",
            "outputs": [
                {
                    "internalType": "address",
                    "name": "",
                    "type": "address"
                }
            ],
            "stateMutability": "view",
            "type": "function"
        },
        {
            "inputs": [
                {
                    "internalType": "address",
                    "name": "_fathomOracle",
                    "type": "address"
                },
                {
                    "internalType": "address",
                    "name": "_token0",
                    "type": "address"
                },
                {
                    "internalType": "address",
                    "name": "_token1",
                    "type": "address"
                },
                {
                    "internalType": "address",
                    "name": "_accessControlConfig",
                    "type": "address"
                }
            ],
            "name": "initialize",
            "outputs": [],
            "stateMutability": "nonpayable",
            "type": "function"
        },
        {
            "inputs": [
                {
                    "internalType": "uint256",
                    "name": "_second",
                    "type": "uint256"
                }
            ],
            "name": "setPriceLife",
            "outputs": [],
            "stateMutability": "nonpayable",
            "type": "function"
        },
        {
            "inputs": [],
            "name": "pause",
            "outputs": [],
            "stateMutability": "nonpayable",
            "type": "function"
        },
        {
            "inputs": [],
            "name": "unpause",
            "outputs": [],
            "stateMutability": "nonpayable",
            "type": "function"
        },
        {
            "inputs": [],
            "name": "readPrice",
            "outputs": [
                {
                    "internalType": "bytes32",
                    "name": "",
                    "type": "bytes32"
                }
            ],
            "stateMutability": "view",
            "type": "function"
        },
        {
            "inputs": [],
            "name": "peekPrice",
            "outputs": [
                {
                    "internalType": "bytes32",
                    "name": "",
                    "type": "bytes32"
                },
                {
                    "internalType": "bool",
                    "name": "",
                    "type": "bool"
                }
            ],
            "stateMutability": "nonpayable",
            "type": "function"
        },
        {
            "inputs": [],
            "name": "isPriceOk",
            "outputs": [
                {
                    "internalType": "bool",
                    "name": "",
                    "type": "bool"
                }
            ],
            "stateMutability": "view",
            "type": "function"
        }
    ],
    "bytecode": "0x608060405234801561001057600080fd5b50610e38806100206000396000f3fe608060405234801561001057600080fd5b50600436106100ea5760003560e01c80637e91400f1161008c578063c8cc243f11610066578063c8cc243f146101ac578063d21220a7146101bf578063ef36ee47146101d2578063f8c8765e146101e557600080fd5b80637e91400f146101935780638456cb591461019b578063c0463711146101a357600080fd5b8063140d2720116100c8578063140d27201461014a5780633f4ba83a146101675780635af639c3146101715780635c975abb1461018857600080fd5b80630184a92a146100ef5780630831bf421461010c5780630dfe168114610137575b600080fd5b6100f76101f8565b60405190151581526020015b60405180910390f35b60655461011f906001600160a01b031681565b6040516001600160a01b039091168152602001610103565b60675461011f906001600160a01b031681565b610152610207565b60408051928352901515602083015201610103565b61016f6102a9565b005b61017a60695481565b604051908152602001610103565b60335460ff166100f7565b61017a6104bc565b61016f610541565b61017a606a5481565b60665461011f906001600160a01b031681565b60685461011f906001600160a01b031681565b61016f6101e0366004610ca1565b61074d565b61016f6101f3366004610cd6565b61090c565b6000610202610aeb565b905090565b606554606754606854604051635620c32d60e11b81526001600160a01b0392831660048201529082166024820152600092839283928392919091169063ac41865a906044016040805180830381865afa158015610268573d6000803e3d6000fd5b505050506040513d601f19601f8201168201806040525081019061028c9190610d2a565b606a81905590925090508161029f610aeb565b9350935050509091565b6066546040805163e58378bb60e01b815290516001600160a01b03909216916391d1485491839163e58378bb916004808201926020929091908290030181865afa1580156102fb573d6000803e3d6000fd5b505050506040513d601f19601f8201168201806040525081019061031f9190610d4e565b6040516001600160e01b031960e084901b1681526004810191909152336024820152604401602060405180830381865afa158015610361573d6000803e3d6000fd5b505050506040513d601f19601f820116820180604052508101906103859190610d67565b80610467575060665460408051635a9b40c560e11b815290516001600160a01b03909216916391d1485491839163b536818a916004808201926020929091908290030181865afa1580156103dd573d6000803e3d6000fd5b505050506040513d601f19601f820116820180604052508101906104019190610d4e565b6040516001600160e01b031960e084901b1681526004810191909152336024820152604401602060405180830381865afa158015610443573d6000803e3d6000fd5b505050506040513d601f19601f820116820180604052508101906104679190610d67565b6104b25760405162461bcd60e51b815260206004820152601760248201527621286f776e6572526f6c65206f7220676f76526f6c652960481b60448201526064015b60405180910390fd5b6104ba610b07565b565b606554606754606854604051635620c32d60e11b81526001600160a01b03928316600482015290821660248201526000928392169063ac41865a906044016040805180830381865afa158015610516573d6000803e3d6000fd5b505050506040513d601f19601f8201168201806040525081019061053a9190610d2a565b5092915050565b6066546040805163e58378bb60e01b815290516001600160a01b03909216916391d1485491839163e58378bb916004808201926020929091908290030181865afa158015610593573d6000803e3d6000fd5b505050506040513d601f19601f820116820180604052508101906105b79190610d4e565b6040516001600160e01b031960e084901b1681526004810191909152336024820152604401602060405180830381865afa1580156105f9573d6000803e3d6000fd5b505050506040513d601f19601f8201168201806040525081019061061d9190610d67565b806106ff575060665460408051635a9b40c560e11b815290516001600160a01b03909216916391d1485491839163b536818a916004808201926020929091908290030181865afa158015610675573d6000803e3d6000fd5b505050506040513d601f19601f820116820180604052508101906106999190610d4e565b6040516001600160e01b031960e084901b1681526004810191909152336024820152604401602060405180830381865afa1580156106db573d6000803e3d6000fd5b505050506040513d601f19601f820116820180604052508101906106ff9190610d67565b6107455760405162461bcd60e51b815260206004820152601760248201527621286f776e6572526f6c65206f7220676f76526f6c652960481b60448201526064016104a9565b6104ba610b59565b6066546040805163e58378bb60e01b815290516001600160a01b03909216916391d1485491839163e58378bb916004808201926020929091908290030181865afa15801561079f573d6000803e3d6000fd5b505050506040513d601f19601f820116820180604052508101906107c39190610d4e565b6040516001600160e01b031960e084901b1681526004810191909152336024820152604401602060405180830381865afa158015610805573d6000803e3d6000fd5b505050506040513d601f19601f820116820180604052508101906108299190610d67565b6108625760405162461bcd60e51b815260206004820152600a602482015269216f776e6572526f6c6560b01b60448201526064016104a9565b610e1081101580156108775750620151808111155b6108cf5760405162461bcd60e51b8152602060048201526024808201527f466174686f6d4f7261636c655072696365466565642f6261642d70726963652d6044820152636c69666560e01b60648201526084016104a9565b606981905560405181815233907f472c5e14bb804bd7b201c5c27f2ea820980b37ef7611806e7b3f6db6758f32e09060200160405180910390a250565b600054610100900460ff161580801561092c5750600054600160ff909116105b806109465750303b158015610946575060005460ff166001145b6109a95760405162461bcd60e51b815260206004820152602e60248201527f496e697469616c697a61626c653a20636f6e747261637420697320616c72656160448201526d191e481a5b9a5d1a585b1a5e995960921b60648201526084016104a9565b6000805460ff1916600117905580156109cc576000805461ff0019166101001790555b6109d4610b96565b606680546001600160a01b038085166001600160a01b03199283161790925560658054888416921691909117905583811690851603610a675760405162461bcd60e51b815260206004820152602960248201527f466174686f6d4f7261636c655072696365466565642f77726f6e672d746f6b656044820152686e302d746f6b656e3160b81b60648201526084016104a9565b606780546001600160a01b038087166001600160a01b0319928316179092556068805492861692909116919091179055620151806069558015610ae4576000805461ff0019169055604051600181527f7f26b83ff96e1f2b6a682f133852f6798a09c465da95921460cefb38474024989060200160405180910390a15b5050505050565b6000610af5610bc5565b801561020257505060335460ff161590565b610b0f610bdf565b6033805460ff191690557f5db9ee0a495bf2e6ff9c91a7834c1ba4fdd244a5e8aa4e537bd38aeae4b073aa335b6040516001600160a01b03909116815260200160405180910390a1565b610b61610c28565b6033805460ff191660011790557f62e78cea01bee320cd4e420270b5ea74000d11b0c9f74754ebdbfc544b05a258610b3c3390565b600054610100900460ff16610bbd5760405162461bcd60e51b81526004016104a990610d90565b6104ba610c6e565b600060695442610bd59190610ddb565b606a541015905090565b60335460ff166104ba5760405162461bcd60e51b815260206004820152601460248201527314185d5cd8589b194e881b9bdd081c185d5cd95960621b60448201526064016104a9565b60335460ff16156104ba5760405162461bcd60e51b815260206004820152601060248201526f14185d5cd8589b194e881c185d5cd95960821b60448201526064016104a9565b600054610100900460ff16610c955760405162461bcd60e51b81526004016104a990610d90565b6033805460ff19169055565b600060208284031215610cb357600080fd5b5035919050565b80356001600160a01b0381168114610cd157600080fd5b919050565b60008060008060808587031215610cec57600080fd5b610cf585610cba565b9350610d0360208601610cba565b9250610d1160408601610cba565b9150610d1f60608601610cba565b905092959194509250565b60008060408385031215610d3d57600080fd5b505080516020909101519092909150565b600060208284031215610d6057600080fd5b5051919050565b600060208284031215610d7957600080fd5b81518015158114610d8957600080fd5b9392505050565b6020808252602b908201527f496e697469616c697a61626c653a20636f6e7472616374206973206e6f74206960408201526a6e697469616c697a696e6760a81b606082015260800190565b81810381811115610dfc57634e487b7160e01b600052601160045260246000fd5b9291505056fea2646970667358221220d9c9d4279200f0a9150189ad23d7cf6681aaa209dbe736ce4c823b6ea6f4cfd964736f6c63430008110033",
    "immutableReferences": {},
    "source": "// SPDX-License-Identifier: AGPL-3.0-or-later\npragma solidity 0.8.17;\n\nimport \"@openzeppelin/contracts-upgradeable/security/PausableUpgradeable.sol\";\n\nimport \"../interfaces/IFathomOraclePriceFeed.sol\";\nimport \"../interfaces/IFathomOracle.sol\";\nimport \"../interfaces/IAccessControlConfig.sol\";\n\ncontract FathomOraclePriceFeed is PausableUpgradeable, IFathomOraclePriceFeed {\n    IFathomOracle public fathomOracle;\n    IAccessControlConfig public accessControlConfig;\n    address public token0;\n    address public token1;\n    uint256 public priceLife; // [seconds] how old the price is considered stale, default 1 day\n    uint256 public lastUpdate;\n\n    function initialize(address _fathomOracle, address _token0, address _token1, address _accessControlConfig) external initializer {\n        PausableUpgradeable.__Pausable_init();\n\n        accessControlConfig = IAccessControlConfig(_accessControlConfig);\n\n        fathomOracle = IFathomOracle(_fathomOracle);\n        require(_token0 != _token1, \"FathomOraclePriceFeed/wrong-token0-token1\");\n        token0 = _token0;\n        token1 = _token1;\n        priceLife = 1 days;\n    }\n\n    modifier onlyOwner() {\n        require(accessControlConfig.hasRole(accessControlConfig.OWNER_ROLE(), msg.sender), \"!ownerRole\");\n        _;\n    }\n\n    modifier onlyOwnerOrGov() {\n        require(\n            accessControlConfig.hasRole(accessControlConfig.OWNER_ROLE(), msg.sender) ||\n                accessControlConfig.hasRole(accessControlConfig.GOV_ROLE(), msg.sender),\n            \"!(ownerRole or govRole)\"\n        );\n        _;\n    }\n\n    event LogSetPriceLife(address indexed _caller, uint256 _second);\n\n    function setPriceLife(uint256 _second) external onlyOwner {\n        require(_second >= 1 hours && _second <= 1 days, \"FathomOraclePriceFeed/bad-price-life\");\n        priceLife = _second;\n        emit LogSetPriceLife(msg.sender, _second);\n    }\n\n    function pause() external onlyOwnerOrGov {\n        _pause();\n    }\n\n    function unpause() external onlyOwnerOrGov {\n        _unpause();\n    }\n\n    function readPrice() external view override returns (bytes32) {\n        (uint256 _price, ) = fathomOracle.getPrice(token0, token1);\n        return bytes32(_price);\n    }\n\n    function peekPrice() external override returns (bytes32, bool) {\n        // [wad], [seconds]\n        (uint256 _price, uint256 _lastUpdate) = fathomOracle.getPrice(token0, token1);\n        lastUpdate = _lastUpdate;\n        return (bytes32(_price), _isPriceOk());\n    }\n\n    function isPriceOk() external view override returns (bool) {\n        return _isPriceOk();\n    }\n\n    function _isPriceFresh() internal view returns (bool) {\n        return lastUpdate >= block.timestamp - priceLife;\n    }\n\n    function _isPriceOk() internal view returns (bool) {\n        return _isPriceFresh() && !paused();\n    }\n}\n",
    "sourcePath": "/Users/vitaliikoval/dev/fathom-stablecoin-smart-contracts/contracts/main/price-feeders/FathomOraclePriceFeed.sol",
    "compiler": {
        "name": "solc",
        "version": "0.8.17+commit.8df45f5f.Emscripten.clang"
    },
    "schemaVersion": "3.4.10",
    "updatedAt": "2023-01-02T07:05:53.580Z",
    "devdoc": {
        "kind": "dev",
        "methods": {
            "paused()": {
                "details": "Returns true if the contract is paused, and false otherwise."
            }
        },
        "version": 1
    },
    "userdoc": {
        "kind": "user",
        "methods": {},
        "version": 1
    }
}