{
    "contractName": "FathomProxyFactory",
    "abi": [
        {
            "anonymous": false,
            "inputs": [
                {
                    "indexed": true,
                    "internalType": "address",
                    "name": "previousOwner",
                    "type": "address"
                },
                {
                    "indexed": true,
                    "internalType": "address",
                    "name": "newOwner",
                    "type": "address"
                }
            ],
            "name": "OwnershipTransferred",
            "type": "event"
        },
        {
            "inputs": [],
            "name": "owner",
            "outputs": [
                {
                    "internalType": "address",
                    "name": "",
                    "type": "address"
                }
            ],
            "stateMutability": "view",
            "type": "function"
        },
        {
            "inputs": [
                {
                    "internalType": "bytes32",
                    "name": "",
                    "type": "bytes32"
                }
            ],
            "name": "proxies",
            "outputs": [
                {
                    "internalType": "address",
                    "name": "",
                    "type": "address"
                }
            ],
            "stateMutability": "view",
            "type": "function"
        },
        {
            "inputs": [],
            "name": "renounceOwnership",
            "outputs": [],
            "stateMutability": "nonpayable",
            "type": "function"
        },
        {
            "inputs": [
                {
                    "internalType": "address",
                    "name": "newOwner",
                    "type": "address"
                }
            ],
            "name": "transferOwnership",
            "outputs": [],
            "stateMutability": "nonpayable",
            "type": "function"
        },
        {
            "inputs": [
                {
                    "internalType": "bytes32",
                    "name": "proxyId",
                    "type": "bytes32"
                },
                {
                    "internalType": "address",
                    "name": "impl",
                    "type": "address"
                },
                {
                    "internalType": "address",
                    "name": "proxyAdmin",
                    "type": "address"
                },
                {
                    "internalType": "bytes",
                    "name": "data",
                    "type": "bytes"
                }
            ],
            "name": "createProxy",
            "outputs": [],
            "stateMutability": "nonpayable",
            "type": "function"
        }
    ],
    "bytecode": "0x608060405234801561001057600080fd5b5061001a3361001f565b61006f565b600080546001600160a01b038381166001600160a01b0319831681178455604051919092169283917f8be0079c531659141344cd1fd0a4f28419497f9722a3daafe3b4186f6b6457e09190a35050565b61130e8061007e6000396000f3fe60806040523480156200001157600080fd5b50600436106200005e5760003560e01c80636932af361462000063578063715018a614620000ab5780638da5cb5b14620000b7578063f032390f14620000c9578063f2fde38b14620000e0575b600080fd5b6200008f62000074366004620002c8565b6001602052600090815260409020546001600160a01b031681565b6040516001600160a01b03909116815260200160405180910390f35b620000b5620000f7565b005b6000546001600160a01b03166200008f565b620000b5620000da36600462000315565b6200010f565b620000b5620000f1366004620003ff565b6200018b565b620001016200020e565b6200010d60006200026a565b565b620001196200020e565b60008383836040516200012c90620002ba565b6200013a9392919062000424565b604051809103906000f08015801562000157573d6000803e3d6000fd5b5060009586526001602052604090952080546001600160a01b0319166001600160a01b039096169590951790945550505050565b620001956200020e565b6001600160a01b038116620002005760405162461bcd60e51b815260206004820152602660248201527f4f776e61626c653a206e6577206f776e657220697320746865207a65726f206160448201526564647265737360d01b60648201526084015b60405180910390fd5b6200020b816200026a565b50565b6000546001600160a01b031633146200010d5760405162461bcd60e51b815260206004820181905260248201527f4f776e61626c653a2063616c6c6572206973206e6f7420746865206f776e65726044820152606401620001f7565b600080546001600160a01b038381166001600160a01b0319831681178455604051919092169283917f8be0079c531659141344cd1fd0a4f28419497f9722a3daafe3b4186f6b6457e09190a35050565b610e48806200049183390190565b600060208284031215620002db57600080fd5b5035919050565b80356001600160a01b0381168114620002fa57600080fd5b919050565b634e487b7160e01b600052604160045260246000fd5b600080600080608085870312156200032c57600080fd5b843593506200033e60208601620002e2565b92506200034e60408601620002e2565b9150606085013567ffffffffffffffff808211156200036c57600080fd5b818701915087601f8301126200038157600080fd5b813581811115620003965762000396620002ff565b604051601f8201601f19908116603f01168101908382118183101715620003c157620003c1620002ff565b816040528281528a6020848701011115620003db57600080fd5b82602086016020830137600060208483010152809550505050505092959194509250565b6000602082840312156200041257600080fd5b6200041d82620002e2565b9392505050565b600060018060a01b038086168352602081861681850152606060408501528451915081606085015260005b828110156200046d578581018201518582016080015281016200044f565b50506000608082850101526080601f19601f83011684010191505094935050505056fe60806040523480156200001157600080fd5b5060405162000e4838038062000e4883398101604081905262000034916200049b565b8282828281620000478282600062000061565b50620000559050826200009e565b505050505050620005ce565b6200006c83620000f9565b6000825111806200007a5750805b1562000099576200009783836200013b60201b6200022e1760201c565b505b505050565b7f7e644d79422f17c01e4894b5f4f588d331ebfa28653d42ae832dc59e38c9798f620000c96200016a565b604080516001600160a01b03928316815291841660208301520160405180910390a1620000f681620001a3565b50565b620001048162000258565b6040516001600160a01b038216907fbc7cd75a20ee27fd9adebab32041f755214dbc6bffa90cc0225b39da2e5c2d3b90600090a250565b606062000163838360405180606001604052806027815260200162000e21602791396200030c565b9392505050565b60006200019460008051602062000e0183398151915260001b620003f260201b620001ea1760201c565b546001600160a01b0316919050565b6001600160a01b0381166200020e5760405162461bcd60e51b815260206004820152602660248201527f455243313936373a206e65772061646d696e20697320746865207a65726f206160448201526564647265737360d01b60648201526084015b60405180910390fd5b806200023760008051602062000e0183398151915260001b620003f260201b620001ea1760201c565b80546001600160a01b0319166001600160a01b039290921691909117905550565b6200026e81620003f560201b6200025a1760201c565b620002d25760405162461bcd60e51b815260206004820152602d60248201527f455243313936373a206e657720696d706c656d656e746174696f6e206973206e60448201526c1bdd08184818dbdb9d1c9858dd609a1b606482015260840162000205565b80620002377f360894a13ba1a3210667c828492db98dca3e2076cc3735a920a3ca505d382bbc60001b620003f260201b620001ea1760201c565b60606001600160a01b0384163b620003765760405162461bcd60e51b815260206004820152602660248201527f416464726573733a2064656c65676174652063616c6c20746f206e6f6e2d636f6044820152651b9d1c9858dd60d21b606482015260840162000205565b600080856001600160a01b0316856040516200039391906200057b565b600060405180830381855af49150503d8060008114620003d0576040519150601f19603f3d011682016040523d82523d6000602084013e620003d5565b606091505b509092509050620003e882828662000404565b9695505050505050565b90565b6001600160a01b03163b151590565b606083156200041557508162000163565b825115620004265782518084602001fd5b8160405162461bcd60e51b815260040162000205919062000599565b80516001600160a01b03811681146200045a57600080fd5b919050565b634e487b7160e01b600052604160045260246000fd5b60005b838110156200049257818101518382015260200162000478565b50506000910152565b600080600060608486031215620004b157600080fd5b620004bc8462000442565b9250620004cc6020850162000442565b60408501519092506001600160401b0380821115620004ea57600080fd5b818601915086601f830112620004ff57600080fd5b8151818111156200051457620005146200045f565b604051601f8201601f19908116603f011681019083821181831017156200053f576200053f6200045f565b816040528281528960208487010111156200055957600080fd5b6200056c83602083016020880162000475565b80955050505050509250925092565b600082516200058f81846020870162000475565b9190910192915050565b6020815260008251806020840152620005ba81604085016020870162000475565b601f01601f19169190910160400192915050565b61082380620005de6000396000f3fe60806040526004361061004e5760003560e01c80633659cfe6146100655780634f1ef286146100855780635c60da1b146100985780638f283970146100c9578063f851a440146100e95761005d565b3661005d5761005b6100fe565b005b61005b6100fe565b34801561007157600080fd5b5061005b6100803660046106b5565b610118565b61005b6100933660046106d0565b610155565b3480156100a457600080fd5b506100ad6101bc565b6040516001600160a01b03909116815260200160405180910390f35b3480156100d557600080fd5b5061005b6100e43660046106b5565b6101ed565b3480156100f557600080fd5b506100ad61020d565b610106610269565b6101166101116102fe565b610308565b565b61012061032c565b6001600160a01b0316330361014d5761014a8160405180602001604052806000815250600061035f565b50565b61014a6100fe565b61015d61032c565b6001600160a01b031633036101b4576101af8383838080601f0160208091040260200160405190810160405280939291908181526020018383808284376000920191909152506001925061035f915050565b505050565b6101af6100fe565b60006101c661032c565b6001600160a01b031633036101e2576101dd6102fe565b905090565b6101ea6100fe565b90565b6101f561032c565b6001600160a01b0316330361014d5761014a8161038a565b600061021761032c565b6001600160a01b031633036101e2576101dd61032c565b606061025383836040518060600160405280602781526020016107c7602791396103de565b9392505050565b6001600160a01b03163b151590565b61027161032c565b6001600160a01b031633036101165760405162461bcd60e51b815260206004820152604260248201527f5472616e73706172656e745570677261646561626c6550726f78793a2061646d60448201527f696e2063616e6e6f742066616c6c6261636b20746f2070726f78792074617267606482015261195d60f21b608482015260a4015b60405180910390fd5b60006101dd6104bb565b3660008037600080366000845af43d6000803e808015610327573d6000f35b3d6000fd5b60007fb53127684a568b3173ae13b9f8a6016e243e63b6e8ee1178d6a717850b5d61035b546001600160a01b0316919050565b610368836104e3565b6000825111806103755750805b156101af57610384838361022e565b50505050565b7f7e644d79422f17c01e4894b5f4f588d331ebfa28653d42ae832dc59e38c9798f6103b361032c565b604080516001600160a01b03928316815291841660208301520160405180910390a161014a81610523565b60606001600160a01b0384163b6104465760405162461bcd60e51b815260206004820152602660248201527f416464726573733a2064656c65676174652063616c6c20746f206e6f6e2d636f6044820152651b9d1c9858dd60d21b60648201526084016102f5565b600080856001600160a01b0316856040516104619190610777565b600060405180830381855af49150503d806000811461049c576040519150601f19603f3d011682016040523d82523d6000602084013e6104a1565b606091505b50915091506104b18282866105cc565b9695505050505050565b60007f360894a13ba1a3210667c828492db98dca3e2076cc3735a920a3ca505d382bbc610350565b6104ec81610605565b6040516001600160a01b038216907fbc7cd75a20ee27fd9adebab32041f755214dbc6bffa90cc0225b39da2e5c2d3b90600090a250565b6001600160a01b0381166105885760405162461bcd60e51b815260206004820152602660248201527f455243313936373a206e65772061646d696e20697320746865207a65726f206160448201526564647265737360d01b60648201526084016102f5565b807fb53127684a568b3173ae13b9f8a6016e243e63b6e8ee1178d6a717850b5d61035b80546001600160a01b0319166001600160a01b039290921691909117905550565b606083156105db575081610253565b8251156105eb5782518084602001fd5b8160405162461bcd60e51b81526004016102f59190610793565b6001600160a01b0381163b6106725760405162461bcd60e51b815260206004820152602d60248201527f455243313936373a206e657720696d706c656d656e746174696f6e206973206e60448201526c1bdd08184818dbdb9d1c9858dd609a1b60648201526084016102f5565b807f360894a13ba1a3210667c828492db98dca3e2076cc3735a920a3ca505d382bbc6105ab565b80356001600160a01b03811681146106b057600080fd5b919050565b6000602082840312156106c757600080fd5b61025382610699565b6000806000604084860312156106e557600080fd5b6106ee84610699565b9250602084013567ffffffffffffffff8082111561070b57600080fd5b818601915086601f83011261071f57600080fd5b81358181111561072e57600080fd5b87602082850101111561074057600080fd5b6020830194508093505050509250925092565b60005b8381101561076e578181015183820152602001610756565b50506000910152565b60008251610789818460208701610753565b9190910192915050565b60208152600082518060208401526107b2816040850160208701610753565b601f01601f1916919091016040019291505056fe416464726573733a206c6f772d6c6576656c2064656c65676174652063616c6c206661696c6564a2646970667358221220d6c22a94791d126f58ce0c3414e9aed87f882a2698064e3c50dd5e41cbb4fcb264736f6c63430008110033b53127684a568b3173ae13b9f8a6016e243e63b6e8ee1178d6a717850b5d6103416464726573733a206c6f772d6c6576656c2064656c65676174652063616c6c206661696c6564a26469706673582212206c93adfff4e178d10b270f8896c4d5e43ad0dc248a7c0bfbd1939e50486dd56a64736f6c63430008110033",
    "immutableReferences": {},
    "source": "// SPDX-License-Identifier: AGPL-3.0-or-later\n\npragma solidity 0.8.17;\n\nimport \"./FathomProxy.sol\";\nimport \"@openzeppelin/contracts/access/Ownable.sol\";\n\ncontract FathomProxyFactory is Ownable {\n    mapping(bytes32 => address) public proxies;\n\n    function createProxy(\n        bytes32 proxyId,\n        address impl,\n        address proxyAdmin,\n        bytes memory data\n    ) external onlyOwner {\n        FathomProxy proxy = new FathomProxy(impl, proxyAdmin, data);\n        proxies[proxyId] = address(proxy);\n    }\n}\n",
    "sourcePath": "/Users/vitaliikoval/dev/fathom-stablecoin-smart-contracts/contracts/main/proxy/FathomProxyFactory.sol",
    "compiler": {
        "name": "solc",
        "version": "0.8.17+commit.8df45f5f.Emscripten.clang"
    },
    "schemaVersion": "3.4.10",
    "updatedAt": "2023-01-02T07:05:53.643Z",
    "devdoc": {
        "kind": "dev",
        "methods": {
            "owner()": {
                "details": "Returns the address of the current owner."
            },
            "renounceOwnership()": {
                "details": "Leaves the contract without owner. It will not be possible to call `onlyOwner` functions anymore. Can only be called by the current owner. NOTE: Renouncing ownership will leave the contract without an owner, thereby removing any functionality that is only available to the owner."
            },
            "transferOwnership(address)": {
                "details": "Transfers ownership of the contract to a new account (`newOwner`). Can only be called by the current owner."
            }
        },
        "version": 1
    },
    "userdoc": {
        "kind": "user",
        "methods": {},
        "version": 1
    }
}