{
    "contractName": "FlashMintArbitrager",
    "abi": [
        {
            "anonymous": false,
            "inputs": [
                {
                    "indexed": false,
                    "internalType": "uint8",
                    "name": "version",
                    "type": "uint8"
                }
            ],
            "name": "Initialized",
            "type": "event"
        },
        {
            "anonymous": false,
            "inputs": [
                {
                    "indexed": true,
                    "internalType": "address",
                    "name": "previousOwner",
                    "type": "address"
                },
                {
                    "indexed": true,
                    "internalType": "address",
                    "name": "newOwner",
                    "type": "address"
                }
            ],
            "name": "OwnershipTransferred",
            "type": "event"
        },
        {
            "inputs": [],
            "name": "owner",
            "outputs": [
                {
                    "internalType": "address",
                    "name": "",
                    "type": "address"
                }
            ],
            "stateMutability": "view",
            "type": "function"
        },
        {
            "inputs": [],
            "name": "renounceOwnership",
            "outputs": [],
            "stateMutability": "nonpayable",
            "type": "function"
        },
        {
            "inputs": [
                {
                    "internalType": "address",
                    "name": "newOwner",
                    "type": "address"
                }
            ],
            "name": "transferOwnership",
            "outputs": [],
            "stateMutability": "nonpayable",
            "type": "function"
        },
        {
            "inputs": [],
            "name": "initialize",
            "outputs": [],
            "stateMutability": "nonpayable",
            "type": "function"
        },
        {
            "inputs": [
                {
                    "internalType": "address",
                    "name": "initiator",
                    "type": "address"
                },
                {
                    "internalType": "address",
                    "name": "token",
                    "type": "address"
                },
                {
                    "internalType": "uint256",
                    "name": "amount",
                    "type": "uint256"
                },
                {
                    "internalType": "uint256",
                    "name": "fee",
                    "type": "uint256"
                },
                {
                    "internalType": "bytes",
                    "name": "data",
                    "type": "bytes"
                }
            ],
            "name": "onFlashLoan",
            "outputs": [
                {
                    "internalType": "bytes32",
                    "name": "",
                    "type": "bytes32"
                }
            ],
            "stateMutability": "nonpayable",
            "type": "function"
        }
    ],
    "bytecode": "0x608060405234801561001057600080fd5b50610be8806100206000396000f3fe608060405234801561001057600080fd5b50600436106100575760003560e01c806323e30c8b1461005c578063715018a6146100825780638129fc1c1461008c5780638da5cb5b14610094578063f2fde38b146100af575b600080fd5b61006f61006a366004610837565b6100c2565b6040519081526020015b60405180910390f35b61008a6103e2565b005b61008a6103f6565b6033546040516001600160a01b039091168152602001610079565b61008a6100bd3660046108e1565b61050c565b60008080806100d3858701876108fe565b6040805160028082526060820183529497509295509093506000929060208301908036833701905050905089816000815181106101125761011261095f565b60200260200101906001600160a01b031690816001600160a01b03168152505082816001815181106101465761014661095f565b6001600160a01b03928316602091820292909201015260009061016a908516610582565b90506101826001600160a01b038c16866000196105f3565b6040516338ed173960e01b81526001600160a01b038616906338ed1739906101b7908d90600090879030904290600401610975565b6000604051808303816000875af11580156101d6573d6000803e3d6000fd5b505050506040513d6000823e601f3d908101601f191682016040526101fe91908101906109e6565b506102146001600160a01b038c168660006105f3565b6000610228856001600160a01b0316610582565b90506102a2846001600160a01b031663e723b9776040518163ffffffff1660e01b8152600401602060405180830381865afa15801561026b573d6000803e3d6000fd5b505050506040513d601f19601f8201168201806040525081019061028f9190610aa4565b6001600160a01b038716906000196105f3565b6001600160a01b0384166340853dce306102bc84866106fd565b6040516001600160e01b031960e085901b1681526001600160a01b0390921660048301526024820152604401600060405180830381600087803b15801561030257600080fd5b505af1158015610316573d6000803e3d6000fd5b50505050610391846001600160a01b031663e723b9776040518163ffffffff1660e01b8152600401602060405180830381865afa15801561035b573d6000803e3d6000fd5b505050506040513d601f19601f8201168201806040525081019061037f9190610aa4565b6001600160a01b0387169060006105f3565b6103b03361039f8d8d610710565b6001600160a01b038f1691906105f3565b507f439148f0bbc682ca079e46d6e2c2f0c1e3b820f1a291b069d8882abf8cf18dd99c9b505050505050505050505050565b6103ea61071c565b6103f46000610776565b565b600054610100900460ff16158080156104165750600054600160ff909116105b806104305750303b158015610430575060005460ff166001145b6104985760405162461bcd60e51b815260206004820152602e60248201527f496e697469616c697a61626c653a20636f6e747261637420697320616c72656160448201526d191e481a5b9a5d1a585b1a5e995960921b60648201526084015b60405180910390fd5b6000805460ff1916600117905580156104bb576000805461ff0019166101001790555b6104c36107c8565b8015610509576000805461ff0019169055604051600181527f7f26b83ff96e1f2b6a682f133852f6798a09c465da95921460cefb38474024989060200160405180910390a15b50565b61051461071c565b6001600160a01b0381166105795760405162461bcd60e51b815260206004820152602660248201527f4f776e61626c653a206e6577206f776e657220697320746865207a65726f206160448201526564647265737360d01b606482015260840161048f565b61050981610776565b6040516370a0823160e01b81523060048201526000906001600160a01b038316906370a0823190602401602060405180830381865afa1580156105c9573d6000803e3d6000fd5b505050506040513d601f19601f820116820180604052508101906105ed9190610ac1565b92915050565b604080516001600160a01b038481166024830152604480830185905283518084039091018152606490920183526020820180516001600160e01b031663095ea7b360e01b179052915160009283929087169161064f9190610ada565b6000604051808303816000865af19150503d806000811461068c576040519150601f19603f3d011682016040523d82523d6000602084013e610691565b606091505b50915091508180156106bb5750805115806106bb5750808060200190518101906106bb9190610b09565b6106f65760405162461bcd60e51b815260206004820152600c60248201526b2173616665417070726f766560a01b604482015260640161048f565b5050505050565b60006107098284610b41565b9392505050565b60006107098284610b54565b6033546001600160a01b031633146103f45760405162461bcd60e51b815260206004820181905260248201527f4f776e61626c653a2063616c6c6572206973206e6f7420746865206f776e6572604482015260640161048f565b603380546001600160a01b038381166001600160a01b0319831681179093556040519116919082907f8be0079c531659141344cd1fd0a4f28419497f9722a3daafe3b4186f6b6457e090600090a35050565b600054610100900460ff166107ef5760405162461bcd60e51b815260040161048f90610b67565b6103f4600054610100900460ff166108195760405162461bcd60e51b815260040161048f90610b67565b6103f433610776565b6001600160a01b038116811461050957600080fd5b60008060008060008060a0878903121561085057600080fd5b863561085b81610822565b9550602087013561086b81610822565b94506040870135935060608701359250608087013567ffffffffffffffff8082111561089657600080fd5b818901915089601f8301126108aa57600080fd5b8135818111156108b957600080fd5b8a60208285010111156108cb57600080fd5b6020830194508093505050509295509295509295565b6000602082840312156108f357600080fd5b813561070981610822565b60008060006060848603121561091357600080fd5b833561091e81610822565b9250602084013561092e81610822565b9150604084013561093e81610822565b809150509250925092565b634e487b7160e01b600052604160045260246000fd5b634e487b7160e01b600052603260045260246000fd5b600060a082018783526020878185015260a0604085015281875180845260c086019150828901935060005b818110156109c55784516001600160a01b0316835293830193918301916001016109a0565b50506001600160a01b03969096166060850152505050608001529392505050565b600060208083850312156109f957600080fd5b825167ffffffffffffffff80821115610a1157600080fd5b818501915085601f830112610a2557600080fd5b815181811115610a3757610a37610949565b8060051b604051601f19603f83011681018181108582111715610a5c57610a5c610949565b604052918252848201925083810185019188831115610a7a57600080fd5b938501935b82851015610a9857845184529385019392850192610a7f565b98975050505050505050565b600060208284031215610ab657600080fd5b815161070981610822565b600060208284031215610ad357600080fd5b5051919050565b6000825160005b81811015610afb5760208186018101518583015201610ae1565b506000920191825250919050565b600060208284031215610b1b57600080fd5b8151801515811461070957600080fd5b634e487b7160e01b600052601160045260246000fd5b818103818111156105ed576105ed610b2b565b808201808211156105ed576105ed610b2b565b6020808252602b908201527f496e697469616c697a61626c653a20636f6e7472616374206973206e6f74206960408201526a6e697469616c697a696e6760a81b60608201526080019056fea2646970667358221220a3244e89b1413dbe4cbaed19b21266c66832b4fc773936cccacb245dd2a86aa864736f6c63430008110033",
    "immutableReferences": {},
    "source": "// SPDX-License-Identifier: MIT\npragma solidity 0.8.17;\n\nimport \"@openzeppelin/contracts-upgradeable/access/OwnableUpgradeable.sol\";\nimport \"@openzeppelin/contracts-upgradeable/utils/math/SafeMathUpgradeable.sol\";\n\nimport \"../../main/interfaces/IERC3156FlashBorrower.sol\";\nimport \"../../main/interfaces/IStableSwapModule.sol\";\nimport \"../../main/interfaces/IStablecoinAdapter.sol\";\nimport \"../../main/utils/SafeToken.sol\";\nimport \"../../main/price-oracles/lib/IFathomSwapRouter.sol\";\n\ncontract FlashMintArbitrager is OwnableUpgradeable, IERC3156FlashBorrower {\n    using SafeMathUpgradeable for uint256;\n    using SafeToken for address;\n\n    function initialize() external initializer {\n        OwnableUpgradeable.__Ownable_init();\n    }\n\n    function onFlashLoan(address initiator, address token, uint256 amount, uint256 fee, bytes calldata data) external override returns (bytes32) {\n        (address router, address stableSwapToken, address stableSwapModule) = abi.decode(data, (address, address, address));\n        address[] memory path = new address[](2);\n        path[0] = token;\n        path[1] = stableSwapToken;\n\n        // 1. Swap AUSD to BUSD at a DEX\n        uint256 balanceBefore = stableSwapToken.myBalance();\n        token.safeApprove(router, type(uint).max);\n        IFathomSwapRouter(router).swapExactTokensForTokens(amount, 0, path, address(this), block.timestamp);\n        token.safeApprove(router, 0);\n        uint256 balanceAfter = stableSwapToken.myBalance();\n\n        // 2. Swap BUSD to AUSD at StableSwapModule\n        stableSwapToken.safeApprove(address(IStableSwapModule(stableSwapModule).authTokenAdapter()), type(uint).max);\n        IStableSwapModule(stableSwapModule).swapTokenToStablecoin(address(this), balanceAfter.sub(balanceBefore));\n        stableSwapToken.safeApprove(address(IStableSwapModule(stableSwapModule).authTokenAdapter()), 0);\n\n        // 3. Approve AUSD for FlashMintModule\n        token.safeApprove(msg.sender, amount.add(fee));\n\n        return keccak256(\"ERC3156FlashBorrower.onFlashLoan\");\n    }\n}\n",
    "sourcePath": "/Users/vitaliikoval/dev/fathom-stablecoin-smart-contracts/contracts/tests/mocks/FlashMintArbitrager.sol",
    "compiler": {
        "name": "solc",
        "version": "0.8.17+commit.8df45f5f.Emscripten.clang"
    },
    "schemaVersion": "3.4.10",
    "updatedAt": "2023-01-02T07:05:53.763Z",
    "devdoc": {
        "kind": "dev",
        "methods": {
            "onFlashLoan(address,address,uint256,uint256,bytes)": {
                "details": "Receive a flash loan.",
                "params": {
                    "amount": "The amount of tokens lent.",
                    "data": "Arbitrary data structure, intended to contain user-defined parameters.",
                    "fee": "The additional amount of tokens to repay.",
                    "initiator": "The initiator of the loan.",
                    "token": "The loan currency."
                },
                "returns": {
                    "_0": "The keccak256 hash of \"ERC3156FlashBorrower.onFlashLoan\""
                }
            },
            "owner()": {
                "details": "Returns the address of the current owner."
            },
            "renounceOwnership()": {
                "details": "Leaves the contract without owner. It will not be possible to call `onlyOwner` functions anymore. Can only be called by the current owner. NOTE: Renouncing ownership will leave the contract without an owner, thereby removing any functionality that is only available to the owner."
            },
            "transferOwnership(address)": {
                "details": "Transfers ownership of the contract to a new account (`newOwner`). Can only be called by the current owner."
            }
        },
        "version": 1
    },
    "userdoc": {
        "kind": "user",
        "methods": {},
        "version": 1
    }
}