{
    "contractName": "LiquidationEngine",
    "abi": [
        {
            "anonymous": false,
            "inputs": [
                {
                    "indexed": false,
                    "internalType": "uint8",
                    "name": "version",
                    "type": "uint8"
                }
            ],
            "name": "Initialized",
            "type": "event"
        },
        {
            "anonymous": false,
            "inputs": [],
            "name": "LogCage",
            "type": "event"
        },
        {
            "anonymous": false,
            "inputs": [],
            "name": "LogUncage",
            "type": "event"
        },
        {
            "anonymous": false,
            "inputs": [
                {
                    "indexed": false,
                    "internalType": "address",
                    "name": "account",
                    "type": "address"
                }
            ],
            "name": "Paused",
            "type": "event"
        },
        {
            "anonymous": false,
            "inputs": [
                {
                    "indexed": false,
                    "internalType": "address",
                    "name": "account",
                    "type": "address"
                }
            ],
            "name": "Unpaused",
            "type": "event"
        },
        {
            "inputs": [],
            "name": "bookKeeper",
            "outputs": [
                {
                    "internalType": "contract IBookKeeper",
                    "name": "",
                    "type": "address"
                }
            ],
            "stateMutability": "view",
            "type": "function"
        },
        {
            "inputs": [
                {
                    "internalType": "address",
                    "name": "",
                    "type": "address"
                }
            ],
            "name": "liquidatorsWhitelist",
            "outputs": [
                {
                    "internalType": "uint256",
                    "name": "",
                    "type": "uint256"
                }
            ],
            "stateMutability": "view",
            "type": "function"
        },
        {
            "inputs": [],
            "name": "live",
            "outputs": [
                {
                    "internalType": "uint256",
                    "name": "",
                    "type": "uint256"
                }
            ],
            "stateMutability": "view",
            "type": "function"
        },
        {
            "inputs": [],
            "name": "paused",
            "outputs": [
                {
                    "internalType": "bool",
                    "name": "",
                    "type": "bool"
                }
            ],
            "stateMutability": "view",
            "type": "function"
        },
        {
            "inputs": [],
            "name": "priceOracle",
            "outputs": [
                {
                    "internalType": "address",
                    "name": "",
                    "type": "address"
                }
            ],
            "stateMutability": "view",
            "type": "function"
        },
        {
            "inputs": [],
            "name": "systemDebtEngine",
            "outputs": [
                {
                    "internalType": "contract ISystemDebtEngine",
                    "name": "",
                    "type": "address"
                }
            ],
            "stateMutability": "view",
            "type": "function"
        },
        {
            "inputs": [
                {
                    "internalType": "address",
                    "name": "_bookKeeper",
                    "type": "address"
                },
                {
                    "internalType": "address",
                    "name": "_systemDebtEngine",
                    "type": "address"
                },
                {
                    "internalType": "address",
                    "name": "_priceOracle",
                    "type": "address"
                }
            ],
            "name": "initialize",
            "outputs": [],
            "stateMutability": "nonpayable",
            "type": "function"
        },
        {
            "inputs": [
                {
                    "internalType": "address",
                    "name": "toBeWhitelisted",
                    "type": "address"
                }
            ],
            "name": "whitelist",
            "outputs": [],
            "stateMutability": "nonpayable",
            "type": "function"
        },
        {
            "inputs": [
                {
                    "internalType": "address",
                    "name": "toBeRemoved",
                    "type": "address"
                }
            ],
            "name": "blacklist",
            "outputs": [],
            "stateMutability": "nonpayable",
            "type": "function"
        },
        {
            "inputs": [
                {
                    "internalType": "bytes32[]",
                    "name": "_collateralPoolIds",
                    "type": "bytes32[]"
                },
                {
                    "internalType": "address[]",
                    "name": "_positionAddresses",
                    "type": "address[]"
                },
                {
                    "internalType": "uint256[]",
                    "name": "_debtShareToBeLiquidateds",
                    "type": "uint256[]"
                },
                {
                    "internalType": "uint256[]",
                    "name": "_maxDebtShareToBeLiquidateds",
                    "type": "uint256[]"
                },
                {
                    "internalType": "address[]",
                    "name": "_collateralRecipients",
                    "type": "address[]"
                },
                {
                    "internalType": "bytes[]",
                    "name": "datas",
                    "type": "bytes[]"
                }
            ],
            "name": "batchLiquidate",
            "outputs": [],
            "stateMutability": "nonpayable",
            "type": "function"
        },
        {
            "inputs": [
                {
                    "internalType": "bytes32",
                    "name": "_collateralPoolId",
                    "type": "bytes32"
                },
                {
                    "internalType": "address",
                    "name": "_positionAddress",
                    "type": "address"
                },
                {
                    "internalType": "uint256",
                    "name": "_debtShareToBeLiquidated",
                    "type": "uint256"
                },
                {
                    "internalType": "uint256",
                    "name": "_maxDebtShareToBeLiquidated",
                    "type": "uint256"
                },
                {
                    "internalType": "address",
                    "name": "_collateralRecipient",
                    "type": "address"
                },
                {
                    "internalType": "bytes",
                    "name": "_data",
                    "type": "bytes"
                }
            ],
            "name": "liquidate",
            "outputs": [],
            "stateMutability": "nonpayable",
            "type": "function"
        },
        {
            "inputs": [
                {
                    "internalType": "bytes32",
                    "name": "_collateralPoolId",
                    "type": "bytes32"
                },
                {
                    "internalType": "address",
                    "name": "_positionAddress",
                    "type": "address"
                },
                {
                    "internalType": "uint256",
                    "name": "_debtShareToBeLiquidated",
                    "type": "uint256"
                },
                {
                    "internalType": "uint256",
                    "name": "_maxDebtShareToBeLiquidated",
                    "type": "uint256"
                },
                {
                    "internalType": "address",
                    "name": "_collateralRecipient",
                    "type": "address"
                },
                {
                    "internalType": "bytes",
                    "name": "_data",
                    "type": "bytes"
                },
                {
                    "internalType": "address",
                    "name": "sender",
                    "type": "address"
                }
            ],
            "name": "liquidate",
            "outputs": [],
            "stateMutability": "nonpayable",
            "type": "function"
        },
        {
            "inputs": [
                {
                    "internalType": "address",
                    "name": "_priceOracle",
                    "type": "address"
                }
            ],
            "name": "setPriceOracle",
            "outputs": [],
            "stateMutability": "nonpayable",
            "type": "function"
        },
        {
            "inputs": [],
            "name": "cage",
            "outputs": [],
            "stateMutability": "nonpayable",
            "type": "function"
        },
        {
            "inputs": [],
            "name": "uncage",
            "outputs": [],
            "stateMutability": "nonpayable",
            "type": "function"
        },
        {
            "inputs": [],
            "name": "pause",
            "outputs": [],
            "stateMutability": "nonpayable",
            "type": "function"
        },
        {
            "inputs": [],
            "name": "unpause",
            "outputs": [],
            "stateMutability": "nonpayable",
            "type": "function"
        }
    ],
    "bytecode": "0x608060405234801561001057600080fd5b50612bd8806100206000396000f3fe608060405234801561001057600080fd5b506004361061010b5760003560e01c80638456cb59116100a2578063c23fdbc711610071578063c23fdbc7146101f9578063d63b23b214610219578063da20cd4514610221578063e3b3932a14610234578063f9f92be41461024757600080fd5b80638456cb59146101b4578063957aa58c146101bc5780639b19251a146101d3578063c0c53b8b146101e657600080fd5b8063530e784f116100de578063530e784f146101705780635c975abb14610183578063692450091461019957806369a5038a146101a157600080fd5b80631ebce593146101105780632630c12f1461012557806328e49a42146101555780633f4ba83a14610168575b600080fd5b61012361011e3660046124e8565b61025a565b005b609754610138906001600160a01b031681565b6040516001600160a01b0390911681526020015b60405180910390f35b609954610138906001600160a01b031681565b6101236102df565b61012361017e36600461256e565b61052a565b60335460ff16604051901515815260200161014c565b610123610811565b6101236101af3660046125d7565b610aa4565b610123610c46565b6101c5609a5481565b60405190815260200161014c565b6101236101e136600461256e565b610e8e565b6101236101f436600461271a565b6110ec565b6101c561020736600461256e565b609b6020526000908152604090205481565b61012361132c565b61012361022f366004612765565b6115ed565b609854610138906001600160a01b031681565b61012361025536600461256e565b61166a565b6002606554036102855760405162461bcd60e51b815260040161027c906127fe565b60405180910390fd5b60026065556102926118c5565b336000908152609b60205260409020546001146102c15760405162461bcd60e51b815260040161027c90612835565b6102d1878787878787873361190d565b505060016065555050505050565b6098546040805163c8cc243f60e01b815290516000926001600160a01b03169163c8cc243f9160048083019260209291908290030181865afa158015610329573d6000803e3d6000fd5b505050506040513d601f19601f8201168201806040525081019061034d9190612881565b9050806001600160a01b03166391d14854826001600160a01b031663e58378bb6040518163ffffffff1660e01b8152600401602060405180830381865afa15801561039c573d6000803e3d6000fd5b505050506040513d601f19601f820116820180604052508101906103c0919061289e565b6040516001600160e01b031960e084901b1681526004810191909152336024820152604401602060405180830381865afa158015610402573d6000803e3d6000fd5b505050506040513d601f19601f8201168201806040525081019061042691906128b7565b806105035750806001600160a01b03166391d14854826001600160a01b031663b536818a6040518163ffffffff1660e01b8152600401602060405180830381865afa158015610479573d6000803e3d6000fd5b505050506040513d601f19601f8201168201806040525081019061049d919061289e565b6040516001600160e01b031960e084901b1681526004810191909152336024820152604401602060405180830381865afa1580156104df573d6000803e3d6000fd5b505050506040513d601f19601f8201168201806040525081019061050391906128b7565b61051f5760405162461bcd60e51b815260040161027c906128d9565b6105276122d2565b50565b6098546040805163c8cc243f60e01b815290516000926001600160a01b03169163c8cc243f9160048083019260209291908290030181865afa158015610574573d6000803e3d6000fd5b505050506040513d601f19601f820116820180604052508101906105989190612881565b9050806001600160a01b03166391d14854826001600160a01b031663e58378bb6040518163ffffffff1660e01b8152600401602060405180830381865afa1580156105e7573d6000803e3d6000fd5b505050506040513d601f19601f8201168201806040525081019061060b919061289e565b6040516001600160e01b031960e084901b1681526004810191909152336024820152604401602060405180830381865afa15801561064d573d6000803e3d6000fd5b505050506040513d601f19601f8201168201806040525081019061067191906128b7565b8061074e5750806001600160a01b03166391d14854826001600160a01b031663d7a47a696040518163ffffffff1660e01b8152600401602060405180830381865afa1580156106c4573d6000803e3d6000fd5b505050506040513d601f19601f820116820180604052508101906106e8919061289e565b6040516001600160e01b031960e084901b1681526004810191909152336024820152604401602060405180830381865afa15801561072a573d6000803e3d6000fd5b505050506040513d601f19601f8201168201806040525081019061074e91906128b7565b61076a5760405162461bcd60e51b815260040161027c90612910565b6001600160a01b0382166107cc5760405162461bcd60e51b815260206004820152602360248201527f5f70726963654f7261636c652063616e6e6f74206265207a65726f206164647260448201526265737360e81b606482015260840161027c565b609a546001146107ee5760405162461bcd60e51b815260040161027c90612947565b50609780546001600160a01b0319166001600160a01b0392909216919091179055565b6098546040805163c8cc243f60e01b815290516000926001600160a01b03169163c8cc243f9160048083019260209291908290030181865afa15801561085b573d6000803e3d6000fd5b505050506040513d601f19601f8201168201806040525081019061087f9190612881565b9050806001600160a01b03166391d14854826001600160a01b031663e58378bb6040518163ffffffff1660e01b8152600401602060405180830381865afa1580156108ce573d6000803e3d6000fd5b505050506040513d601f19601f820116820180604052508101906108f2919061289e565b6040516001600160e01b031960e084901b1681526004810191909152336024820152604401602060405180830381865afa158015610934573d6000803e3d6000fd5b505050506040513d601f19601f8201168201806040525081019061095891906128b7565b80610a355750806001600160a01b03166391d14854826001600160a01b031663d7a47a696040518163ffffffff1660e01b8152600401602060405180830381865afa1580156109ab573d6000803e3d6000fd5b505050506040513d601f19601f820116820180604052508101906109cf919061289e565b6040516001600160e01b031960e084901b1681526004810191909152336024820152604401602060405180830381865afa158015610a11573d6000803e3d6000fd5b505050506040513d601f19601f82011682018060405250810190610a3591906128b7565b610a515760405162461bcd60e51b815260040161027c90612910565b609a54600114610a735760405162461bcd60e51b815260040161027c90612947565b6000609a8190556040517fbf689b4aae670d200b1d2b971ace2e0c3bef88a9c5e93f36705c7b86eab630b99190a150565b600260655403610ac65760405162461bcd60e51b815260040161027c906127fe565b6002606555610ad36118c5565b336000908152609b6020526040902054600114610b025760405162461bcd60e51b815260040161027c90612835565b60005b8b811015610c32573063da20cd458e8e84818110610b2557610b2561297e565b905060200201358d8d85818110610b3e57610b3e61297e565b9050602002016020810190610b53919061256e565b8c8c86818110610b6557610b6561297e565b905060200201358b8b87818110610b7e57610b7e61297e565b905060200201358a8a88818110610b9757610b9761297e565b9050602002016020810190610bac919061256e565b898989818110610bbe57610bbe61297e565b9050602002810190610bd09190612994565b336040518963ffffffff1660e01b8152600401610bf4989796959493929190612a04565b600060405180830381600087803b158015610c0e57600080fd5b505af1925050508015610c1f575060015b5080610c2a81612a6f565b915050610b05565b505060016065555050505050505050505050565b6098546040805163c8cc243f60e01b815290516000926001600160a01b03169163c8cc243f9160048083019260209291908290030181865afa158015610c90573d6000803e3d6000fd5b505050506040513d601f19601f82011682018060405250810190610cb49190612881565b9050806001600160a01b03166391d14854826001600160a01b031663e58378bb6040518163ffffffff1660e01b8152600401602060405180830381865afa158015610d03573d6000803e3d6000fd5b505050506040513d601f19601f82011682018060405250810190610d27919061289e565b6040516001600160e01b031960e084901b1681526004810191909152336024820152604401602060405180830381865afa158015610d69573d6000803e3d6000fd5b505050506040513d601f19601f82011682018060405250810190610d8d91906128b7565b80610e6a5750806001600160a01b03166391d14854826001600160a01b031663b536818a6040518163ffffffff1660e01b8152600401602060405180830381865afa158015610de0573d6000803e3d6000fd5b505050506040513d601f19601f82011682018060405250810190610e04919061289e565b6040516001600160e01b031960e084901b1681526004810191909152336024820152604401602060405180830381865afa158015610e46573d6000803e3d6000fd5b505050506040513d601f19601f82011682018060405250810190610e6a91906128b7565b610e865760405162461bcd60e51b815260040161027c906128d9565b610527612324565b6098546040805163c8cc243f60e01b815290516000926001600160a01b03169163c8cc243f9160048083019260209291908290030181865afa158015610ed8573d6000803e3d6000fd5b505050506040513d601f19601f82011682018060405250810190610efc9190612881565b9050806001600160a01b03166391d14854826001600160a01b031663e58378bb6040518163ffffffff1660e01b8152600401602060405180830381865afa158015610f4b573d6000803e3d6000fd5b505050506040513d601f19601f82011682018060405250810190610f6f919061289e565b6040516001600160e01b031960e084901b1681526004810191909152336024820152604401602060405180830381865afa158015610fb1573d6000803e3d6000fd5b505050506040513d601f19601f82011682018060405250810190610fd591906128b7565b806110b25750806001600160a01b03166391d14854826001600160a01b031663b536818a6040518163ffffffff1660e01b8152600401602060405180830381865afa158015611028573d6000803e3d6000fd5b505050506040513d601f19601f8201168201806040525081019061104c919061289e565b6040516001600160e01b031960e084901b1681526004810191909152336024820152604401602060405180830381865afa15801561108e573d6000803e3d6000fd5b505050506040513d601f19601f820116820180604052508101906110b291906128b7565b6110ce5760405162461bcd60e51b815260040161027c906128d9565b506001600160a01b03166000908152609b6020526040902060019055565b600054610100900460ff161580801561110c5750600054600160ff909116105b806111265750303b158015611126575060005460ff166001145b6111895760405162461bcd60e51b815260206004820152602e60248201527f496e697469616c697a61626c653a20636f6e747261637420697320616c72656160448201526d191e481a5b9a5d1a585b1a5e995960921b606482015260840161027c565b6000805460ff1916600117905580156111ac576000805461ff0019166101001790555b6111b4612361565b6111bc612390565b836001600160a01b0316636f3a3bfc6040518163ffffffff1660e01b81526004016020604051808303816000875af11580156111fc573d6000803e3d6000fd5b505050506040513d601f19601f82011682018060405250810190611220919061289e565b5083609860006101000a8154816001600160a01b0302191690836001600160a01b03160217905550826001600160a01b0316632a608d5b6040518163ffffffff1660e01b8152600401602060405180830381865afa158015611286573d6000803e3d6000fd5b505050506040513d601f19601f820116820180604052508101906112aa919061289e565b50609980546001600160a01b038086166001600160a01b03199283161790925560978054928516929091169190911790556001609a558015611326576000805461ff0019169055604051600181527f7f26b83ff96e1f2b6a682f133852f6798a09c465da95921460cefb38474024989060200160405180910390a15b50505050565b6098546040805163c8cc243f60e01b815290516000926001600160a01b03169163c8cc243f9160048083019260209291908290030181865afa158015611376573d6000803e3d6000fd5b505050506040513d601f19601f8201168201806040525081019061139a9190612881565b9050806001600160a01b03166391d14854826001600160a01b031663e58378bb6040518163ffffffff1660e01b8152600401602060405180830381865afa1580156113e9573d6000803e3d6000fd5b505050506040513d601f19601f8201168201806040525081019061140d919061289e565b6040516001600160e01b031960e084901b1681526004810191909152336024820152604401602060405180830381865afa15801561144f573d6000803e3d6000fd5b505050506040513d601f19601f8201168201806040525081019061147391906128b7565b806115505750806001600160a01b03166391d14854826001600160a01b031663d7a47a696040518163ffffffff1660e01b8152600401602060405180830381865afa1580156114c6573d6000803e3d6000fd5b505050506040513d601f19601f820116820180604052508101906114ea919061289e565b6040516001600160e01b031960e084901b1681526004810191909152336024820152604401602060405180830381865afa15801561152c573d6000803e3d6000fd5b505050506040513d601f19601f8201168201806040525081019061155091906128b7565b61156c5760405162461bcd60e51b815260040161027c90612910565b609a54156115bc5760405162461bcd60e51b815260206004820152601b60248201527f4c69717569646174696f6e456e67696e652f6e6f742d63616765640000000000604482015260640161027c565b6001609a556040517f1868a6ced217213f36be87ba9aee25cde5381b42e85c8f88e73b18772c0bd07390600090a150565b60026065540361160f5760405162461bcd60e51b815260040161027c906127fe565b600260655561161c6118c5565b336000908152609b602052604090205460011461164b5760405162461bcd60e51b815260040161027c90612835565b61165b888888888888888861190d565b50506001606555505050505050565b6098546040805163c8cc243f60e01b815290516000926001600160a01b03169163c8cc243f9160048083019260209291908290030181865afa1580156116b4573d6000803e3d6000fd5b505050506040513d601f19601f820116820180604052508101906116d89190612881565b9050806001600160a01b03166391d14854826001600160a01b031663e58378bb6040518163ffffffff1660e01b8152600401602060405180830381865afa158015611727573d6000803e3d6000fd5b505050506040513d601f19601f8201168201806040525081019061174b919061289e565b6040516001600160e01b031960e084901b1681526004810191909152336024820152604401602060405180830381865afa15801561178d573d6000803e3d6000fd5b505050506040513d601f19601f820116820180604052508101906117b191906128b7565b8061188e5750806001600160a01b03166391d14854826001600160a01b031663b536818a6040518163ffffffff1660e01b8152600401602060405180830381865afa158015611804573d6000803e3d6000fd5b505050506040513d601f19601f82011682018060405250810190611828919061289e565b6040516001600160e01b031960e084901b1681526004810191909152336024820152604401602060405180830381865afa15801561186a573d6000803e3d6000fd5b505050506040513d601f19601f8201168201806040525081019061188e91906128b7565b6118aa5760405162461bcd60e51b815260040161027c906128d9565b506001600160a01b03166000908152609b6020526040812055565b60335460ff161561190b5760405162461bcd60e51b815260206004820152601060248201526f14185d5cd8589b194e881c185d5cd95960821b604482015260640161027c565b565b60975460405163285da53b60e01b8152600481018a90526001600160a01b039091169063285da53b90602401600060405180830381600087803b15801561195357600080fd5b505af1158015611967573d6000803e3d6000fd5b50505050609a5460011461198d5760405162461bcd60e51b815260040161027c90612947565b856000036119f85760405162461bcd60e51b815260206004820152603260248201527f4c69717569646174696f6e456e67696e652f7a65726f2d646562742d76616c75604482015271194b5d1bcb58994b5b1a5c5d5a59185d195960721b606482015260840161027c565b84600003611a675760405162461bcd60e51b815260206004820152603660248201527f4c69717569646174696f6e456e67696e652f7a65726f2d6d61782d646562742d6044820152751d985b1d594b5d1bcb58994b5b1a5c5d5a59185d195960521b606482015260840161027c565b611aa06040518060c001604052806000815260200160008152602001600081526020016000815260200160008152602001600081525090565b609854604051630a76216560e21b8152600481018b90526001600160a01b038a81166024830152909116906329d88594906044016040805180830381865afa158015611af0573d6000803e3d6000fd5b505050506040513d601f19601f82011682018060405250810190611b149190612a88565b60208381019190915290825260408051606081018252600080825281840181905281830152609854825163d868246160e01b8152925191936001600160a01b039091169263d868246192600480830193928290030181865afa158015611b7e573d6000803e3d6000fd5b505050506040513d601f19601f82011682018060405250810190611ba29190612881565b6001600160a01b03166328c84bbd8b6040518263ffffffff1660e01b8152600401611bcf91815260200190565b602060405180830381865afa158015611bec573d6000803e3d6000fd5b505050506040513d601f19601f82011682018060405250810190611c109190612881565b6001600160a01b0390811682526098546040805163d868246160e01b81529051919092169163d86824619160048083019260209291908290030181865afa158015611c5f573d6000803e3d6000fd5b505050506040513d601f19601f82011682018060405250810190611c839190612881565b6001600160a01b0316638c492d078b6040518263ffffffff1660e01b8152600401611cb091815260200190565b602060405180830381865afa158015611ccd573d6000803e3d6000fd5b505050506040513d601f19601f82011682018060405250810190611cf1919061289e565b6020808301919091526098546040805163d868246160e01b815290516001600160a01b039092169263d8682461926004808401938290030181865afa158015611d3e573d6000803e3d6000fd5b505050506040513d601f19601f82011682018060405250810190611d629190612881565b6001600160a01b031663a09b0fe08b6040518263ffffffff1660e01b8152600401611d8f91815260200190565b602060405180830381865afa158015611dac573d6000803e3d6000fd5b505050506040513d601f19601f82011682018060405250810190611dd0919061289e565b604082015280516001600160a01b038116611e385760405162461bcd60e51b815260206004820152602260248201527f4c69717569646174696f6e456e67696e652f6e6f742d7365742d737472617465604482015261677960f01b606482015260840161027c565b60008260200151118015611e6c575060408201516020840151611e5a916123bf565b60208301518451611e6a916123bf565b105b611ec35760405162461bcd60e51b815260206004820152602260248201527f4c69717569646174696f6e456e67696e652f706f736974696f6e2d69732d7361604482015261666560f01b606482015260840161027c565b60985460995460405163b4ac08bb60e01b81526001600160a01b03918216600482015291169063b4ac08bb90602401602060405180830381865afa158015611f0f573d6000803e3d6000fd5b505050506040513d601f19601f82011682018060405250810190611f33919061289e565b836040018181525050806001600160a01b03166316d8d2918c856020015186600001518e8e8e8b8f8f8f6040518b63ffffffff1660e01b8152600401611f829a99989796959493929190612aac565b600060405180830381600087803b158015611f9c57600080fd5b505af1158015611fb0573d6000803e3d6000fd5b5050609854604051630a76216560e21b8152600481018f90526001600160a01b038e8116602483015290911692506329d8859491506044016040805180830381865afa158015612004573d6000803e3d6000fd5b505050506040513d601f19601f820116820180604052508101906120289190612a88565b6080850181905260608501919091526020840151116120975760405162461bcd60e51b815260206004820152602560248201527f4c69717569646174696f6e456e67696e652f646562742d6e6f742d6c6971756960448201526419185d195960da1b606482015260840161027c565b6120c082604001516120ba856080015186602001516123d490919063ffffffff16565b906123bf565b60a08401819052604080850151609854609954925163b4ac08bb60e01b81526001600160a01b039384166004820152612147939091169063b4ac08bb90602401602060405180830381865afa15801561211d573d6000803e3d6000fd5b505050506040513d601f19601f82011682018060405250810190612141919061289e565b906123d4565b10156121a45760405162461bcd60e51b815260206004820152602660248201527f4c69717569646174696f6e456e67696e652f7061796d656e742d6e6f742d726560448201526518d95a5d995960d21b606482015260840161027c565b60608301511580156121ba575060008360800151115b156122c557600160ff1b8360800151106122165760405162461bcd60e51b815260206004820152601a60248201527f4c69717569646174696f6e456e67696e652f6f766572666c6f77000000000000604482015260640161027c565b60985460995460808501516001600160a01b039283169263b1df2594928f928f928392169060009061224790612b11565b6040516001600160e01b031960e089901b16815260048101969096526001600160a01b039485166024870152928416604486015292166064840152608483019190915260a482015260c401600060405180830381600087803b1580156122ac57600080fd5b505af11580156122c0573d6000803e3d6000fd5b505050505b5050505050505050505050565b6122da6123e0565b6033805460ff191690557f5db9ee0a495bf2e6ff9c91a7834c1ba4fdd244a5e8aa4e537bd38aeae4b073aa335b6040516001600160a01b03909116815260200160405180910390a1565b61232c6118c5565b6033805460ff191660011790557f62e78cea01bee320cd4e420270b5ea74000d11b0c9f74754ebdbfc544b05a2586123073390565b600054610100900460ff166123885760405162461bcd60e51b815260040161027c90612b2d565b61190b612429565b600054610100900460ff166123b75760405162461bcd60e51b815260040161027c90612b2d565b61190b61245c565b60006123cb8284612b78565b90505b92915050565b60006123cb8284612b8f565b60335460ff1661190b5760405162461bcd60e51b815260206004820152601460248201527314185d5cd8589b194e881b9bdd081c185d5cd95960621b604482015260640161027c565b600054610100900460ff166124505760405162461bcd60e51b815260040161027c90612b2d565b6033805460ff19169055565b600054610100900460ff166124835760405162461bcd60e51b815260040161027c90612b2d565b6001606555565b6001600160a01b038116811461052757600080fd5b60008083601f8401126124b157600080fd5b50813567ffffffffffffffff8111156124c957600080fd5b6020830191508360208285010111156124e157600080fd5b9250929050565b600080600080600080600060c0888a03121561250357600080fd5b8735965060208801356125158161248a565b9550604088013594506060880135935060808801356125338161248a565b925060a088013567ffffffffffffffff81111561254f57600080fd5b61255b8a828b0161249f565b989b979a50959850939692959293505050565b60006020828403121561258057600080fd5b813561258b8161248a565b9392505050565b60008083601f8401126125a457600080fd5b50813567ffffffffffffffff8111156125bc57600080fd5b6020830191508360208260051b85010111156124e157600080fd5b60008060008060008060008060008060008060c08d8f0312156125f957600080fd5b67ffffffffffffffff8d35111561260f57600080fd5b61261c8e8e358f01612592565b909c509a5067ffffffffffffffff60208e0135111561263a57600080fd5b61264a8e60208f01358f01612592565b909a50985067ffffffffffffffff60408e0135111561266857600080fd5b6126788e60408f01358f01612592565b909850965067ffffffffffffffff60608e0135111561269657600080fd5b6126a68e60608f01358f01612592565b909650945067ffffffffffffffff60808e013511156126c457600080fd5b6126d48e60808f01358f01612592565b909450925067ffffffffffffffff60a08e013511156126f257600080fd5b6127028e60a08f01358f01612592565b81935080925050509295989b509295989b509295989b565b60008060006060848603121561272f57600080fd5b833561273a8161248a565b9250602084013561274a8161248a565b9150604084013561275a8161248a565b809150509250925092565b60008060008060008060008060e0898b03121561278157600080fd5b8835975060208901356127938161248a565b9650604089013595506060890135945060808901356127b18161248a565b935060a089013567ffffffffffffffff8111156127cd57600080fd5b6127d98b828c0161249f565b90945092505060c08901356127ed8161248a565b809150509295985092959890939650565b6020808252601f908201527f5265656e7472616e637947756172643a207265656e7472616e742063616c6c00604082015260600190565b6020808252602c908201527f4c69717569646174696f6e456e67696e652f6c697175696461746f722d6e6f7460408201526b0b5dda1a5d195b1a5cdd195960a21b606082015260800190565b60006020828403121561289357600080fd5b815161258b8161248a565b6000602082840312156128b057600080fd5b5051919050565b6000602082840312156128c957600080fd5b8151801515811461258b57600080fd5b60208082526017908201527f21286f776e6572526f6c65206f7220676f76526f6c6529000000000000000000604082015260600190565b6020808252601f908201527f21286f776e6572526f6c65206f722073686f7753746f70706572526f6c652900604082015260600190565b6020808252601a908201527f4c69717569646174696f6e456e67696e652f6e6f742d6c697665000000000000604082015260600190565b634e487b7160e01b600052603260045260246000fd5b6000808335601e198436030181126129ab57600080fd5b83018035915067ffffffffffffffff8211156129c657600080fd5b6020019150368190038213156124e157600080fd5b81835281816020850137506000828201602090810191909152601f909101601f19169091010190565b888152600060018060a01b03808a166020840152886040840152876060840152808716608084015260e060a0840152612a4160e0840186886129db565b915080841660c0840152509998505050505050505050565b634e487b7160e01b600052601160045260246000fd5b600060018201612a8157612a81612a59565b5060010190565b60008060408385031215612a9b57600080fd5b505080516020909101519092909150565b60006101208c83528b60208401528a604084015260018060a01b03808b1660608501528960808501528860a085015280881660c085015280871660e08501525080610100840152612b0081840185876129db565b9d9c50505050505050505050505050565b6000600160ff1b8201612b2657612b26612a59565b5060000390565b6020808252602b908201527f496e697469616c697a61626c653a20636f6e7472616374206973206e6f74206960408201526a6e697469616c697a696e6760a81b606082015260800190565b80820281158282048414176123ce576123ce612a59565b818103818111156123ce576123ce612a5956fea2646970667358221220153c9e42e3b74855c4c97b7ffae4ac0e8dc163e4ef1e012317cd0270b8d7811464736f6c63430008110033",
    "immutableReferences": {},
    "source": "// SPDX-License-Identifier: AGPL-3.0-or-later\n\npragma solidity 0.8.17;\npragma experimental ABIEncoderV2;\n\nimport \"@openzeppelin/contracts-upgradeable/security/PausableUpgradeable.sol\";\nimport \"@openzeppelin/contracts-upgradeable/access/AccessControlUpgradeable.sol\";\nimport \"@openzeppelin/contracts-upgradeable/security/ReentrancyGuardUpgradeable.sol\";\nimport \"@openzeppelin/contracts-upgradeable/utils/math/SafeMathUpgradeable.sol\";\n\nimport \"../interfaces/IBookKeeper.sol\";\nimport \"../interfaces/ISystemDebtEngine.sol\";\nimport \"../interfaces/ILiquidationEngine.sol\";\nimport \"../interfaces/ILiquidationStrategy.sol\";\nimport \"../interfaces/ICagable.sol\";\nimport \"../interfaces/ISetPrice.sol\";\n\n/// @title LiquidationEngine\n/** @notice A contract which is the manager for all of the liquidations of the protocol.\n    LiquidationEngine will be the interface for the liquidator to trigger any positions into the liquidation process.\n*/\n\ncontract LiquidationEngine is PausableUpgradeable, ReentrancyGuardUpgradeable, ICagable, ILiquidationEngine {\n  using SafeMathUpgradeable for uint256;\n  address public priceOracle;\n\n  struct LocalVars {\n    uint256 positionLockedCollateral;\n    uint256 positionDebtShare;\n    uint256 systemDebtEngineStablecoinBefore;\n    uint256 newPositionLockedCollateral;\n    uint256 newPositionDebtShare;\n    uint256 wantStablecoinValueFromLiquidation;\n  }\n\n  struct CollateralPoolLocalVars {\n    address strategy;\n    uint256 priceWithSafetyMargin; // [ray]\n    uint256 debtAccumulatedRate; // [ray]\n  }\n\n  IBookKeeper public bookKeeper; // CDP Engine\n  ISystemDebtEngine public systemDebtEngine; // Debt Engine\n  uint256 public override live; // Active Flag\n  mapping(address => uint256) public liquidatorsWhitelist;\n\n  modifier onlyOwnerOrShowStopper() {\n    IAccessControlConfig _accessControlConfig = IAccessControlConfig(IBookKeeper(bookKeeper).accessControlConfig());\n    require(\n      _accessControlConfig.hasRole(_accessControlConfig.OWNER_ROLE(), msg.sender) ||\n        _accessControlConfig.hasRole(_accessControlConfig.SHOW_STOPPER_ROLE(), msg.sender),\n      \"!(ownerRole or showStopperRole)\"\n    );\n    _;\n  }\n\n  modifier onlyOwnerOrGov() {\n    IAccessControlConfig _accessControlConfig = IAccessControlConfig(IBookKeeper(bookKeeper).accessControlConfig());\n    require(\n      _accessControlConfig.hasRole(_accessControlConfig.OWNER_ROLE(), msg.sender) ||\n        _accessControlConfig.hasRole(_accessControlConfig.GOV_ROLE(), msg.sender),\n      \"!(ownerRole or govRole)\"\n    );\n    _;\n  }\n\n    modifier onlyWhitelisted() {\n    require(liquidatorsWhitelist[msg.sender] == 1, \"LiquidationEngine/liquidator-not-whitelisted\");\n    _;\n  }\n\n  // --- Init ---\n  function initialize(address _bookKeeper, address _systemDebtEngine, address _priceOracle) external initializer {\n    PausableUpgradeable.__Pausable_init();\n    ReentrancyGuardUpgradeable.__ReentrancyGuard_init();\n\n    IBookKeeper(_bookKeeper).totalStablecoinIssued(); // Sanity Check Call\n    bookKeeper = IBookKeeper(_bookKeeper);\n\n    ISystemDebtEngine(_systemDebtEngine).surplusBuffer(); // Sanity Check Call\n    systemDebtEngine = ISystemDebtEngine(_systemDebtEngine);\n\n    priceOracle = _priceOracle;\n\n    live = 1;\n  }\n\n  // --- Math ---\n  uint256 constant WAD = 10**18;\n\n  function whitelist(address toBeWhitelisted) external onlyOwnerOrGov {\n    liquidatorsWhitelist[toBeWhitelisted] = 1;\n  }\n\n  function blacklist(address toBeRemoved) external onlyOwnerOrGov {\n    liquidatorsWhitelist[toBeRemoved] = 0;\n  }\n\n  function batchLiquidate(\n    bytes32[] calldata _collateralPoolIds,\n    address[] calldata _positionAddresses,\n    uint256[] calldata _debtShareToBeLiquidateds, // [rad]\n    uint256[] calldata _maxDebtShareToBeLiquidateds, // [rad]\n    address[] calldata _collateralRecipients,\n    bytes[] calldata datas\n  ) external override nonReentrant whenNotPaused onlyWhitelisted {\n\n    for(uint i = 0; i < _collateralPoolIds.length; i++){\n        try this.liquidate(_collateralPoolIds[i], _positionAddresses[i],_debtShareToBeLiquidateds[i], _maxDebtShareToBeLiquidateds[i], _collateralRecipients[i], datas[i],msg.sender){\n        } \n        catch{\n            continue;\n        }\n    }\n  }\n\n  function liquidate(\n    bytes32 _collateralPoolId,\n    address _positionAddress,\n    uint256 _debtShareToBeLiquidated, // [rad]\n    uint256 _maxDebtShareToBeLiquidated, // [wad]\n    address _collateralRecipient,\n    bytes calldata _data,\n    address sender\n  ) external override nonReentrant whenNotPaused onlyWhitelisted {\n    _liquidate(_collateralPoolId, _positionAddress, _debtShareToBeLiquidated,_maxDebtShareToBeLiquidated, _collateralRecipient, _data,sender);\n  }\n\n\n  function liquidate(\n    bytes32 _collateralPoolId,\n    address _positionAddress,\n    uint256 _debtShareToBeLiquidated, // [rad]\n    uint256 _maxDebtShareToBeLiquidated, // [wad]\n    address _collateralRecipient,\n    bytes calldata _data\n  ) external override nonReentrant whenNotPaused onlyWhitelisted {\n    _liquidate(_collateralPoolId, _positionAddress, _debtShareToBeLiquidated,_maxDebtShareToBeLiquidated, _collateralRecipient, _data, msg.sender);\n  }\n\n  function _liquidate(\n    bytes32 _collateralPoolId,\n    address _positionAddress,\n    uint256 _debtShareToBeLiquidated, // [rad]\n    uint256 _maxDebtShareToBeLiquidated, // [wad]\n    address _collateralRecipient,\n    bytes calldata _data,\n    address sender\n  ) internal {\n\n    ISetPrice(priceOracle).setPrice(_collateralPoolId);\n\n    require(live == 1, \"LiquidationEngine/not-live\");\n    require(_debtShareToBeLiquidated != 0, \"LiquidationEngine/zero-debt-value-to-be-liquidated\");\n    require(_maxDebtShareToBeLiquidated != 0, \"LiquidationEngine/zero-max-debt-value-to-be-liquidated\");\n\n    LocalVars memory _vars;\n\n    (_vars.positionLockedCollateral, _vars.positionDebtShare) = bookKeeper.positions(\n      _collateralPoolId,\n      _positionAddress\n    );\n    // 1. Check if the position is underwater\n    CollateralPoolLocalVars memory _collateralPoolLocalVars;\n    _collateralPoolLocalVars.strategy = ICollateralPoolConfig(bookKeeper.collateralPoolConfig()).getStrategy(\n      _collateralPoolId\n    );\n    _collateralPoolLocalVars.priceWithSafetyMargin = ICollateralPoolConfig(bookKeeper.collateralPoolConfig())\n      .getPriceWithSafetyMargin(_collateralPoolId); // [ray]\n    _collateralPoolLocalVars.debtAccumulatedRate = ICollateralPoolConfig(bookKeeper.collateralPoolConfig())\n      .getDebtAccumulatedRate(_collateralPoolId); // [ray]\n\n    ILiquidationStrategy _strategy = ILiquidationStrategy(_collateralPoolLocalVars.strategy);\n    require(address(_strategy) != address(0), \"LiquidationEngine/not-set-strategy\");\n\n    // (positionLockedCollateral [wad] * priceWithSafetyMargin [ray]) [rad]\n    // (positionDebtShare [wad] * debtAccumulatedRate [ray]) [rad]\n    require(\n      _collateralPoolLocalVars.priceWithSafetyMargin > 0 &&\n        _vars.positionLockedCollateral.mul(_collateralPoolLocalVars.priceWithSafetyMargin) <\n        _vars.positionDebtShare.mul(_collateralPoolLocalVars.debtAccumulatedRate),\n      \"LiquidationEngine/position-is-safe\"\n    );\n\n    _vars.systemDebtEngineStablecoinBefore = bookKeeper.stablecoin(address(systemDebtEngine));\n\n    _strategy.execute(\n      _collateralPoolId,\n      _vars.positionDebtShare,\n      _vars.positionLockedCollateral,\n      _positionAddress,\n      _debtShareToBeLiquidated,\n      _maxDebtShareToBeLiquidated,\n      sender,\n      _collateralRecipient,\n      _data\n    );\n    (_vars.newPositionLockedCollateral, _vars.newPositionDebtShare) = bookKeeper.positions(\n      _collateralPoolId,\n      _positionAddress\n    );\n    require(_vars.newPositionDebtShare < _vars.positionDebtShare, \"LiquidationEngine/debt-not-liquidated\");\n\n    // (positionDebtShare [wad] - newPositionDebtShare [wad]) * debtAccumulatedRate [ray]\n\n    _vars.wantStablecoinValueFromLiquidation = _vars.positionDebtShare.sub(_vars.newPositionDebtShare).mul(\n      _collateralPoolLocalVars.debtAccumulatedRate\n    ); // [rad]\n    require(\n      bookKeeper.stablecoin(address(systemDebtEngine)).sub(_vars.systemDebtEngineStablecoinBefore) >=\n        _vars.wantStablecoinValueFromLiquidation,\n      \"LiquidationEngine/payment-not-received\"\n    );\n\n    // If collateral has been depleted from liquidation whilst there is remaining debt in the position\n    if (_vars.newPositionLockedCollateral == 0 && _vars.newPositionDebtShare > 0) {\n      // Overflow check\n      require(_vars.newPositionDebtShare < 2**255, \"LiquidationEngine/overflow\");\n      // Record the bad debt to the system and close the position\n      bookKeeper.confiscatePosition(\n        _collateralPoolId,\n        _positionAddress,\n        _positionAddress,\n        address(systemDebtEngine),\n        0,\n        -int256(_vars.newPositionDebtShare)\n      );\n    }\n  }\n\n  function setPriceOracle(address _priceOracle) external onlyOwnerOrShowStopper {\n    require(_priceOracle != address(0), \"_priceOracle cannot be zero address\");\n    require(live == 1, \"LiquidationEngine/not-live\");\n    priceOracle = _priceOracle;\n  }\n\n  /// @dev access: OWNER_ROLE, SHOW_STOPPER_ROLE\n  function cage() external override onlyOwnerOrShowStopper {\n    require(live == 1, \"LiquidationEngine/not-live\");\n    live = 0;\n    emit LogCage();\n  }\n\n  /// @dev access: OWNER_ROLE, SHOW_STOPPER_ROLE\n  function uncage() external override onlyOwnerOrShowStopper {\n    require(live == 0, \"LiquidationEngine/not-caged\");\n    live = 1;\n    emit LogUncage();\n  }\n\n  // --- pause ---\n  /// @dev access: OWNER_ROLE, GOV_ROLE\n  function pause() external onlyOwnerOrGov {\n    _pause();\n  }\n\n  /// @dev access: OWNER_ROLE, GOV_ROLE\n  function unpause() external onlyOwnerOrGov {\n    _unpause();\n  }\n}",
    "sourcePath": "/Users/tarun.sharma/Tarun/Projects/stablecoin/fathom-stablecoin-smartcontract/fathom-stablecoin-smart-contracts/contracts/8.17/stablecoin-core/LiquidationEngine.sol",
    "compiler": {
        "name": "solc",
        "version": "0.8.17+commit.8df45f5f.Emscripten.clang"
    },
    "schemaVersion": "3.4.10",
    "updatedAt": "2022-12-27T11:02:25.903Z",
    "devdoc": {
        "kind": "dev",
        "methods": {
            "cage()": {
                "details": "access: OWNER_ROLE, SHOW_STOPPER_ROLE"
            },
            "pause()": {
                "details": "access: OWNER_ROLE, GOV_ROLE"
            },
            "paused()": {
                "details": "Returns true if the contract is paused, and false otherwise."
            },
            "uncage()": {
                "details": "access: OWNER_ROLE, SHOW_STOPPER_ROLE"
            },
            "unpause()": {
                "details": "access: OWNER_ROLE, GOV_ROLE"
            }
        },
        "version": 1
    },
    "userdoc": {
        "kind": "user",
        "methods": {},
        "notice": "A contract which is the manager for all of the liquidations of the protocol. LiquidationEngine will be the interface for the liquidator to trigger any positions into the liquidation process.",
        "version": 1
    }
}