{
    "contractName": "LiquidationEngine",
    "abi": [
        {
            "anonymous": false,
            "inputs": [
                {
                    "indexed": false,
                    "internalType": "uint8",
                    "name": "version",
                    "type": "uint8"
                }
            ],
            "name": "Initialized",
            "type": "event"
        },
        {
            "anonymous": false,
            "inputs": [],
            "name": "LogCage",
            "type": "event"
        },
        {
            "anonymous": false,
            "inputs": [],
            "name": "LogUncage",
            "type": "event"
        },
        {
            "anonymous": false,
            "inputs": [
                {
                    "indexed": false,
                    "internalType": "address",
                    "name": "account",
                    "type": "address"
                }
            ],
            "name": "Paused",
            "type": "event"
        },
        {
            "anonymous": false,
            "inputs": [
                {
                    "indexed": false,
                    "internalType": "address",
                    "name": "account",
                    "type": "address"
                }
            ],
            "name": "Unpaused",
            "type": "event"
        },
        {
            "inputs": [],
            "name": "bookKeeper",
            "outputs": [
                {
                    "internalType": "contract IBookKeeper",
                    "name": "",
                    "type": "address"
                }
            ],
            "stateMutability": "view",
            "type": "function"
        },
        {
            "inputs": [
                {
                    "internalType": "address",
                    "name": "",
                    "type": "address"
                }
            ],
            "name": "liquidatorsWhitelist",
            "outputs": [
                {
                    "internalType": "uint256",
                    "name": "",
                    "type": "uint256"
                }
            ],
            "stateMutability": "view",
            "type": "function"
        },
        {
            "inputs": [],
            "name": "live",
            "outputs": [
                {
                    "internalType": "uint256",
                    "name": "",
                    "type": "uint256"
                }
            ],
            "stateMutability": "view",
            "type": "function"
        },
        {
            "inputs": [],
            "name": "paused",
            "outputs": [
                {
                    "internalType": "bool",
                    "name": "",
                    "type": "bool"
                }
            ],
            "stateMutability": "view",
            "type": "function"
        },
        {
            "inputs": [],
            "name": "priceOracle",
            "outputs": [
                {
                    "internalType": "address",
                    "name": "",
                    "type": "address"
                }
            ],
            "stateMutability": "view",
            "type": "function"
        },
        {
            "inputs": [],
            "name": "systemDebtEngine",
            "outputs": [
                {
                    "internalType": "contract ISystemDebtEngine",
                    "name": "",
                    "type": "address"
                }
            ],
            "stateMutability": "view",
            "type": "function"
        },
        {
            "inputs": [
                {
                    "internalType": "address",
                    "name": "_bookKeeper",
                    "type": "address"
                },
                {
                    "internalType": "address",
                    "name": "_systemDebtEngine",
                    "type": "address"
                },
                {
                    "internalType": "address",
                    "name": "_priceOracle",
                    "type": "address"
                }
            ],
            "name": "initialize",
            "outputs": [],
            "stateMutability": "nonpayable",
            "type": "function"
        },
        {
            "inputs": [
                {
                    "internalType": "address",
                    "name": "toBeWhitelisted",
                    "type": "address"
                }
            ],
            "name": "whitelist",
            "outputs": [],
            "stateMutability": "nonpayable",
            "type": "function"
        },
        {
            "inputs": [
                {
                    "internalType": "address",
                    "name": "toBeRemoved",
                    "type": "address"
                }
            ],
            "name": "blacklist",
            "outputs": [],
            "stateMutability": "nonpayable",
            "type": "function"
        },
        {
            "inputs": [
                {
                    "internalType": "bytes32[]",
                    "name": "_collateralPoolIds",
                    "type": "bytes32[]"
                },
                {
                    "internalType": "address[]",
                    "name": "_positionAddresses",
                    "type": "address[]"
                },
                {
                    "internalType": "uint256[]",
                    "name": "_debtShareToBeLiquidateds",
                    "type": "uint256[]"
                },
                {
                    "internalType": "uint256[]",
                    "name": "_maxDebtShareToBeLiquidateds",
                    "type": "uint256[]"
                },
                {
                    "internalType": "address[]",
                    "name": "_collateralRecipients",
                    "type": "address[]"
                },
                {
                    "internalType": "bytes[]",
                    "name": "datas",
                    "type": "bytes[]"
                }
            ],
            "name": "batchLiquidate",
            "outputs": [],
            "stateMutability": "nonpayable",
            "type": "function"
        },
        {
            "inputs": [
                {
                    "internalType": "bytes32",
                    "name": "_collateralPoolId",
                    "type": "bytes32"
                },
                {
                    "internalType": "address",
                    "name": "_positionAddress",
                    "type": "address"
                },
                {
                    "internalType": "uint256",
                    "name": "_debtShareToBeLiquidated",
                    "type": "uint256"
                },
                {
                    "internalType": "uint256",
                    "name": "_maxDebtShareToBeLiquidated",
                    "type": "uint256"
                },
                {
                    "internalType": "address",
                    "name": "_collateralRecipient",
                    "type": "address"
                },
                {
                    "internalType": "bytes",
                    "name": "_data",
                    "type": "bytes"
                }
            ],
            "name": "liquidate",
            "outputs": [],
            "stateMutability": "nonpayable",
            "type": "function"
        },
        {
            "inputs": [
                {
                    "internalType": "address",
                    "name": "_priceOracle",
                    "type": "address"
                }
            ],
            "name": "setPriceOracle",
            "outputs": [],
            "stateMutability": "nonpayable",
            "type": "function"
        },
        {
            "inputs": [],
            "name": "cage",
            "outputs": [],
            "stateMutability": "nonpayable",
            "type": "function"
        },
        {
            "inputs": [],
            "name": "uncage",
            "outputs": [],
            "stateMutability": "nonpayable",
            "type": "function"
        },
        {
            "inputs": [],
            "name": "pause",
            "outputs": [],
            "stateMutability": "nonpayable",
            "type": "function"
        },
        {
            "inputs": [],
            "name": "unpause",
            "outputs": [],
            "stateMutability": "nonpayable",
            "type": "function"
        }
    ],
    "bytecode": "0x608060405234801561001057600080fd5b506129ca806100206000396000f3fe608060405234801561001057600080fd5b50600436106101005760003560e01c80638456cb5911610097578063c23fdbc711610066578063c23fdbc7146101ee578063d63b23b21461020e578063e3b3932a14610216578063f9f92be41461022957600080fd5b80638456cb59146101a9578063957aa58c146101b15780639b19251a146101c8578063c0c53b8b146101db57600080fd5b8063530e784f116100d3578063530e784f146101655780635c975abb14610178578063692450091461018e57806369a5038a1461019657600080fd5b80631ebce593146101055780632630c12f1461011a57806328e49a421461014a5780633f4ba83a1461015d575b600080fd5b6101186101133660046123d9565b61023c565b005b60975461012d906001600160a01b031681565b6040516001600160a01b0390911681526020015b60405180910390f35b60995461012d906001600160a01b031681565b6101186102a6565b61011861017336600461248e565b6104f1565b60335460ff166040519015158152602001610141565b6101186107d8565b6101186101a43660046124fe565b610a6b565b610118610ba5565b6101ba609a5481565b604051908152602001610141565b6101186101d636600461248e565b610ded565b6101186101e9366004612641565b61104b565b6101ba6101fc36600461248e565b609b6020526000908152604090205481565b61011861128b565b60985461012d906001600160a01b031681565b61011861023736600461248e565b61154c565b6102446117a7565b61024c611800565b336000908152609b60205260409020546001146102845760405162461bcd60e51b815260040161027b9061268c565b60405180910390fd5b61029387878787878787611848565b61029d6001606555565b50505050505050565b6098546040805163c8cc243f60e01b815290516000926001600160a01b03169163c8cc243f9160048083019260209291908290030181865afa1580156102f0573d6000803e3d6000fd5b505050506040513d601f19601f8201168201806040525081019061031491906126d8565b9050806001600160a01b03166391d14854826001600160a01b031663e58378bb6040518163ffffffff1660e01b8152600401602060405180830381865afa158015610363573d6000803e3d6000fd5b505050506040513d601f19601f8201168201806040525081019061038791906126f5565b6040516001600160e01b031960e084901b1681526004810191909152336024820152604401602060405180830381865afa1580156103c9573d6000803e3d6000fd5b505050506040513d601f19601f820116820180604052508101906103ed919061270e565b806104ca5750806001600160a01b03166391d14854826001600160a01b031663b536818a6040518163ffffffff1660e01b8152600401602060405180830381865afa158015610440573d6000803e3d6000fd5b505050506040513d601f19601f8201168201806040525081019061046491906126f5565b6040516001600160e01b031960e084901b1681526004810191909152336024820152604401602060405180830381865afa1580156104a6573d6000803e3d6000fd5b505050506040513d601f19601f820116820180604052508101906104ca919061270e565b6104e65760405162461bcd60e51b815260040161027b90612730565b6104ee612213565b50565b6098546040805163c8cc243f60e01b815290516000926001600160a01b03169163c8cc243f9160048083019260209291908290030181865afa15801561053b573d6000803e3d6000fd5b505050506040513d601f19601f8201168201806040525081019061055f91906126d8565b9050806001600160a01b03166391d14854826001600160a01b031663e58378bb6040518163ffffffff1660e01b8152600401602060405180830381865afa1580156105ae573d6000803e3d6000fd5b505050506040513d601f19601f820116820180604052508101906105d291906126f5565b6040516001600160e01b031960e084901b1681526004810191909152336024820152604401602060405180830381865afa158015610614573d6000803e3d6000fd5b505050506040513d601f19601f82011682018060405250810190610638919061270e565b806107155750806001600160a01b03166391d14854826001600160a01b031663d7a47a696040518163ffffffff1660e01b8152600401602060405180830381865afa15801561068b573d6000803e3d6000fd5b505050506040513d601f19601f820116820180604052508101906106af91906126f5565b6040516001600160e01b031960e084901b1681526004810191909152336024820152604401602060405180830381865afa1580156106f1573d6000803e3d6000fd5b505050506040513d601f19601f82011682018060405250810190610715919061270e565b6107315760405162461bcd60e51b815260040161027b90612767565b6001600160a01b0382166107935760405162461bcd60e51b815260206004820152602360248201527f5f70726963654f7261636c652063616e6e6f74206265207a65726f206164647260448201526265737360e81b606482015260840161027b565b609a546001146107b55760405162461bcd60e51b815260040161027b9061279e565b50609780546001600160a01b0319166001600160a01b0392909216919091179055565b6098546040805163c8cc243f60e01b815290516000926001600160a01b03169163c8cc243f9160048083019260209291908290030181865afa158015610822573d6000803e3d6000fd5b505050506040513d601f19601f8201168201806040525081019061084691906126d8565b9050806001600160a01b03166391d14854826001600160a01b031663e58378bb6040518163ffffffff1660e01b8152600401602060405180830381865afa158015610895573d6000803e3d6000fd5b505050506040513d601f19601f820116820180604052508101906108b991906126f5565b6040516001600160e01b031960e084901b1681526004810191909152336024820152604401602060405180830381865afa1580156108fb573d6000803e3d6000fd5b505050506040513d601f19601f8201168201806040525081019061091f919061270e565b806109fc5750806001600160a01b03166391d14854826001600160a01b031663d7a47a696040518163ffffffff1660e01b8152600401602060405180830381865afa158015610972573d6000803e3d6000fd5b505050506040513d601f19601f8201168201806040525081019061099691906126f5565b6040516001600160e01b031960e084901b1681526004810191909152336024820152604401602060405180830381865afa1580156109d8573d6000803e3d6000fd5b505050506040513d601f19601f820116820180604052508101906109fc919061270e565b610a185760405162461bcd60e51b815260040161027b90612767565b609a54600114610a3a5760405162461bcd60e51b815260040161027b9061279e565b6000609a8190556040517fbf689b4aae670d200b1d2b971ace2e0c3bef88a9c5e93f36705c7b86eab630b99190a150565b610a736117a7565b610a7b611800565b336000908152609b6020526040902054600114610aaa5760405162461bcd60e51b815260040161027b9061268c565b60005b8b811015610b8c57610b7a8d8d83818110610aca57610aca6127d5565b905060200201358c8c84818110610ae357610ae36127d5565b9050602002016020810190610af8919061248e565b8b8b85818110610b0a57610b0a6127d5565b905060200201358a8a86818110610b2357610b236127d5565b90506020020135898987818110610b3c57610b3c6127d5565b9050602002016020810190610b51919061248e565b888888818110610b6357610b636127d5565b9050602002810190610b7591906127eb565b611848565b80610b8481612848565b915050610aad565b50610b976001606555565b505050505050505050505050565b6098546040805163c8cc243f60e01b815290516000926001600160a01b03169163c8cc243f9160048083019260209291908290030181865afa158015610bef573d6000803e3d6000fd5b505050506040513d601f19601f82011682018060405250810190610c1391906126d8565b9050806001600160a01b03166391d14854826001600160a01b031663e58378bb6040518163ffffffff1660e01b8152600401602060405180830381865afa158015610c62573d6000803e3d6000fd5b505050506040513d601f19601f82011682018060405250810190610c8691906126f5565b6040516001600160e01b031960e084901b1681526004810191909152336024820152604401602060405180830381865afa158015610cc8573d6000803e3d6000fd5b505050506040513d601f19601f82011682018060405250810190610cec919061270e565b80610dc95750806001600160a01b03166391d14854826001600160a01b031663b536818a6040518163ffffffff1660e01b8152600401602060405180830381865afa158015610d3f573d6000803e3d6000fd5b505050506040513d601f19601f82011682018060405250810190610d6391906126f5565b6040516001600160e01b031960e084901b1681526004810191909152336024820152604401602060405180830381865afa158015610da5573d6000803e3d6000fd5b505050506040513d601f19601f82011682018060405250810190610dc9919061270e565b610de55760405162461bcd60e51b815260040161027b90612730565b6104ee612265565b6098546040805163c8cc243f60e01b815290516000926001600160a01b03169163c8cc243f9160048083019260209291908290030181865afa158015610e37573d6000803e3d6000fd5b505050506040513d601f19601f82011682018060405250810190610e5b91906126d8565b9050806001600160a01b03166391d14854826001600160a01b031663e58378bb6040518163ffffffff1660e01b8152600401602060405180830381865afa158015610eaa573d6000803e3d6000fd5b505050506040513d601f19601f82011682018060405250810190610ece91906126f5565b6040516001600160e01b031960e084901b1681526004810191909152336024820152604401602060405180830381865afa158015610f10573d6000803e3d6000fd5b505050506040513d601f19601f82011682018060405250810190610f34919061270e565b806110115750806001600160a01b03166391d14854826001600160a01b031663b536818a6040518163ffffffff1660e01b8152600401602060405180830381865afa158015610f87573d6000803e3d6000fd5b505050506040513d601f19601f82011682018060405250810190610fab91906126f5565b6040516001600160e01b031960e084901b1681526004810191909152336024820152604401602060405180830381865afa158015610fed573d6000803e3d6000fd5b505050506040513d601f19601f82011682018060405250810190611011919061270e565b61102d5760405162461bcd60e51b815260040161027b90612730565b506001600160a01b03166000908152609b6020526040902060019055565b600054610100900460ff161580801561106b5750600054600160ff909116105b806110855750303b158015611085575060005460ff166001145b6110e85760405162461bcd60e51b815260206004820152602e60248201527f496e697469616c697a61626c653a20636f6e747261637420697320616c72656160448201526d191e481a5b9a5d1a585b1a5e995960921b606482015260840161027b565b6000805460ff19166001179055801561110b576000805461ff0019166101001790555b6111136122a2565b61111b6122d1565b836001600160a01b0316636f3a3bfc6040518163ffffffff1660e01b81526004016020604051808303816000875af115801561115b573d6000803e3d6000fd5b505050506040513d601f19601f8201168201806040525081019061117f91906126f5565b5083609860006101000a8154816001600160a01b0302191690836001600160a01b03160217905550826001600160a01b0316632a608d5b6040518163ffffffff1660e01b8152600401602060405180830381865afa1580156111e5573d6000803e3d6000fd5b505050506040513d601f19601f8201168201806040525081019061120991906126f5565b50609980546001600160a01b038086166001600160a01b03199283161790925560978054928516929091169190911790556001609a558015611285576000805461ff0019169055604051600181527f7f26b83ff96e1f2b6a682f133852f6798a09c465da95921460cefb38474024989060200160405180910390a15b50505050565b6098546040805163c8cc243f60e01b815290516000926001600160a01b03169163c8cc243f9160048083019260209291908290030181865afa1580156112d5573d6000803e3d6000fd5b505050506040513d601f19601f820116820180604052508101906112f991906126d8565b9050806001600160a01b03166391d14854826001600160a01b031663e58378bb6040518163ffffffff1660e01b8152600401602060405180830381865afa158015611348573d6000803e3d6000fd5b505050506040513d601f19601f8201168201806040525081019061136c91906126f5565b6040516001600160e01b031960e084901b1681526004810191909152336024820152604401602060405180830381865afa1580156113ae573d6000803e3d6000fd5b505050506040513d601f19601f820116820180604052508101906113d2919061270e565b806114af5750806001600160a01b03166391d14854826001600160a01b031663d7a47a696040518163ffffffff1660e01b8152600401602060405180830381865afa158015611425573d6000803e3d6000fd5b505050506040513d601f19601f8201168201806040525081019061144991906126f5565b6040516001600160e01b031960e084901b1681526004810191909152336024820152604401602060405180830381865afa15801561148b573d6000803e3d6000fd5b505050506040513d601f19601f820116820180604052508101906114af919061270e565b6114cb5760405162461bcd60e51b815260040161027b90612767565b609a541561151b5760405162461bcd60e51b815260206004820152601b60248201527f4c69717569646174696f6e456e67696e652f6e6f742d63616765640000000000604482015260640161027b565b6001609a556040517f1868a6ced217213f36be87ba9aee25cde5381b42e85c8f88e73b18772c0bd07390600090a150565b6098546040805163c8cc243f60e01b815290516000926001600160a01b03169163c8cc243f9160048083019260209291908290030181865afa158015611596573d6000803e3d6000fd5b505050506040513d601f19601f820116820180604052508101906115ba91906126d8565b9050806001600160a01b03166391d14854826001600160a01b031663e58378bb6040518163ffffffff1660e01b8152600401602060405180830381865afa158015611609573d6000803e3d6000fd5b505050506040513d601f19601f8201168201806040525081019061162d91906126f5565b6040516001600160e01b031960e084901b1681526004810191909152336024820152604401602060405180830381865afa15801561166f573d6000803e3d6000fd5b505050506040513d601f19601f82011682018060405250810190611693919061270e565b806117705750806001600160a01b03166391d14854826001600160a01b031663b536818a6040518163ffffffff1660e01b8152600401602060405180830381865afa1580156116e6573d6000803e3d6000fd5b505050506040513d601f19601f8201168201806040525081019061170a91906126f5565b6040516001600160e01b031960e084901b1681526004810191909152336024820152604401602060405180830381865afa15801561174c573d6000803e3d6000fd5b505050506040513d601f19601f82011682018060405250810190611770919061270e565b61178c5760405162461bcd60e51b815260040161027b90612730565b506001600160a01b03166000908152609b6020526040812055565b6002606554036117f95760405162461bcd60e51b815260206004820152601f60248201527f5265656e7472616e637947756172643a207265656e7472616e742063616c6c00604482015260640161027b565b6002606555565b60335460ff16156118465760405162461bcd60e51b815260206004820152601060248201526f14185d5cd8589b194e881c185d5cd95960821b604482015260640161027b565b565b60975460405163285da53b60e01b8152600481018990526001600160a01b039091169063285da53b90602401600060405180830381600087803b15801561188e57600080fd5b505af11580156118a2573d6000803e3d6000fd5b50505050609a546001146118c85760405162461bcd60e51b815260040161027b9061279e565b846000036119335760405162461bcd60e51b815260206004820152603260248201527f4c69717569646174696f6e456e67696e652f7a65726f2d646562742d76616c75604482015271194b5d1bcb58994b5b1a5c5d5a59185d195960721b606482015260840161027b565b836000036119a25760405162461bcd60e51b815260206004820152603660248201527f4c69717569646174696f6e456e67696e652f7a65726f2d6d61782d646562742d6044820152751d985b1d594b5d1bcb58994b5b1a5c5d5a59185d195960521b606482015260840161027b565b6119db6040518060c001604052806000815260200160008152602001600081526020016000815260200160008152602001600081525090565b609854604051630a76216560e21b8152600481018a90526001600160a01b038981166024830152909116906329d88594906044016040805180830381865afa158015611a2b573d6000803e3d6000fd5b505050506040513d601f19601f82011682018060405250810190611a4f9190612861565b60208381019190915290825260408051606081018252600080825281840181905281830152609854825163d868246160e01b8152925191936001600160a01b039091169263d868246192600480830193928290030181865afa158015611ab9573d6000803e3d6000fd5b505050506040513d601f19601f82011682018060405250810190611add91906126d8565b6001600160a01b03166328c84bbd8a6040518263ffffffff1660e01b8152600401611b0a91815260200190565b602060405180830381865afa158015611b27573d6000803e3d6000fd5b505050506040513d601f19601f82011682018060405250810190611b4b91906126d8565b6001600160a01b0390811682526098546040805163d868246160e01b81529051919092169163d86824619160048083019260209291908290030181865afa158015611b9a573d6000803e3d6000fd5b505050506040513d601f19601f82011682018060405250810190611bbe91906126d8565b6001600160a01b0316638c492d078a6040518263ffffffff1660e01b8152600401611beb91815260200190565b602060405180830381865afa158015611c08573d6000803e3d6000fd5b505050506040513d601f19601f82011682018060405250810190611c2c91906126f5565b6020808301919091526098546040805163d868246160e01b815290516001600160a01b039092169263d8682461926004808401938290030181865afa158015611c79573d6000803e3d6000fd5b505050506040513d601f19601f82011682018060405250810190611c9d91906126d8565b6001600160a01b031663a09b0fe08a6040518263ffffffff1660e01b8152600401611cca91815260200190565b602060405180830381865afa158015611ce7573d6000803e3d6000fd5b505050506040513d601f19601f82011682018060405250810190611d0b91906126f5565b604082015280516001600160a01b038116611d735760405162461bcd60e51b815260206004820152602260248201527f4c69717569646174696f6e456e67696e652f6e6f742d7365742d737472617465604482015261677960f01b606482015260840161027b565b60008260200151118015611da7575060408201516020840151611d9591612300565b60208301518451611da591612300565b105b611dfe5760405162461bcd60e51b815260206004820152602260248201527f4c69717569646174696f6e456e67696e652f706f736974696f6e2d69732d7361604482015261666560f01b606482015260840161027b565b60985460995460405163b4ac08bb60e01b81526001600160a01b03918216600482015291169063b4ac08bb90602401602060405180830381865afa158015611e4a573d6000803e3d6000fd5b505050506040513d601f19601f82011682018060405250810190611e6e91906126f5565b836040018181525050806001600160a01b03166316d8d2918b856020015186600001518d8d8d338e8e8e6040518b63ffffffff1660e01b8152600401611ebd9a99989796959493929190612885565b600060405180830381600087803b158015611ed757600080fd5b505af1158015611eeb573d6000803e3d6000fd5b5050609854604051630a76216560e21b8152600481018e90526001600160a01b038d8116602483015290911692506329d8859491506044016040805180830381865afa158015611f3f573d6000803e3d6000fd5b505050506040513d601f19601f82011682018060405250810190611f639190612861565b608085018190526060850191909152602084015111611fd25760405162461bcd60e51b815260206004820152602560248201527f4c69717569646174696f6e456e67696e652f646562742d6e6f742d6c6971756960448201526419185d195960da1b606482015260840161027b565b611ffb8260400151611ff58560800151866020015161231590919063ffffffff16565b90612300565b60a08401819052604080850151609854609954925163b4ac08bb60e01b81526001600160a01b039384166004820152612082939091169063b4ac08bb90602401602060405180830381865afa158015612058573d6000803e3d6000fd5b505050506040513d601f19601f8201168201806040525081019061207c91906126f5565b90612315565b10156120df5760405162461bcd60e51b815260206004820152602660248201527f4c69717569646174696f6e456e67696e652f7061796d656e742d6e6f742d726560448201526518d95a5d995960d21b606482015260840161027b565b60608301511580156120f5575060008360800151115b1561220057600160ff1b8360800151106121515760405162461bcd60e51b815260206004820152601a60248201527f4c69717569646174696f6e456e67696e652f6f766572666c6f77000000000000604482015260640161027b565b60985460995460808501516001600160a01b039283169263b1df2594928e928e928392169060009061218290612903565b6040516001600160e01b031960e089901b16815260048101969096526001600160a01b039485166024870152928416604486015292166064840152608483019190915260a482015260c401600060405180830381600087803b1580156121e757600080fd5b505af11580156121fb573d6000803e3d6000fd5b505050505b50505050505050505050565b6001606555565b61221b612321565b6033805460ff191690557f5db9ee0a495bf2e6ff9c91a7834c1ba4fdd244a5e8aa4e537bd38aeae4b073aa335b6040516001600160a01b03909116815260200160405180910390a1565b61226d611800565b6033805460ff191660011790557f62e78cea01bee320cd4e420270b5ea74000d11b0c9f74754ebdbfc544b05a2586122483390565b600054610100900460ff166122c95760405162461bcd60e51b815260040161027b9061291f565b61184661236a565b600054610100900460ff166122f85760405162461bcd60e51b815260040161027b9061291f565b61184661239d565b600061230c828461296a565b90505b92915050565b600061230c8284612981565b60335460ff166118465760405162461bcd60e51b815260206004820152601460248201527314185d5cd8589b194e881b9bdd081c185d5cd95960621b604482015260640161027b565b600054610100900460ff166123915760405162461bcd60e51b815260040161027b9061291f565b6033805460ff19169055565b600054610100900460ff1661220c5760405162461bcd60e51b815260040161027b9061291f565b6001600160a01b03811681146104ee57600080fd5b600080600080600080600060c0888a0312156123f457600080fd5b873596506020880135612406816123c4565b955060408801359450606088013593506080880135612424816123c4565b925060a088013567ffffffffffffffff8082111561244157600080fd5b818a0191508a601f83011261245557600080fd5b81358181111561246457600080fd5b8b602082850101111561247657600080fd5b60208301945080935050505092959891949750929550565b6000602082840312156124a057600080fd5b81356124ab816123c4565b9392505050565b60008083601f8401126124c457600080fd5b50813567ffffffffffffffff8111156124dc57600080fd5b6020830191508360208260051b85010111156124f757600080fd5b9250929050565b60008060008060008060008060008060008060c08d8f03121561252057600080fd5b67ffffffffffffffff8d35111561253657600080fd5b6125438e8e358f016124b2565b909c509a5067ffffffffffffffff60208e0135111561256157600080fd5b6125718e60208f01358f016124b2565b909a50985067ffffffffffffffff60408e0135111561258f57600080fd5b61259f8e60408f01358f016124b2565b909850965067ffffffffffffffff60608e013511156125bd57600080fd5b6125cd8e60608f01358f016124b2565b909650945067ffffffffffffffff60808e013511156125eb57600080fd5b6125fb8e60808f01358f016124b2565b909450925067ffffffffffffffff60a08e0135111561261957600080fd5b6126298e60a08f01358f016124b2565b81935080925050509295989b509295989b509295989b565b60008060006060848603121561265657600080fd5b8335612661816123c4565b92506020840135612671816123c4565b91506040840135612681816123c4565b809150509250925092565b6020808252602c908201527f4c69717569646174696f6e456e67696e652f6c697175696461746f722d6e6f7460408201526b0b5dda1a5d195b1a5cdd195960a21b606082015260800190565b6000602082840312156126ea57600080fd5b81516124ab816123c4565b60006020828403121561270757600080fd5b5051919050565b60006020828403121561272057600080fd5b815180151581146124ab57600080fd5b60208082526017908201527f21286f776e6572526f6c65206f7220676f76526f6c6529000000000000000000604082015260600190565b6020808252601f908201527f21286f776e6572526f6c65206f722073686f7753746f70706572526f6c652900604082015260600190565b6020808252601a908201527f4c69717569646174696f6e456e67696e652f6e6f742d6c697665000000000000604082015260600190565b634e487b7160e01b600052603260045260246000fd5b6000808335601e1984360301811261280257600080fd5b83018035915067ffffffffffffffff82111561281d57600080fd5b6020019150368190038213156124f757600080fd5b634e487b7160e01b600052601160045260246000fd5b60006001820161285a5761285a612832565b5060010190565b6000806040838503121561287457600080fd5b505080516020909101519092909150565b8a8152602081018a9052604081018990526001600160a01b0388811660608301526080820188905260a0820187905285811660c0830152841660e08201526101206101008201819052810182905260006101408385828501376000838501820152601f909301601f19169091019091019a9950505050505050505050565b6000600160ff1b820161291857612918612832565b5060000390565b6020808252602b908201527f496e697469616c697a61626c653a20636f6e7472616374206973206e6f74206960408201526a6e697469616c697a696e6760a81b606082015260800190565b808202811582820484141761230f5761230f612832565b8181038181111561230f5761230f61283256fea2646970667358221220cad0caf60d25aa4c127a47dbc9f9aec30400ed6f2cfa3939e1f82a1b02a9790a64736f6c63430008110033",
    "immutableReferences": {},
    "source": "// SPDX-License-Identifier: AGPL-3.0-or-later\n\npragma solidity 0.8.17;\npragma experimental ABIEncoderV2;\n\nimport \"@openzeppelin/contracts-upgradeable/security/PausableUpgradeable.sol\";\nimport \"@openzeppelin/contracts-upgradeable/access/AccessControlUpgradeable.sol\";\nimport \"@openzeppelin/contracts-upgradeable/security/ReentrancyGuardUpgradeable.sol\";\nimport \"@openzeppelin/contracts-upgradeable/utils/math/SafeMathUpgradeable.sol\";\n\nimport \"../interfaces/IBookKeeper.sol\";\nimport \"../interfaces/ISystemDebtEngine.sol\";\nimport \"../interfaces/ILiquidationEngine.sol\";\nimport \"../interfaces/ILiquidationStrategy.sol\";\nimport \"../interfaces/ICagable.sol\";\nimport \"../interfaces/ISetPrice.sol\";\n\n/// @title LiquidationEngine\n/** @notice A contract which is the manager for all of the liquidations of the protocol.\n    LiquidationEngine will be the interface for the liquidator to trigger any positions into the liquidation process.\n*/\n\ncontract LiquidationEngine is PausableUpgradeable, ReentrancyGuardUpgradeable, ICagable, ILiquidationEngine {\n  using SafeMathUpgradeable for uint256;\n  address public priceOracle;\n\n  struct LocalVars {\n    uint256 positionLockedCollateral;\n    uint256 positionDebtShare;\n    uint256 systemDebtEngineStablecoinBefore;\n    uint256 newPositionLockedCollateral;\n    uint256 newPositionDebtShare;\n    uint256 wantStablecoinValueFromLiquidation;\n  }\n\n  struct CollateralPoolLocalVars {\n    address strategy;\n    uint256 priceWithSafetyMargin; // [ray]\n    uint256 debtAccumulatedRate; // [ray]\n  }\n\n  IBookKeeper public bookKeeper; // CDP Engine\n  ISystemDebtEngine public systemDebtEngine; // Debt Engine\n  uint256 public override live; // Active Flag\n  mapping(address => uint256) public liquidatorsWhitelist;\n\n  modifier onlyOwnerOrShowStopper() {\n    IAccessControlConfig _accessControlConfig = IAccessControlConfig(IBookKeeper(bookKeeper).accessControlConfig());\n    require(\n      _accessControlConfig.hasRole(_accessControlConfig.OWNER_ROLE(), msg.sender) ||\n        _accessControlConfig.hasRole(_accessControlConfig.SHOW_STOPPER_ROLE(), msg.sender),\n      \"!(ownerRole or showStopperRole)\"\n    );\n    _;\n  }\n\n  modifier onlyOwnerOrGov() {\n    IAccessControlConfig _accessControlConfig = IAccessControlConfig(IBookKeeper(bookKeeper).accessControlConfig());\n    require(\n      _accessControlConfig.hasRole(_accessControlConfig.OWNER_ROLE(), msg.sender) ||\n        _accessControlConfig.hasRole(_accessControlConfig.GOV_ROLE(), msg.sender),\n      \"!(ownerRole or govRole)\"\n    );\n    _;\n  }\n\n    modifier onlyWhitelisted() {\n    require(liquidatorsWhitelist[msg.sender] == 1, \"LiquidationEngine/liquidator-not-whitelisted\");\n    _;\n  }\n\n  // --- Init ---\n  function initialize(address _bookKeeper, address _systemDebtEngine, address _priceOracle) external initializer {\n    PausableUpgradeable.__Pausable_init();\n    ReentrancyGuardUpgradeable.__ReentrancyGuard_init();\n\n    IBookKeeper(_bookKeeper).totalStablecoinIssued(); // Sanity Check Call\n    bookKeeper = IBookKeeper(_bookKeeper);\n\n    ISystemDebtEngine(_systemDebtEngine).surplusBuffer(); // Sanity Check Call\n    systemDebtEngine = ISystemDebtEngine(_systemDebtEngine);\n\n    priceOracle = _priceOracle;\n\n    live = 1;\n  }\n\n  // --- Math ---\n  uint256 constant WAD = 10**18;\n\n  function whitelist(address toBeWhitelisted) external onlyOwnerOrGov {\n    liquidatorsWhitelist[toBeWhitelisted] = 1;\n  }\n\n  function blacklist(address toBeRemoved) external onlyOwnerOrGov {\n    liquidatorsWhitelist[toBeRemoved] = 0;\n  }\n\n  function batchLiquidate(\n    bytes32[] calldata _collateralPoolIds,\n    address[] calldata _positionAddresses,\n    uint256[] calldata _debtShareToBeLiquidateds, // [rad]\n    uint256[] calldata _maxDebtShareToBeLiquidateds, // [rad]\n    address[] calldata _collateralRecipients,\n    bytes[] calldata datas\n  ) external override nonReentrant whenNotPaused onlyWhitelisted {\n    for(uint i = 0; i < _collateralPoolIds.length; i++)\n      _liquidate(_collateralPoolIds[i], _positionAddresses[i],_debtShareToBeLiquidateds[i], _maxDebtShareToBeLiquidateds[i], _collateralRecipients[i], datas[i]);\n  }\n\n  function liquidate(\n    bytes32 _collateralPoolId,\n    address _positionAddress,\n    uint256 _debtShareToBeLiquidated, // [rad]\n    uint256 _maxDebtShareToBeLiquidated, // [wad]\n    address _collateralRecipient,\n    bytes calldata _data\n  ) external override nonReentrant whenNotPaused onlyWhitelisted {\n    _liquidate(_collateralPoolId, _positionAddress, _debtShareToBeLiquidated,_maxDebtShareToBeLiquidated, _collateralRecipient, _data);\n  }\n\n  function _liquidate(\n    bytes32 _collateralPoolId,\n    address _positionAddress,\n    uint256 _debtShareToBeLiquidated, // [rad]\n    uint256 _maxDebtShareToBeLiquidated, // [wad]\n    address _collateralRecipient,\n    bytes calldata _data\n  ) internal {\n\n    ISetPrice(priceOracle).setPrice(_collateralPoolId);\n\n    require(live == 1, \"LiquidationEngine/not-live\");\n    require(_debtShareToBeLiquidated != 0, \"LiquidationEngine/zero-debt-value-to-be-liquidated\");\n    require(_maxDebtShareToBeLiquidated != 0, \"LiquidationEngine/zero-max-debt-value-to-be-liquidated\");\n\n    LocalVars memory _vars;\n\n    (_vars.positionLockedCollateral, _vars.positionDebtShare) = bookKeeper.positions(\n      _collateralPoolId,\n      _positionAddress\n    );\n    // 1. Check if the position is underwater\n    CollateralPoolLocalVars memory _collateralPoolLocalVars;\n    _collateralPoolLocalVars.strategy = ICollateralPoolConfig(bookKeeper.collateralPoolConfig()).getStrategy(\n      _collateralPoolId\n    );\n    _collateralPoolLocalVars.priceWithSafetyMargin = ICollateralPoolConfig(bookKeeper.collateralPoolConfig())\n      .getPriceWithSafetyMargin(_collateralPoolId); // [ray]\n    _collateralPoolLocalVars.debtAccumulatedRate = ICollateralPoolConfig(bookKeeper.collateralPoolConfig())\n      .getDebtAccumulatedRate(_collateralPoolId); // [ray]\n\n    ILiquidationStrategy _strategy = ILiquidationStrategy(_collateralPoolLocalVars.strategy);\n    require(address(_strategy) != address(0), \"LiquidationEngine/not-set-strategy\");\n\n    // (positionLockedCollateral [wad] * priceWithSafetyMargin [ray]) [rad]\n    // (positionDebtShare [wad] * debtAccumulatedRate [ray]) [rad]\n    require(\n      _collateralPoolLocalVars.priceWithSafetyMargin > 0 &&\n        _vars.positionLockedCollateral.mul(_collateralPoolLocalVars.priceWithSafetyMargin) <\n        _vars.positionDebtShare.mul(_collateralPoolLocalVars.debtAccumulatedRate),\n      \"LiquidationEngine/position-is-safe\"\n    );\n\n    _vars.systemDebtEngineStablecoinBefore = bookKeeper.stablecoin(address(systemDebtEngine));\n\n    _strategy.execute(\n      _collateralPoolId,\n      _vars.positionDebtShare,\n      _vars.positionLockedCollateral,\n      _positionAddress,\n      _debtShareToBeLiquidated,\n      _maxDebtShareToBeLiquidated,\n      msg.sender,\n      _collateralRecipient,\n      _data\n    );\n    (_vars.newPositionLockedCollateral, _vars.newPositionDebtShare) = bookKeeper.positions(\n      _collateralPoolId,\n      _positionAddress\n    );\n    require(_vars.newPositionDebtShare < _vars.positionDebtShare, \"LiquidationEngine/debt-not-liquidated\");\n\n    // (positionDebtShare [wad] - newPositionDebtShare [wad]) * debtAccumulatedRate [ray]\n\n    _vars.wantStablecoinValueFromLiquidation = _vars.positionDebtShare.sub(_vars.newPositionDebtShare).mul(\n      _collateralPoolLocalVars.debtAccumulatedRate\n    ); // [rad]\n    require(\n      bookKeeper.stablecoin(address(systemDebtEngine)).sub(_vars.systemDebtEngineStablecoinBefore) >=\n        _vars.wantStablecoinValueFromLiquidation,\n      \"LiquidationEngine/payment-not-received\"\n    );\n\n    // If collateral has been depleted from liquidation whilst there is remaining debt in the position\n    if (_vars.newPositionLockedCollateral == 0 && _vars.newPositionDebtShare > 0) {\n      // Overflow check\n      require(_vars.newPositionDebtShare < 2**255, \"LiquidationEngine/overflow\");\n      // Record the bad debt to the system and close the position\n      bookKeeper.confiscatePosition(\n        _collateralPoolId,\n        _positionAddress,\n        _positionAddress,\n        address(systemDebtEngine),\n        0,\n        -int256(_vars.newPositionDebtShare)\n      );\n    }\n  }\n\n  function setPriceOracle(address _priceOracle) external onlyOwnerOrShowStopper {\n    require(_priceOracle != address(0), \"_priceOracle cannot be zero address\");\n    require(live == 1, \"LiquidationEngine/not-live\");\n    priceOracle = _priceOracle;\n  }\n\n  /// @dev access: OWNER_ROLE, SHOW_STOPPER_ROLE\n  function cage() external override onlyOwnerOrShowStopper {\n    require(live == 1, \"LiquidationEngine/not-live\");\n    live = 0;\n    emit LogCage();\n  }\n\n  /// @dev access: OWNER_ROLE, SHOW_STOPPER_ROLE\n  function uncage() external override onlyOwnerOrShowStopper {\n    require(live == 0, \"LiquidationEngine/not-caged\");\n    live = 1;\n    emit LogUncage();\n  }\n\n  // --- pause ---\n  /// @dev access: OWNER_ROLE, GOV_ROLE\n  function pause() external onlyOwnerOrGov {\n    _pause();\n  }\n\n  /// @dev access: OWNER_ROLE, GOV_ROLE\n  function unpause() external onlyOwnerOrGov {\n    _unpause();\n  }\n}",
    "sourcePath": "/Users/sangjun.lee/Sangjun/fathom-stablecoin-smart-contracts/contracts/8.17/stablecoin-core/LiquidationEngine.sol",
    "compiler": {
        "name": "solc",
        "version": "0.8.17+commit.8df45f5f.Emscripten.clang"
    },
    "schemaVersion": "3.4.10",
    "updatedAt": "2022-12-13T08:00:32.093Z",
    "devdoc": {
        "kind": "dev",
        "methods": {
            "cage()": {
                "details": "access: OWNER_ROLE, SHOW_STOPPER_ROLE"
            },
            "pause()": {
                "details": "access: OWNER_ROLE, GOV_ROLE"
            },
            "paused()": {
                "details": "Returns true if the contract is paused, and false otherwise."
            },
            "uncage()": {
                "details": "access: OWNER_ROLE, SHOW_STOPPER_ROLE"
            },
            "unpause()": {
                "details": "access: OWNER_ROLE, GOV_ROLE"
            }
        },
        "version": 1
    },
    "userdoc": {
        "kind": "user",
        "methods": {},
        "notice": "A contract which is the manager for all of the liquidations of the protocol. LiquidationEngine will be the interface for the liquidator to trigger any positions into the liquidation process.",
        "version": 1
    }
}