{
  "contractName": "MockedDexRouter",
  "abi": [
    {
      "inputs": [
        {
          "internalType": "uint256",
          "name": "amountIn",
          "type": "uint256"
        },
        {
          "internalType": "uint256",
          "name": "amountOutMin",
          "type": "uint256"
        },
        {
          "internalType": "address[]",
          "name": "path",
          "type": "address[]"
        },
        {
          "internalType": "address",
          "name": "to",
          "type": "address"
        },
        {
          "internalType": "uint256",
          "name": "deadline",
          "type": "uint256"
        }
      ],
      "name": "swapExactTokensForTokens",
      "outputs": [
        {
          "internalType": "uint256[]",
          "name": "amounts",
          "type": "uint256[]"
        }
      ],
      "stateMutability": "nonpayable",
      "type": "function"
    }
  ],
  "bytecode": "0x608060405234801561001057600080fd5b50610591806100206000396000f3fe608060405234801561001057600080fd5b506004361061002b5760003560e01c806338ed173914610030575b600080fd5b61004361003e3660046103da565b610059565b604051610050919061047c565b60405180910390f35b606060006100983087876001818110610074576100746104c0565b905060200201602081019061008991906104d6565b6001600160a01b031690610121565b90506100d933308a898960008181106100b3576100b36104c0565b90506020020160208101906100c891906104d6565b6001600160a01b0316929190610196565b6101163382888860018181106100f1576100f16104c0565b905060200201602081019061010691906104d6565b6001600160a01b031691906102b3565b509695505050505050565b6040516370a0823160e01b81526001600160a01b038281166004830152600091908416906370a0823190602401602060405180830381865afa15801561016b573d6000803e3d6000fd5b505050506040513d601f19601f8201168201806040525081019061018f91906104f1565b9392505050565b604080516001600160a01b0385811660248301528481166044830152606480830185905283518084039091018152608490920183526020820180516001600160e01b03166323b872dd60e01b17905291516000928392908816916101fa919061050a565b6000604051808303816000865af19150503d8060008114610237576040519150601f19603f3d011682016040523d82523d6000602084013e61023c565b606091505b50915091508180156102665750805115806102665750808060200190518101906102669190610539565b6102ab5760405162461bcd60e51b815260206004820152601160248201527021736166655472616e7366657246726f6d60781b60448201526064015b60405180910390fd5b505050505050565b604080516001600160a01b038481166024830152604480830185905283518084039091018152606490920183526020820180516001600160e01b031663a9059cbb60e01b179052915160009283929087169161030f919061050a565b6000604051808303816000865af19150503d806000811461034c576040519150601f19603f3d011682016040523d82523d6000602084013e610351565b606091505b509150915081801561037b57508051158061037b57508080602001905181019061037b9190610539565b6103b75760405162461bcd60e51b815260206004820152600d60248201526c10b9b0b332aa3930b739b332b960991b60448201526064016102a2565b5050505050565b80356001600160a01b03811681146103d557600080fd5b919050565b60008060008060008060a087890312156103f357600080fd5b8635955060208701359450604087013567ffffffffffffffff8082111561041957600080fd5b818901915089601f83011261042d57600080fd5b81358181111561043c57600080fd5b8a60208260051b850101111561045157600080fd5b602083019650809550505050610469606088016103be565b9150608087013590509295509295509295565b6020808252825182820181905260009190848201906040850190845b818110156104b457835183529284019291840191600101610498565b50909695505050505050565b634e487b7160e01b600052603260045260246000fd5b6000602082840312156104e857600080fd5b61018f826103be565b60006020828403121561050357600080fd5b5051919050565b6000825160005b8181101561052b5760208186018101518583015201610511565b506000920191825250919050565b60006020828403121561054b57600080fd5b8151801515811461018f57600080fdfea26469706673582212209c13b9ac108078c9bd53b499ebd72782efb9b3ee5406d93e527274a044a6e17f64736f6c63430008110033",
  "immutableReferences": {},
  "source": "// SPDX-License-Identifier: AGPL-3.0-or-later\n\nimport \"../../main/utils/SafeToken.sol\";\npragma solidity 0.8.17;\n\ncontract MockedDexRouter {\n    using SafeToken for address;\n\n    function swapExactTokensForTokens(\n        uint256 amountIn,\n        uint256 amountOutMin,\n        address[] calldata path,\n        address to,\n        uint256 deadline\n    ) external returns (uint256[] memory amounts) {\n        uint256 amountToSend = path[1].balanceOf(address(this));\n        path[0].safeTransferFrom(msg.sender, address(this), amountIn);\n        path[1].safeTransfer(msg.sender, amountToSend);\n    }\n}\n",
  "sourcePath": "/Users/vitaliikoval/dev/fathom-stablecoin-smart-contracts/contracts/tests/mocks/MockedDexRouter.sol",
  "compiler": {
    "name": "solc",
    "version": "0.8.17+commit.8df45f5f.Emscripten.clang"
  },
  "schemaVersion": "3.4.10",
  "updatedAt": "2023-01-02T07:05:53.767Z",
  "devdoc": {
    "kind": "dev",
    "methods": {},
    "version": 1
  },
  "userdoc": {
    "kind": "user",
    "methods": {},
    "version": 1
  }
}