{
    "contractName": "ProxyWalletRegistry",
    "abi": [
        {
            "anonymous": false,
            "inputs": [
                {
                    "indexed": false,
                    "internalType": "uint8",
                    "name": "version",
                    "type": "uint8"
                }
            ],
            "name": "Initialized",
            "type": "event"
        },
        {
            "anonymous": false,
            "inputs": [
                {
                    "indexed": true,
                    "internalType": "address",
                    "name": "previousOwner",
                    "type": "address"
                },
                {
                    "indexed": true,
                    "internalType": "address",
                    "name": "newOwner",
                    "type": "address"
                }
            ],
            "name": "OwnershipTransferred",
            "type": "event"
        },
        {
            "inputs": [],
            "name": "owner",
            "outputs": [
                {
                    "internalType": "address",
                    "name": "",
                    "type": "address"
                }
            ],
            "stateMutability": "view",
            "type": "function"
        },
        {
            "inputs": [
                {
                    "internalType": "address",
                    "name": "",
                    "type": "address"
                }
            ],
            "name": "proxies",
            "outputs": [
                {
                    "internalType": "contract ProxyWallet",
                    "name": "",
                    "type": "address"
                }
            ],
            "stateMutability": "view",
            "type": "function"
        },
        {
            "inputs": [],
            "name": "renounceOwnership",
            "outputs": [],
            "stateMutability": "nonpayable",
            "type": "function"
        },
        {
            "inputs": [
                {
                    "internalType": "address",
                    "name": "newOwner",
                    "type": "address"
                }
            ],
            "name": "transferOwnership",
            "outputs": [],
            "stateMutability": "nonpayable",
            "type": "function"
        },
        {
            "inputs": [
                {
                    "internalType": "address",
                    "name": "_factory",
                    "type": "address"
                }
            ],
            "name": "initialize",
            "outputs": [],
            "stateMutability": "nonpayable",
            "type": "function"
        },
        {
            "inputs": [],
            "name": "build0",
            "outputs": [
                {
                    "internalType": "address payable",
                    "name": "_proxy",
                    "type": "address"
                }
            ],
            "stateMutability": "nonpayable",
            "type": "function"
        },
        {
            "inputs": [
                {
                    "internalType": "address",
                    "name": "owner",
                    "type": "address"
                }
            ],
            "name": "build",
            "outputs": [
                {
                    "internalType": "address payable",
                    "name": "_proxy",
                    "type": "address"
                }
            ],
            "stateMutability": "nonpayable",
            "type": "function"
        },
        {
            "inputs": [
                {
                    "internalType": "address",
                    "name": "_newOwner",
                    "type": "address"
                }
            ],
            "name": "setOwner",
            "outputs": [],
            "stateMutability": "nonpayable",
            "type": "function"
        }
    ],
    "bytecode": "0x608060405234801561001057600080fd5b506106aa806100206000396000f3fe608060405234801561001057600080fd5b50600436106100885760003560e01c8063c45527911161005b578063c4552791146100df578063c4d66de814610108578063f2fde38b1461011b578063f3701da21461012e57600080fd5b806313af40351461008d578063715018a6146100a25780637748f425146100aa5780638da5cb5b146100ce575b600080fd5b6100a061009b3660046105e8565b610141565b005b6100a0610234565b6100b2610248565b6040516001600160a01b03909116815260200160405180910390f35b6033546001600160a01b03166100b2565b6100b26100ed3660046105e8565b6065602052600090815260409020546001600160a01b031681565b6100a06101163660046105e8565b610258565b6100a06101293660046105e8565b61038a565b6100b261013c3660046105e8565b610403565b6001600160a01b03818116600090815260656020526040902054161561016657600080fd5b33600090815260656020908152604091829020548251638da5cb5b60e01b815292516001600160a01b0391821693918516928492638da5cb5b92600480830193928290030181865afa1580156101c0573d6000803e3d6000fd5b505050506040513d601f19601f820116820180604052508101906101e4919061060c565b6001600160a01b0316146101f757600080fd5b6001600160a01b039182166000908152606560205260408082208054949093166001600160a01b0319948516179092553381522080549091169055565b61023c6104cd565b6102466000610527565b565b600061025333610403565b905090565b600054610100900460ff16158080156102785750600054600160ff909116105b806102925750303b158015610292575060005460ff166001145b6102fa5760405162461bcd60e51b815260206004820152602e60248201527f496e697469616c697a61626c653a20636f6e747261637420697320616c72656160448201526d191e481a5b9a5d1a585b1a5e995960921b60648201526084015b60405180910390fd5b6000805460ff19166001179055801561031d576000805461ff0019166101001790555b610325610579565b606680546001600160a01b0319166001600160a01b0384161790558015610386576000805461ff0019169055604051600181527f7f26b83ff96e1f2b6a682f133852f6798a09c465da95921460cefb38474024989060200160405180910390a15b5050565b6103926104cd565b6001600160a01b0381166103f75760405162461bcd60e51b815260206004820152602660248201527f4f776e61626c653a206e6577206f776e657220697320746865207a65726f206160448201526564647265737360d01b60648201526084016102f1565b61040081610527565b50565b6001600160a01b038181166000908152606560205260408120549091161561042a57600080fd5b6066546040516379b80ed160e11b81526001600160a01b0384811660048301529091169063f3701da2906024016020604051808303816000875af1158015610476573d6000803e3d6000fd5b505050506040513d601f19601f8201168201806040525081019061049a919061060c565b6001600160a01b03928316600090815260656020526040902080546001600160a01b031916938216939093179092555090565b6033546001600160a01b031633146102465760405162461bcd60e51b815260206004820181905260248201527f4f776e61626c653a2063616c6c6572206973206e6f7420746865206f776e657260448201526064016102f1565b603380546001600160a01b038381166001600160a01b0319831681179093556040519116919082907f8be0079c531659141344cd1fd0a4f28419497f9722a3daafe3b4186f6b6457e090600090a35050565b600054610100900460ff166105a05760405162461bcd60e51b81526004016102f190610629565b610246600054610100900460ff166105ca5760405162461bcd60e51b81526004016102f190610629565b61024633610527565b6001600160a01b038116811461040057600080fd5b6000602082840312156105fa57600080fd5b8135610605816105d3565b9392505050565b60006020828403121561061e57600080fd5b8151610605816105d3565b6020808252602b908201527f496e697469616c697a61626c653a20636f6e7472616374206973206e6f74206960408201526a6e697469616c697a696e6760a81b60608201526080019056fea264697066735822122009dd28dc8665375d63cedf69a9d1afb20c2e9671c5687bda7920a797d223836f64736f6c63430008110033",
    "immutableReferences": {},
    "source": "// SPDX-License-Identifier: AGPL-3.0-or-later\npragma solidity 0.8.17;\n\nimport \"@openzeppelin/contracts-upgradeable/access/OwnableUpgradeable.sol\";\n\nimport \"./ProxyWallet.sol\";\nimport \"./ProxyWalletFactory.sol\";\n\n/// @dev This Registry deploys new proxy instances through ProxyWalletFactory.build(address) and keeps a registry of owner => proxy\ncontract ProxyWalletRegistry is OwnableUpgradeable {\n    mapping(address => ProxyWallet) public proxies;\n    ProxyWalletFactory factory;\n\n    function initialize(address _factory) external initializer {\n        OwnableUpgradeable.__Ownable_init();\n\n        factory = ProxyWalletFactory(_factory);\n    }\n\n    /// @dev Deploys a new proxy instance and sets owner of proxy to caller\n    function build0() external returns (address payable _proxy) {\n        _proxy = build(msg.sender);\n    }\n\n    /// @dev Deploys a new proxy instance and sets custom owner of proxy\n    function build(address owner) public returns (address payable _proxy) {\n        require(proxies[owner] == ProxyWallet(payable(address(0)))); // Not allow new proxy if the user already has one\n        _proxy = factory.build(owner);\n        proxies[owner] = ProxyWallet(_proxy);\n    }\n\n    function setOwner(address _newOwner) external {\n        require(proxies[_newOwner] == ProxyWallet(payable(address(0))));\n        ProxyWallet _proxy = proxies[msg.sender];\n        require(_proxy.owner() == _newOwner);\n        proxies[_newOwner] = _proxy;\n        proxies[msg.sender] = ProxyWallet(payable(address(0)));\n    }\n}\n",
    "sourcePath": "/Users/vitaliikoval/dev/fathom-stablecoin-smart-contracts/contracts/main/proxy-wallet/ProxyWalletRegistry.sol",
    "compiler": {
        "name": "solc",
        "version": "0.8.17+commit.8df45f5f.Emscripten.clang"
    },
    "schemaVersion": "3.4.10",
    "updatedAt": "2023-01-02T07:05:53.636Z",
    "devdoc": {
        "details": "This Registry deploys new proxy instances through ProxyWalletFactory.build(address) and keeps a registry of owner => proxy",
        "kind": "dev",
        "methods": {
            "build(address)": {
                "details": "Deploys a new proxy instance and sets custom owner of proxy"
            },
            "build0()": {
                "details": "Deploys a new proxy instance and sets owner of proxy to caller"
            },
            "owner()": {
                "details": "Returns the address of the current owner."
            },
            "renounceOwnership()": {
                "details": "Leaves the contract without owner. It will not be possible to call `onlyOwner` functions anymore. Can only be called by the current owner. NOTE: Renouncing ownership will leave the contract without an owner, thereby removing any functionality that is only available to the owner."
            },
            "transferOwnership(address)": {
                "details": "Transfers ownership of the contract to a new account (`newOwner`). Can only be called by the current owner."
            }
        },
        "version": 1
    },
    "userdoc": {
        "kind": "user",
        "methods": {},
        "version": 1
    }
}