{
    "contractName": "SimplePriceFeed",
    "abi": [
        {
            "anonymous": false,
            "inputs": [
                {
                    "indexed": false,
                    "internalType": "uint8",
                    "name": "version",
                    "type": "uint8"
                }
            ],
            "name": "Initialized",
            "type": "event"
        },
        {
            "anonymous": false,
            "inputs": [
                {
                    "indexed": true,
                    "internalType": "address",
                    "name": "_caller",
                    "type": "address"
                },
                {
                    "indexed": false,
                    "internalType": "uint256",
                    "name": "_price",
                    "type": "uint256"
                },
                {
                    "indexed": true,
                    "internalType": "uint256",
                    "name": "_lastUpdate",
                    "type": "uint256"
                }
            ],
            "name": "LogSetPrice",
            "type": "event"
        },
        {
            "anonymous": false,
            "inputs": [
                {
                    "indexed": true,
                    "internalType": "address",
                    "name": "_caller",
                    "type": "address"
                },
                {
                    "indexed": false,
                    "internalType": "uint256",
                    "name": "_second",
                    "type": "uint256"
                }
            ],
            "name": "LogSetPriceLife",
            "type": "event"
        },
        {
            "anonymous": false,
            "inputs": [
                {
                    "indexed": false,
                    "internalType": "address",
                    "name": "account",
                    "type": "address"
                }
            ],
            "name": "Paused",
            "type": "event"
        },
        {
            "anonymous": false,
            "inputs": [
                {
                    "indexed": true,
                    "internalType": "bytes32",
                    "name": "role",
                    "type": "bytes32"
                },
                {
                    "indexed": true,
                    "internalType": "bytes32",
                    "name": "previousAdminRole",
                    "type": "bytes32"
                },
                {
                    "indexed": true,
                    "internalType": "bytes32",
                    "name": "newAdminRole",
                    "type": "bytes32"
                }
            ],
            "name": "RoleAdminChanged",
            "type": "event"
        },
        {
            "anonymous": false,
            "inputs": [
                {
                    "indexed": true,
                    "internalType": "bytes32",
                    "name": "role",
                    "type": "bytes32"
                },
                {
                    "indexed": true,
                    "internalType": "address",
                    "name": "account",
                    "type": "address"
                },
                {
                    "indexed": true,
                    "internalType": "address",
                    "name": "sender",
                    "type": "address"
                }
            ],
            "name": "RoleGranted",
            "type": "event"
        },
        {
            "anonymous": false,
            "inputs": [
                {
                    "indexed": true,
                    "internalType": "bytes32",
                    "name": "role",
                    "type": "bytes32"
                },
                {
                    "indexed": true,
                    "internalType": "address",
                    "name": "account",
                    "type": "address"
                },
                {
                    "indexed": true,
                    "internalType": "address",
                    "name": "sender",
                    "type": "address"
                }
            ],
            "name": "RoleRevoked",
            "type": "event"
        },
        {
            "anonymous": false,
            "inputs": [
                {
                    "indexed": false,
                    "internalType": "address",
                    "name": "account",
                    "type": "address"
                }
            ],
            "name": "Unpaused",
            "type": "event"
        },
        {
            "inputs": [],
            "name": "DEFAULT_ADMIN_ROLE",
            "outputs": [
                {
                    "internalType": "bytes32",
                    "name": "",
                    "type": "bytes32"
                }
            ],
            "stateMutability": "view",
            "type": "function"
        },
        {
            "inputs": [],
            "name": "accessControlConfig",
            "outputs": [
                {
                    "internalType": "contract IAccessControlConfig",
                    "name": "",
                    "type": "address"
                }
            ],
            "stateMutability": "view",
            "type": "function"
        },
        {
            "inputs": [
                {
                    "internalType": "bytes32",
                    "name": "role",
                    "type": "bytes32"
                }
            ],
            "name": "getRoleAdmin",
            "outputs": [
                {
                    "internalType": "bytes32",
                    "name": "",
                    "type": "bytes32"
                }
            ],
            "stateMutability": "view",
            "type": "function"
        },
        {
            "inputs": [
                {
                    "internalType": "bytes32",
                    "name": "role",
                    "type": "bytes32"
                },
                {
                    "internalType": "address",
                    "name": "account",
                    "type": "address"
                }
            ],
            "name": "grantRole",
            "outputs": [],
            "stateMutability": "nonpayable",
            "type": "function"
        },
        {
            "inputs": [
                {
                    "internalType": "bytes32",
                    "name": "role",
                    "type": "bytes32"
                },
                {
                    "internalType": "address",
                    "name": "account",
                    "type": "address"
                }
            ],
            "name": "hasRole",
            "outputs": [
                {
                    "internalType": "bool",
                    "name": "",
                    "type": "bool"
                }
            ],
            "stateMutability": "view",
            "type": "function"
        },
        {
            "inputs": [],
            "name": "lastUpdate",
            "outputs": [
                {
                    "internalType": "uint256",
                    "name": "",
                    "type": "uint256"
                }
            ],
            "stateMutability": "view",
            "type": "function"
        },
        {
            "inputs": [],
            "name": "paused",
            "outputs": [
                {
                    "internalType": "bool",
                    "name": "",
                    "type": "bool"
                }
            ],
            "stateMutability": "view",
            "type": "function"
        },
        {
            "inputs": [],
            "name": "price",
            "outputs": [
                {
                    "internalType": "uint256",
                    "name": "",
                    "type": "uint256"
                }
            ],
            "stateMutability": "view",
            "type": "function"
        },
        {
            "inputs": [],
            "name": "priceLife",
            "outputs": [
                {
                    "internalType": "uint256",
                    "name": "",
                    "type": "uint256"
                }
            ],
            "stateMutability": "view",
            "type": "function"
        },
        {
            "inputs": [
                {
                    "internalType": "bytes32",
                    "name": "role",
                    "type": "bytes32"
                },
                {
                    "internalType": "address",
                    "name": "account",
                    "type": "address"
                }
            ],
            "name": "renounceRole",
            "outputs": [],
            "stateMutability": "nonpayable",
            "type": "function"
        },
        {
            "inputs": [
                {
                    "internalType": "bytes32",
                    "name": "role",
                    "type": "bytes32"
                },
                {
                    "internalType": "address",
                    "name": "account",
                    "type": "address"
                }
            ],
            "name": "revokeRole",
            "outputs": [],
            "stateMutability": "nonpayable",
            "type": "function"
        },
        {
            "inputs": [
                {
                    "internalType": "bytes4",
                    "name": "interfaceId",
                    "type": "bytes4"
                }
            ],
            "name": "supportsInterface",
            "outputs": [
                {
                    "internalType": "bool",
                    "name": "",
                    "type": "bool"
                }
            ],
            "stateMutability": "view",
            "type": "function"
        },
        {
            "inputs": [
                {
                    "internalType": "address",
                    "name": "_accessControlConfig",
                    "type": "address"
                }
            ],
            "name": "initialize",
            "outputs": [],
            "stateMutability": "nonpayable",
            "type": "function"
        },
        {
            "inputs": [
                {
                    "internalType": "uint256",
                    "name": "_price",
                    "type": "uint256"
                }
            ],
            "name": "setPrice",
            "outputs": [],
            "stateMutability": "nonpayable",
            "type": "function"
        },
        {
            "inputs": [
                {
                    "internalType": "uint256",
                    "name": "_second",
                    "type": "uint256"
                }
            ],
            "name": "setPriceLife",
            "outputs": [],
            "stateMutability": "nonpayable",
            "type": "function"
        },
        {
            "inputs": [],
            "name": "pause",
            "outputs": [],
            "stateMutability": "nonpayable",
            "type": "function"
        },
        {
            "inputs": [],
            "name": "unpause",
            "outputs": [],
            "stateMutability": "nonpayable",
            "type": "function"
        },
        {
            "inputs": [],
            "name": "readPrice",
            "outputs": [
                {
                    "internalType": "bytes32",
                    "name": "",
                    "type": "bytes32"
                }
            ],
            "stateMutability": "view",
            "type": "function"
        },
        {
            "inputs": [],
            "name": "peekPrice",
            "outputs": [
                {
                    "internalType": "bytes32",
                    "name": "",
                    "type": "bytes32"
                },
                {
                    "internalType": "bool",
                    "name": "",
                    "type": "bool"
                }
            ],
            "stateMutability": "view",
            "type": "function"
        },
        {
            "inputs": [],
            "name": "isPriceOk",
            "outputs": [
                {
                    "internalType": "bool",
                    "name": "",
                    "type": "bool"
                }
            ],
            "stateMutability": "view",
            "type": "function"
        }
    ],
    "bytecode": "0x608060405234801561001057600080fd5b50611407806100206000396000f3fe608060405234801561001057600080fd5b506004361061012c5760003560e01c80638456cb59116100ad578063c046371111610071578063c04637111461023a578063c4d66de814610243578063c8cc243f14610256578063d547741f14610281578063ef36ee471461029457600080fd5b80638456cb59146101fb57806391b7f5ed1461020357806391d1485414610216578063a035b1fe14610229578063a217fddf1461023257600080fd5b806336568abe116100f457806336568abe146101c45780633f4ba83a146101d75780635af639c3146101df5780635c975abb146101e85780637e91400f146101f357600080fd5b80630184a92a1461013157806301ffc9a71461014e578063140d272014610161578063248a9ca31461017e5780632f2ff15d146101af575b600080fd5b6101396102a7565b60405190151581526020015b60405180910390f35b61013961015c366004611143565b6102b6565b6101696102ed565b60408051928352901515602083015201610145565b6101a161018c36600461116d565b60009081526097602052604090206001015490565b604051908152602001610145565b6101c26101bd3660046111a2565b610306565b005b6101c26101d23660046111a2565b610330565b6101c26103b3565b6101a160cc5481565b60335460ff16610139565b60ca546101a1565b6101c26105c1565b6101c261021136600461116d565b6107cd565b6101396102243660046111a2565b610925565b6101a160ca5481565b6101a1600081565b6101a160cb5481565b6101c26102513660046111ce565b610950565b60c954610269906001600160a01b031681565b6040516001600160a01b039091168152602001610145565b6101c261028f3660046111a2565b610a8c565b6101c26102a236600461116d565b610ab1565b60006102b1610c65565b905090565b60006001600160e01b03198216637965db0b60e01b14806102e757506301ffc9a760e01b6001600160e01b03198316145b92915050565b60008060ca5460001b6102fe610c65565b915091509091565b60008281526097602052604090206001015461032181610c81565b61032b8383610c8e565b505050565b6001600160a01b03811633146103a55760405162461bcd60e51b815260206004820152602f60248201527f416363657373436f6e74726f6c3a2063616e206f6e6c792072656e6f756e636560448201526e103937b632b9903337b91039b2b63360891b60648201526084015b60405180910390fd5b6103af8282610d14565b5050565b60c9546040805163e58378bb60e01b815290516001600160a01b03909216916391d1485491839163e58378bb916004808201926020929091908290030181865afa158015610405573d6000803e3d6000fd5b505050506040513d601f19601f8201168201806040525081019061042991906111e9565b6040516001600160e01b031960e084901b1681526004810191909152336024820152604401602060405180830381865afa15801561046b573d6000803e3d6000fd5b505050506040513d601f19601f8201168201806040525081019061048f9190611202565b80610571575060c95460408051635a9b40c560e11b815290516001600160a01b03909216916391d1485491839163b536818a916004808201926020929091908290030181865afa1580156104e7573d6000803e3d6000fd5b505050506040513d601f19601f8201168201806040525081019061050b91906111e9565b6040516001600160e01b031960e084901b1681526004810191909152336024820152604401602060405180830381865afa15801561054d573d6000803e3d6000fd5b505050506040513d601f19601f820116820180604052508101906105719190611202565b6105b75760405162461bcd60e51b815260206004820152601760248201527621286f776e6572526f6c65206f7220676f76526f6c652960481b604482015260640161039c565b6105bf610d7b565b565b60c9546040805163e58378bb60e01b815290516001600160a01b03909216916391d1485491839163e58378bb916004808201926020929091908290030181865afa158015610613573d6000803e3d6000fd5b505050506040513d601f19601f8201168201806040525081019061063791906111e9565b6040516001600160e01b031960e084901b1681526004810191909152336024820152604401602060405180830381865afa158015610679573d6000803e3d6000fd5b505050506040513d601f19601f8201168201806040525081019061069d9190611202565b8061077f575060c95460408051635a9b40c560e11b815290516001600160a01b03909216916391d1485491839163b536818a916004808201926020929091908290030181865afa1580156106f5573d6000803e3d6000fd5b505050506040513d601f19601f8201168201806040525081019061071991906111e9565b6040516001600160e01b031960e084901b1681526004810191909152336024820152604401602060405180830381865afa15801561075b573d6000803e3d6000fd5b505050506040513d601f19601f8201168201806040525081019061077f9190611202565b6107c55760405162461bcd60e51b815260206004820152601760248201527621286f776e6572526f6c65206f7220676f76526f6c652960481b604482015260640161039c565b6105bf610dcd565b60c9546040805163e58378bb60e01b815290516001600160a01b03909216916391d1485491839163e58378bb916004808201926020929091908290030181865afa15801561081f573d6000803e3d6000fd5b505050506040513d601f19601f8201168201806040525081019061084391906111e9565b6040516001600160e01b031960e084901b1681526004810191909152336024820152604401602060405180830381865afa158015610885573d6000803e3d6000fd5b505050506040513d601f19601f820116820180604052508101906108a99190611202565b6108e25760405162461bcd60e51b815260206004820152600a602482015269216f776e6572526f6c6560b01b604482015260640161039c565b60ca8190554260cb81905560405182815233907f0c1bf5d6a7e7580edc1650a8e69b1d64c5fc49d95f46e11527f49bce8caaed2f9060200160405180910390a350565b60009182526097602090815260408084206001600160a01b0393909316845291905290205460ff1690565b600054610100900460ff16158080156109705750600054600160ff909116105b8061098a5750303b15801561098a575060005460ff166001145b6109ed5760405162461bcd60e51b815260206004820152602e60248201527f496e697469616c697a61626c653a20636f6e747261637420697320616c72656160448201526d191e481a5b9a5d1a585b1a5e995960921b606482015260840161039c565b6000805460ff191660011790558015610a10576000805461ff0019166101001790555b610a18610e0a565b610a20610e39565b6301e1338060cc5560c980546001600160a01b0319166001600160a01b03841617905580156103af576000805461ff0019169055604051600181527f7f26b83ff96e1f2b6a682f133852f6798a09c465da95921460cefb38474024989060200160405180910390a15050565b600082815260976020526040902060010154610aa781610c81565b61032b8383610d14565b60c9546040805163e58378bb60e01b815290516001600160a01b03909216916391d1485491839163e58378bb916004808201926020929091908290030181865afa158015610b03573d6000803e3d6000fd5b505050506040513d601f19601f82011682018060405250810190610b2791906111e9565b6040516001600160e01b031960e084901b1681526004810191909152336024820152604401602060405180830381865afa158015610b69573d6000803e3d6000fd5b505050506040513d601f19601f82011682018060405250810190610b8d9190611202565b610bc65760405162461bcd60e51b815260206004820152600a602482015269216f776e6572526f6c6560b01b604482015260640161039c565b610e108110158015610bdc57506301e133808111155b610c285760405162461bcd60e51b815260206004820152601e60248201527f53696d706c655072696365466565642f6261642d70726963652d6c6966650000604482015260640161039c565b60cc81905560405181815233907f472c5e14bb804bd7b201c5c27f2ea820980b37ef7611806e7b3f6db6758f32e09060200160405180910390a250565b6000610c6f610e60565b80156102b157505060335460ff161590565b610c8b8133610e7a565b50565b610c988282610925565b6103af5760008281526097602090815260408083206001600160a01b03851684529091529020805460ff19166001179055610cd03390565b6001600160a01b0316816001600160a01b0316837f2f8788117e7eff1d82e926ec794901d17c78024a50270940304540a733656f0d60405160405180910390a45050565b610d1e8282610925565b156103af5760008281526097602090815260408083206001600160a01b0385168085529252808320805460ff1916905551339285917ff6391f5c32d9c69d2a47ea670b442974b53935d1edc7fd64eb21e047a839171b9190a45050565b610d83610ede565b6033805460ff191690557f5db9ee0a495bf2e6ff9c91a7834c1ba4fdd244a5e8aa4e537bd38aeae4b073aa335b6040516001600160a01b03909116815260200160405180910390a1565b610dd5610f27565b6033805460ff191660011790557f62e78cea01bee320cd4e420270b5ea74000d11b0c9f74754ebdbfc544b05a258610db03390565b600054610100900460ff16610e315760405162461bcd60e51b815260040161039c90611224565b6105bf610f6d565b600054610100900460ff166105bf5760405162461bcd60e51b815260040161039c90611224565b600060cc5442610e709190611285565b60cb541015905090565b610e848282610925565b6103af57610e9c816001600160a01b03166014610fa0565b610ea7836020610fa0565b604051602001610eb89291906112bc565b60408051601f198184030181529082905262461bcd60e51b825261039c91600401611331565b60335460ff166105bf5760405162461bcd60e51b815260206004820152601460248201527314185d5cd8589b194e881b9bdd081c185d5cd95960621b604482015260640161039c565b60335460ff16156105bf5760405162461bcd60e51b815260206004820152601060248201526f14185d5cd8589b194e881c185d5cd95960821b604482015260640161039c565b600054610100900460ff16610f945760405162461bcd60e51b815260040161039c90611224565b6033805460ff19169055565b60606000610faf836002611364565b610fba90600261137b565b67ffffffffffffffff811115610fd257610fd261138e565b6040519080825280601f01601f191660200182016040528015610ffc576020820181803683370190505b509050600360fc1b81600081518110611017576110176113a4565b60200101906001600160f81b031916908160001a905350600f60fb1b81600181518110611046576110466113a4565b60200101906001600160f81b031916908160001a905350600061106a846002611364565b61107590600161137b565b90505b60018111156110ed576f181899199a1a9b1b9c1cb0b131b232b360811b85600f16601081106110a9576110a96113a4565b1a60f81b8282815181106110bf576110bf6113a4565b60200101906001600160f81b031916908160001a90535060049490941c936110e6816113ba565b9050611078565b50831561113c5760405162461bcd60e51b815260206004820181905260248201527f537472696e67733a20686578206c656e67746820696e73756666696369656e74604482015260640161039c565b9392505050565b60006020828403121561115557600080fd5b81356001600160e01b03198116811461113c57600080fd5b60006020828403121561117f57600080fd5b5035919050565b80356001600160a01b038116811461119d57600080fd5b919050565b600080604083850312156111b557600080fd5b823591506111c560208401611186565b90509250929050565b6000602082840312156111e057600080fd5b61113c82611186565b6000602082840312156111fb57600080fd5b5051919050565b60006020828403121561121457600080fd5b8151801515811461113c57600080fd5b6020808252602b908201527f496e697469616c697a61626c653a20636f6e7472616374206973206e6f74206960408201526a6e697469616c697a696e6760a81b606082015260800190565b634e487b7160e01b600052601160045260246000fd5b818103818111156102e7576102e761126f565b60005b838110156112b357818101518382015260200161129b565b50506000910152565b7f416363657373436f6e74726f6c3a206163636f756e74200000000000000000008152600083516112f4816017850160208801611298565b7001034b99036b4b9b9b4b733903937b6329607d1b6017918401918201528351611325816028840160208801611298565b01602801949350505050565b6020815260008251806020840152611350816040850160208701611298565b601f01601f19169190910160400192915050565b80820281158282048414176102e7576102e761126f565b808201808211156102e7576102e761126f565b634e487b7160e01b600052604160045260246000fd5b634e487b7160e01b600052603260045260246000fd5b6000816113c9576113c961126f565b50600019019056fea26469706673582212206afd286a7231ba624a7139e24233c0de8e3b97b93bb09c0926d29f90dc98329564736f6c63430008110033",
    "immutableReferences": {},
    "source": "// SPDX-License-Identifier: AGPL-3.0-or-later\npragma solidity 0.8.17;\n\nimport \"@openzeppelin/contracts-upgradeable/security/PausableUpgradeable.sol\";\nimport \"@openzeppelin/contracts-upgradeable/access/AccessControlUpgradeable.sol\";\n\nimport \"../interfaces/IPriceFeed.sol\";\nimport \"../interfaces/IAccessControlConfig.sol\";\n\ncontract SimplePriceFeed is PausableUpgradeable, AccessControlUpgradeable, IPriceFeed {\n    IAccessControlConfig public accessControlConfig;\n\n    uint256 public price;\n    uint256 public lastUpdate;\n\n    uint256 public priceLife;\n\n    function initialize(address _accessControlConfig) external initializer {\n        PausableUpgradeable.__Pausable_init();\n        AccessControlUpgradeable.__AccessControl_init();\n\n        priceLife = 365 days; // [seconds] how old the price is considered stale, default 1 day\n\n        accessControlConfig = IAccessControlConfig(_accessControlConfig);\n    }\n\n    modifier onlyOwner() {\n        require(accessControlConfig.hasRole(accessControlConfig.OWNER_ROLE(), msg.sender), \"!ownerRole\");\n        _;\n    }\n\n    modifier onlyOwnerOrGov() {\n        require(\n            accessControlConfig.hasRole(accessControlConfig.OWNER_ROLE(), msg.sender) ||\n                accessControlConfig.hasRole(accessControlConfig.GOV_ROLE(), msg.sender),\n            \"!(ownerRole or govRole)\"\n        );\n        _;\n    }\n\n    event LogSetPrice(address indexed _caller, uint256 _price, uint256 indexed _lastUpdate);\n    event LogSetPriceLife(address indexed _caller, uint256 _second);\n\n    /// @dev access: OWNER_ROLE\n    function setPrice(uint256 _price) external onlyOwner {\n        price = _price;\n        lastUpdate = block.timestamp;\n        emit LogSetPrice(msg.sender, price, lastUpdate);\n    }\n\n    function setPriceLife(uint256 _second) external onlyOwner {\n        require(_second >= 1 hours && _second <= 365 days, \"SimplePriceFeed/bad-price-life\");\n        priceLife = _second;\n        emit LogSetPriceLife(msg.sender, _second);\n    }\n\n    function pause() external onlyOwnerOrGov {\n        _pause();\n    }\n\n    function unpause() external onlyOwnerOrGov {\n        _unpause();\n    }\n\n    function readPrice() external view override returns (bytes32) {\n        return bytes32(price);\n    }\n\n    function peekPrice() external view override returns (bytes32, bool) {\n        return (bytes32(price), _isPriceOk());\n    }\n\n    function isPriceOk() external view override returns (bool) {\n        return _isPriceOk();\n    }\n\n    function _isPriceFresh() internal view returns (bool) {\n        return lastUpdate >= block.timestamp - priceLife;\n    }\n\n    function _isPriceOk() internal view returns (bool) {\n        return _isPriceFresh() && !paused();\n    }\n}\n",
    "sourcePath": "/Users/vitaliikoval/dev/fathom-stablecoin-smart-contracts/contracts/main/price-feeders/SimplePriceFeed.sol",
    "compiler": {
        "name": "solc",
        "version": "0.8.17+commit.8df45f5f.Emscripten.clang"
    },
    "schemaVersion": "3.4.10",
    "updatedAt": "2023-01-02T07:05:53.586Z",
    "devdoc": {
        "kind": "dev",
        "methods": {
            "getRoleAdmin(bytes32)": {
                "details": "Returns the admin role that controls `role`. See {grantRole} and {revokeRole}. To change a role's admin, use {_setRoleAdmin}."
            },
            "grantRole(bytes32,address)": {
                "details": "Grants `role` to `account`. If `account` had not been already granted `role`, emits a {RoleGranted} event. Requirements: - the caller must have ``role``'s admin role. May emit a {RoleGranted} event."
            },
            "hasRole(bytes32,address)": {
                "details": "Returns `true` if `account` has been granted `role`."
            },
            "paused()": {
                "details": "Returns true if the contract is paused, and false otherwise."
            },
            "renounceRole(bytes32,address)": {
                "details": "Revokes `role` from the calling account. Roles are often managed via {grantRole} and {revokeRole}: this function's purpose is to provide a mechanism for accounts to lose their privileges if they are compromised (such as when a trusted device is misplaced). If the calling account had been revoked `role`, emits a {RoleRevoked} event. Requirements: - the caller must be `account`. May emit a {RoleRevoked} event."
            },
            "revokeRole(bytes32,address)": {
                "details": "Revokes `role` from `account`. If `account` had been granted `role`, emits a {RoleRevoked} event. Requirements: - the caller must have ``role``'s admin role. May emit a {RoleRevoked} event."
            },
            "setPrice(uint256)": {
                "details": "access: OWNER_ROLE"
            },
            "supportsInterface(bytes4)": {
                "details": "See {IERC165-supportsInterface}."
            }
        },
        "version": 1
    },
    "userdoc": {
        "kind": "user",
        "methods": {},
        "version": 1
    }
}