{
    "contractName": "SystemDebtEngine",
    "abi": [
        {
            "anonymous": false,
            "inputs": [
                {
                    "indexed": false,
                    "internalType": "uint8",
                    "name": "version",
                    "type": "uint8"
                }
            ],
            "name": "Initialized",
            "type": "event"
        },
        {
            "anonymous": false,
            "inputs": [],
            "name": "LogCage",
            "type": "event"
        },
        {
            "anonymous": false,
            "inputs": [
                {
                    "indexed": true,
                    "internalType": "address",
                    "name": "_caller",
                    "type": "address"
                },
                {
                    "indexed": false,
                    "internalType": "uint256",
                    "name": "_data",
                    "type": "uint256"
                }
            ],
            "name": "LogSetSurplusBuffer",
            "type": "event"
        },
        {
            "anonymous": false,
            "inputs": [],
            "name": "LogUncage",
            "type": "event"
        },
        {
            "anonymous": false,
            "inputs": [
                {
                    "indexed": false,
                    "internalType": "address",
                    "name": "account",
                    "type": "address"
                }
            ],
            "name": "Paused",
            "type": "event"
        },
        {
            "anonymous": false,
            "inputs": [
                {
                    "indexed": false,
                    "internalType": "address",
                    "name": "account",
                    "type": "address"
                }
            ],
            "name": "Unpaused",
            "type": "event"
        },
        {
            "inputs": [],
            "name": "bookKeeper",
            "outputs": [
                {
                    "internalType": "contract IBookKeeper",
                    "name": "",
                    "type": "address"
                }
            ],
            "stateMutability": "view",
            "type": "function"
        },
        {
            "inputs": [],
            "name": "live",
            "outputs": [
                {
                    "internalType": "uint256",
                    "name": "",
                    "type": "uint256"
                }
            ],
            "stateMutability": "view",
            "type": "function"
        },
        {
            "inputs": [],
            "name": "paused",
            "outputs": [
                {
                    "internalType": "bool",
                    "name": "",
                    "type": "bool"
                }
            ],
            "stateMutability": "view",
            "type": "function"
        },
        {
            "inputs": [],
            "name": "surplusBuffer",
            "outputs": [
                {
                    "internalType": "uint256",
                    "name": "",
                    "type": "uint256"
                }
            ],
            "stateMutability": "view",
            "type": "function"
        },
        {
            "inputs": [
                {
                    "internalType": "address",
                    "name": "_bookKeeper",
                    "type": "address"
                }
            ],
            "name": "initialize",
            "outputs": [],
            "stateMutability": "nonpayable",
            "type": "function"
        },
        {
            "inputs": [
                {
                    "internalType": "bytes32",
                    "name": "_collateralPoolId",
                    "type": "bytes32"
                },
                {
                    "internalType": "contract IGenericTokenAdapter",
                    "name": "_adapter",
                    "type": "address"
                },
                {
                    "internalType": "address",
                    "name": "_to",
                    "type": "address"
                },
                {
                    "internalType": "uint256",
                    "name": "_amount",
                    "type": "uint256"
                }
            ],
            "name": "withdrawCollateralSurplus",
            "outputs": [],
            "stateMutability": "nonpayable",
            "type": "function"
        },
        {
            "inputs": [
                {
                    "internalType": "address",
                    "name": "_to",
                    "type": "address"
                },
                {
                    "internalType": "uint256",
                    "name": "_value",
                    "type": "uint256"
                }
            ],
            "name": "withdrawStablecoinSurplus",
            "outputs": [],
            "stateMutability": "nonpayable",
            "type": "function"
        },
        {
            "inputs": [
                {
                    "internalType": "uint256",
                    "name": "_data",
                    "type": "uint256"
                }
            ],
            "name": "setSurplusBuffer",
            "outputs": [],
            "stateMutability": "nonpayable",
            "type": "function"
        },
        {
            "inputs": [
                {
                    "internalType": "uint256",
                    "name": "_value",
                    "type": "uint256"
                }
            ],
            "name": "settleSystemBadDebt",
            "outputs": [],
            "stateMutability": "nonpayable",
            "type": "function"
        },
        {
            "inputs": [],
            "name": "cage",
            "outputs": [],
            "stateMutability": "nonpayable",
            "type": "function"
        },
        {
            "inputs": [],
            "name": "uncage",
            "outputs": [],
            "stateMutability": "nonpayable",
            "type": "function"
        },
        {
            "inputs": [],
            "name": "pause",
            "outputs": [],
            "stateMutability": "nonpayable",
            "type": "function"
        },
        {
            "inputs": [],
            "name": "unpause",
            "outputs": [],
            "stateMutability": "nonpayable",
            "type": "function"
        }
    ],
    "bytecode": "0x608060405234801561001057600080fd5b50611d00806100206000396000f3fe608060405234801561001057600080fd5b50600436106100cf5760003560e01c80638456cb591161008c578063c4d66de811610066578063c4d66de814610162578063d63b23b214610175578063e3b3932a1461017d578063f8d5e1db146101a857600080fd5b80638456cb591461013e578063957aa58c146101465780639f476ee11461014f57600080fd5b80632a608d5b146100d45780633a153cad146100f05780633f4ba83a146101055780635c975abb1461010d5780636924500914610123578063815110ec1461012b575b600080fd5b6100dd60985481565b6040519081526020015b60405180910390f35b6101036100fe366004611a82565b6101bb565b005b6101036104f9565b60335460ff1660405190151581526020016100e7565b61010361076e565b610103610139366004611aae565b610b9a565b610103610db0565b6100dd60995481565b61010361015d366004611aae565b611022565b610103610170366004611ac7565b6111cb565b610103611305565b609754610190906001600160a01b031681565b6040516001600160a01b0390911681526020016100e7565b6101036101b6366004611ae4565b6115f6565b6097546040805163c8cc243f60e01b815290516000926001600160a01b03169163c8cc243f9160048083019260209291908290030181865afa158015610205573d6000803e3d6000fd5b505050506040513d601f19601f820116820180604052508101906102299190611b2c565b9050806001600160a01b03166391d14854826001600160a01b031663e58378bb6040518163ffffffff1660e01b8152600401602060405180830381865afa158015610278573d6000803e3d6000fd5b505050506040513d601f19601f8201168201806040525081019061029c9190611b49565b6040516001600160e01b031960e084901b1681526004810191909152336024820152604401602060405180830381865afa1580156102de573d6000803e3d6000fd5b505050506040513d601f19601f820116820180604052508101906103029190611b62565b6103275760405162461bcd60e51b815260040161031e90611b84565b60405180910390fd5b60975460405163e137ddc560e01b81523060048201526001600160a01b039091169063e137ddc590602401602060405180830381865afa15801561036f573d6000803e3d6000fd5b505050506040513d601f19601f820116820180604052508101906103939190611b49565b156103f35760405162461bcd60e51b815260206004820152602a60248201527f53797374656d44656274456e67696e652f73797374656d2d6261642d646562746044820152692d72656d61696e696e6760b01b606482015260840161031e565b60985460975460405163b4ac08bb60e01b815230600482015261046a916001600160a01b03169063b4ac08bb90602401602060405180830381865afa158015610440573d6000803e3d6000fd5b505050506040513d601f19601f820116820180604052508101906104649190611b49565b84611854565b10156104885760405162461bcd60e51b815260040161031e90611ba8565b6097546040516323055e1560e21b81523060048201526001600160a01b0385811660248301526044820185905290911690638c15785490606401600060405180830381600087803b1580156104dc57600080fd5b505af11580156104f0573d6000803e3d6000fd5b50505050505050565b6097546040805163c8cc243f60e01b815290516000926001600160a01b03169163c8cc243f9160048083019260209291908290030181865afa158015610543573d6000803e3d6000fd5b505050506040513d601f19601f820116820180604052508101906105679190611b2c565b9050806001600160a01b03166391d14854826001600160a01b031663e58378bb6040518163ffffffff1660e01b8152600401602060405180830381865afa1580156105b6573d6000803e3d6000fd5b505050506040513d601f19601f820116820180604052508101906105da9190611b49565b6040516001600160e01b031960e084901b1681526004810191909152336024820152604401602060405180830381865afa15801561061c573d6000803e3d6000fd5b505050506040513d601f19601f820116820180604052508101906106409190611b62565b8061071d5750806001600160a01b03166391d14854826001600160a01b031663b536818a6040518163ffffffff1660e01b8152600401602060405180830381865afa158015610693573d6000803e3d6000fd5b505050506040513d601f19601f820116820180604052508101906106b79190611b49565b6040516001600160e01b031960e084901b1681526004810191909152336024820152604401602060405180830381865afa1580156106f9573d6000803e3d6000fd5b505050506040513d601f19601f8201168201806040525081019061071d9190611b62565b6107635760405162461bcd60e51b815260206004820152601760248201527621286f776e6572526f6c65206f7220676f76526f6c652960481b604482015260640161031e565b61076b611875565b50565b6097546040805163c8cc243f60e01b815290516000926001600160a01b03169163c8cc243f9160048083019260209291908290030181865afa1580156107b8573d6000803e3d6000fd5b505050506040513d601f19601f820116820180604052508101906107dc9190611b2c565b9050806001600160a01b03166391d14854826001600160a01b031663e58378bb6040518163ffffffff1660e01b8152600401602060405180830381865afa15801561082b573d6000803e3d6000fd5b505050506040513d601f19601f8201168201806040525081019061084f9190611b49565b6040516001600160e01b031960e084901b1681526004810191909152336024820152604401602060405180830381865afa158015610891573d6000803e3d6000fd5b505050506040513d601f19601f820116820180604052508101906108b59190611b62565b806109925750806001600160a01b03166391d14854826001600160a01b031663d7a47a696040518163ffffffff1660e01b8152600401602060405180830381865afa158015610908573d6000803e3d6000fd5b505050506040513d601f19601f8201168201806040525081019061092c9190611b49565b6040516001600160e01b031960e084901b1681526004810191909152336024820152604401602060405180830381865afa15801561096e573d6000803e3d6000fd5b505050506040513d601f19601f820116820180604052508101906109929190611b62565b6109de5760405162461bcd60e51b815260206004820152601f60248201527f21286f776e6572526f6c65206f722073686f7753746f70706572526f6c652900604482015260640161031e565b609954600114610a305760405162461bcd60e51b815260206004820152601960248201527f53797374656d44656274456e67696e652f6e6f742d6c69766500000000000000604482015260640161031e565b600060995560975460405163b4ac08bb60e01b81523060048201526001600160a01b039091169063815110ec90610b1e90839063b4ac08bb90602401602060405180830381865afa158015610a89573d6000803e3d6000fd5b505050506040513d601f19601f82011682018060405250810190610aad9190611b49565b60975460405163e137ddc560e01b81523060048201526001600160a01b039091169063e137ddc590602401602060405180830381865afa158015610af5573d6000803e3d6000fd5b505050506040513d601f19601f82011682018060405250810190610b199190611b49565b6118c7565b6040518263ffffffff1660e01b8152600401610b3c91815260200190565b600060405180830381600087803b158015610b5657600080fd5b505af1158015610b6a573d6000803e3d6000fd5b50506040517fbf689b4aae670d200b1d2b971ace2e0c3bef88a9c5e93f36705c7b86eab630b9925060009150a150565b610ba26118e0565b600260655403610bf45760405162461bcd60e51b815260206004820152601f60248201527f5265656e7472616e637947756172643a207265656e7472616e742063616c6c00604482015260640161031e565b600260655560975460405163b4ac08bb60e01b81523060048201526001600160a01b039091169063b4ac08bb90602401602060405180830381865afa158015610c41573d6000803e3d6000fd5b505050506040513d601f19601f82011682018060405250810190610c659190611b49565b811115610c845760405162461bcd60e51b815260040161031e90611ba8565b60975460405163e137ddc560e01b81523060048201526001600160a01b039091169063e137ddc590602401602060405180830381865afa158015610ccc573d6000803e3d6000fd5b505050506040513d601f19601f82011682018060405250810190610cf09190611b49565b811115610d4a5760405162461bcd60e51b815260206004820152602260248201527f53797374656d44656274456e67696e652f696e73756666696369656e742d6465604482015261189d60f21b606482015260840161031e565b609754604051632054443b60e21b8152600481018390526001600160a01b039091169063815110ec90602401600060405180830381600087803b158015610d9057600080fd5b505af1158015610da4573d6000803e3d6000fd5b50506001606555505050565b6097546040805163c8cc243f60e01b815290516000926001600160a01b03169163c8cc243f9160048083019260209291908290030181865afa158015610dfa573d6000803e3d6000fd5b505050506040513d601f19601f82011682018060405250810190610e1e9190611b2c565b9050806001600160a01b03166391d14854826001600160a01b031663e58378bb6040518163ffffffff1660e01b8152600401602060405180830381865afa158015610e6d573d6000803e3d6000fd5b505050506040513d601f19601f82011682018060405250810190610e919190611b49565b6040516001600160e01b031960e084901b1681526004810191909152336024820152604401602060405180830381865afa158015610ed3573d6000803e3d6000fd5b505050506040513d601f19601f82011682018060405250810190610ef79190611b62565b80610fd45750806001600160a01b03166391d14854826001600160a01b031663b536818a6040518163ffffffff1660e01b8152600401602060405180830381865afa158015610f4a573d6000803e3d6000fd5b505050506040513d601f19601f82011682018060405250810190610f6e9190611b49565b6040516001600160e01b031960e084901b1681526004810191909152336024820152604401602060405180830381865afa158015610fb0573d6000803e3d6000fd5b505050506040513d601f19601f82011682018060405250810190610fd49190611b62565b61101a5760405162461bcd60e51b815260206004820152601760248201527621286f776e6572526f6c65206f7220676f76526f6c652960481b604482015260640161031e565b61076b611928565b61102a6118e0565b6097546040805163c8cc243f60e01b815290516000926001600160a01b03169163c8cc243f9160048083019260209291908290030181865afa158015611074573d6000803e3d6000fd5b505050506040513d601f19601f820116820180604052508101906110989190611b2c565b9050806001600160a01b03166391d14854826001600160a01b031663e58378bb6040518163ffffffff1660e01b8152600401602060405180830381865afa1580156110e7573d6000803e3d6000fd5b505050506040513d601f19601f8201168201806040525081019061110b9190611b49565b6040516001600160e01b031960e084901b1681526004810191909152336024820152604401602060405180830381865afa15801561114d573d6000803e3d6000fd5b505050506040513d601f19601f820116820180604052508101906111719190611b62565b61118d5760405162461bcd60e51b815260040161031e90611b84565b609882905560405182815233907feaca31db5ec55952725e2af54ff43f309aaf27d51c896d4d7e8ffae6e30854019060200160405180910390a25050565b600054610100900460ff16158080156111eb5750600054600160ff909116105b806112055750303b158015611205575060005460ff166001145b6112685760405162461bcd60e51b815260206004820152602e60248201527f496e697469616c697a61626c653a20636f6e747261637420697320616c72656160448201526d191e481a5b9a5d1a585b1a5e995960921b606482015260840161031e565b6000805460ff19166001179055801561128b576000805461ff0019166101001790555b611293611965565b61129b611994565b609780546001600160a01b0319166001600160a01b03841617905560016099558015611301576000805461ff0019169055604051600181527f7f26b83ff96e1f2b6a682f133852f6798a09c465da95921460cefb38474024989060200160405180910390a15b5050565b6097546040805163c8cc243f60e01b815290516000926001600160a01b03169163c8cc243f9160048083019260209291908290030181865afa15801561134f573d6000803e3d6000fd5b505050506040513d601f19601f820116820180604052508101906113739190611b2c565b9050806001600160a01b03166391d14854826001600160a01b031663e58378bb6040518163ffffffff1660e01b8152600401602060405180830381865afa1580156113c2573d6000803e3d6000fd5b505050506040513d601f19601f820116820180604052508101906113e69190611b49565b6040516001600160e01b031960e084901b1681526004810191909152336024820152604401602060405180830381865afa158015611428573d6000803e3d6000fd5b505050506040513d601f19601f8201168201806040525081019061144c9190611b62565b806115295750806001600160a01b03166391d14854826001600160a01b031663d7a47a696040518163ffffffff1660e01b8152600401602060405180830381865afa15801561149f573d6000803e3d6000fd5b505050506040513d601f19601f820116820180604052508101906114c39190611b49565b6040516001600160e01b031960e084901b1681526004810191909152336024820152604401602060405180830381865afa158015611505573d6000803e3d6000fd5b505050506040513d601f19601f820116820180604052508101906115299190611b62565b6115755760405162461bcd60e51b815260206004820152601f60248201527f21286f776e6572526f6c65206f722073686f7753746f70706572526f6c652900604482015260640161031e565b609954156115c55760405162461bcd60e51b815260206004820152601a60248201527f53797374656d44656274456e67696e652f6e6f742d6361676564000000000000604482015260640161031e565b60016099556040517f1868a6ced217213f36be87ba9aee25cde5381b42e85c8f88e73b18772c0bd07390600090a150565b6097546040805163c8cc243f60e01b815290516000926001600160a01b03169163c8cc243f9160048083019260209291908290030181865afa158015611640573d6000803e3d6000fd5b505050506040513d601f19601f820116820180604052508101906116649190611b2c565b9050806001600160a01b03166391d14854826001600160a01b031663e58378bb6040518163ffffffff1660e01b8152600401602060405180830381865afa1580156116b3573d6000803e3d6000fd5b505050506040513d601f19601f820116820180604052508101906116d79190611b49565b6040516001600160e01b031960e084901b1681526004810191909152336024820152604401602060405180830381865afa158015611719573d6000803e3d6000fd5b505050506040513d601f19601f8201168201806040525081019061173d9190611b62565b6117595760405162461bcd60e51b815260040161031e90611b84565b60975460405163b5d9932960e01b8152600481018790523060248201526001600160a01b038581166044830152606482018590529091169063b5d9932990608401600060405180830381600087803b1580156117b457600080fd5b505af11580156117c8573d6000803e3d6000fd5b5050604080516001600160a01b038781166020808401919091528351808403909101815282840193849052634ca21b0b60e11b909352881693506399443616925061181b91309188918891604401611bed565b600060405180830381600087803b15801561183557600080fd5b505af1158015611849573d6000803e3d6000fd5b505050505050505050565b6000826118618382611c5e565b915081111561186f57600080fd5b92915050565b61187d6119c3565b6033805460ff191690557f5db9ee0a495bf2e6ff9c91a7834c1ba4fdd244a5e8aa4e537bd38aeae4b073aa335b6040516001600160a01b03909116815260200160405180910390a1565b6000818311156118d757816118d9565b825b9392505050565b60335460ff16156119265760405162461bcd60e51b815260206004820152601060248201526f14185d5cd8589b194e881c185d5cd95960821b604482015260640161031e565b565b6119306118e0565b6033805460ff191660011790557f62e78cea01bee320cd4e420270b5ea74000d11b0c9f74754ebdbfc544b05a2586118aa3390565b600054610100900460ff1661198c5760405162461bcd60e51b815260040161031e90611c7f565b611926611a0c565b600054610100900460ff166119bb5760405162461bcd60e51b815260040161031e90611c7f565b611926611a3f565b60335460ff166119265760405162461bcd60e51b815260206004820152601460248201527314185d5cd8589b194e881b9bdd081c185d5cd95960621b604482015260640161031e565b600054610100900460ff16611a335760405162461bcd60e51b815260040161031e90611c7f565b6033805460ff19169055565b600054610100900460ff16611a665760405162461bcd60e51b815260040161031e90611c7f565b6001606555565b6001600160a01b038116811461076b57600080fd5b60008060408385031215611a9557600080fd5b8235611aa081611a6d565b946020939093013593505050565b600060208284031215611ac057600080fd5b5035919050565b600060208284031215611ad957600080fd5b81356118d981611a6d565b60008060008060808587031215611afa57600080fd5b843593506020850135611b0c81611a6d565b92506040850135611b1c81611a6d565b9396929550929360600135925050565b600060208284031215611b3e57600080fd5b81516118d981611a6d565b600060208284031215611b5b57600080fd5b5051919050565b600060208284031215611b7457600080fd5b815180151581146118d957600080fd5b6020808252600a9082015269216f776e6572526f6c6560b01b604082015260600190565b60208082526025908201527f53797374656d44656274456e67696e652f696e73756666696369656e742d737560408201526472706c757360d81b606082015260800190565b600060018060a01b038087168352602081871681850152856040850152608060608501528451915081608085015260005b82811015611c3a5785810182015185820160a001528101611c1e565b5050600060a0828501015260a0601f19601f83011684010191505095945050505050565b8181038181111561186f57634e487b7160e01b600052601160045260246000fd5b6020808252602b908201527f496e697469616c697a61626c653a20636f6e7472616374206973206e6f74206960408201526a6e697469616c697a696e6760a81b60608201526080019056fea264697066735822122085b5293d3e3b8761e909a87575d04aaeab81ec27afe668b9a72b3d671cb76a9664736f6c63430008110033",
    "immutableReferences": {},
    "source": "// SPDX-License-Identifier: AGPL-3.0-or-later\npragma solidity 0.8.17;\n\nimport \"@openzeppelin/contracts-upgradeable/security/PausableUpgradeable.sol\";\nimport \"@openzeppelin/contracts-upgradeable/access/AccessControlUpgradeable.sol\";\nimport \"@openzeppelin/contracts-upgradeable/security/ReentrancyGuardUpgradeable.sol\";\nimport \"../interfaces/IBookKeeper.sol\";\nimport \"../interfaces/ISystemDebtEngine.sol\";\nimport \"../interfaces/IGenericTokenAdapter.sol\";\nimport \"../interfaces/ICagable.sol\";\n\n/** @notice A contract which manages the bad debt and the surplus of the system.\n    SystemDebtEngine will be the debitor or debtor when a position is liquidated. \n    The debt recorded in the name of SystemDebtEngine will be considered as system bad debt unless it is cleared by liquidation.\n    The stability fee will be accrued and kept within SystemDebtEngine. As it is the debtor, therefore SystemDebtEngine should be the holder of the surplus and use it to settle the bad debt.\n*/\ncontract SystemDebtEngine is PausableUpgradeable, ReentrancyGuardUpgradeable, ISystemDebtEngine, ICagable {\n    IBookKeeper public bookKeeper; // CDP Engine\n    uint256 public override surplusBuffer; // Surplus buffer         [rad]\n    uint256 public live; // Active Flag\n\n    function initialize(address _bookKeeper) external initializer {\n        PausableUpgradeable.__Pausable_init();\n        ReentrancyGuardUpgradeable.__ReentrancyGuard_init();\n\n        bookKeeper = IBookKeeper(_bookKeeper);\n        live = 1;\n    }\n\n    function add(uint256 _x, uint256 _y) internal pure returns (uint256 _z) {\n        require((_z = _x + _y) >= _x);\n    }\n\n    function sub(uint256 _x, uint256 _y) internal pure returns (uint256 _z) {\n        require((_z = _x - _y) <= _x);\n    }\n\n    function min(uint256 _x, uint256 _y) internal pure returns (uint256 _z) {\n        return _x <= _y ? _x : _y;\n    }\n\n    modifier onlyOwner() {\n        IAccessControlConfig _accessControlConfig = IAccessControlConfig(bookKeeper.accessControlConfig());\n        require(_accessControlConfig.hasRole(_accessControlConfig.OWNER_ROLE(), msg.sender), \"!ownerRole\");\n        _;\n    }\n\n    modifier onlyOwnerOrGov() {\n        IAccessControlConfig _accessControlConfig = IAccessControlConfig(IBookKeeper(bookKeeper).accessControlConfig());\n        require(\n            _accessControlConfig.hasRole(_accessControlConfig.OWNER_ROLE(), msg.sender) ||\n                _accessControlConfig.hasRole(_accessControlConfig.GOV_ROLE(), msg.sender),\n            \"!(ownerRole or govRole)\"\n        );\n        _;\n    }\n\n    modifier onlyOwnerOrShowStopper() {\n        IAccessControlConfig _accessControlConfig = IAccessControlConfig(IBookKeeper(bookKeeper).accessControlConfig());\n        require(\n            _accessControlConfig.hasRole(_accessControlConfig.OWNER_ROLE(), msg.sender) ||\n                _accessControlConfig.hasRole(_accessControlConfig.SHOW_STOPPER_ROLE(), msg.sender),\n            \"!(ownerRole or showStopperRole)\"\n        );\n        _;\n    }\n\n    function withdrawCollateralSurplus(\n        bytes32 _collateralPoolId,\n        IGenericTokenAdapter _adapter,\n        address _to,\n        uint256 _amount // [wad]\n    ) external onlyOwner {\n        bookKeeper.moveCollateral(_collateralPoolId, address(this), _to, _amount);\n        _adapter.onMoveCollateral(address(this), _to, _amount, abi.encode(_to));\n    }\n\n    function withdrawStablecoinSurplus(address _to, uint256 _value) external onlyOwner {\n        require(bookKeeper.systemBadDebt(address(this)) == 0, \"SystemDebtEngine/system-bad-debt-remaining\");\n        require(sub(bookKeeper.stablecoin(address(this)), _value) >= surplusBuffer, \"SystemDebtEngine/insufficient-surplus\");\n        bookKeeper.moveStablecoin(address(this), _to, _value);\n    }\n\n    event LogSetSurplusBuffer(address indexed _caller, uint256 _data);\n\n    function setSurplusBuffer(uint256 _data) external whenNotPaused onlyOwner {\n        surplusBuffer = _data;\n        emit LogSetSurplusBuffer(msg.sender, _data);\n    }\n\n    /** @dev Settle system bad debt as SystemDebtEngine.\n      This function could be called by anyone to settle the system bad debt when there is available surplus.\n      The stablecoin held by SystemDebtEngine (which is the surplus) will be deducted to compensate the incurred bad debt.\n    */\n    function settleSystemBadDebt(uint256 _value) external override whenNotPaused nonReentrant {\n        require(_value <= bookKeeper.stablecoin(address(this)), \"SystemDebtEngine/insufficient-surplus\");\n        require(_value <= bookKeeper.systemBadDebt(address(this)), \"SystemDebtEngine/insufficient-debt\");\n        bookKeeper.settleSystemBadDebt(_value);\n    }\n\n    function cage() external override onlyOwnerOrShowStopper {\n        require(live == 1, \"SystemDebtEngine/not-live\");\n        live = 0;\n        bookKeeper.settleSystemBadDebt(min(bookKeeper.stablecoin(address(this)), bookKeeper.systemBadDebt(address(this))));\n        emit LogCage();\n    }\n\n    function uncage() external override onlyOwnerOrShowStopper {\n        require(live == 0, \"SystemDebtEngine/not-caged\");\n        live = 1;\n        emit LogUncage();\n    }\n\n    function pause() external onlyOwnerOrGov {\n        _pause();\n    }\n\n    function unpause() external onlyOwnerOrGov {\n        _unpause();\n    }\n}\n",
    "sourcePath": "/Users/vitaliikoval/dev/fathom-stablecoin-smart-contracts/contracts/main/stablecoin-core/SystemDebtEngine.sol",
    "compiler": {
        "name": "solc",
        "version": "0.8.17+commit.8df45f5f.Emscripten.clang"
    },
    "schemaVersion": "3.4.10",
    "updatedAt": "2023-01-02T07:05:53.691Z",
    "devdoc": {
        "kind": "dev",
        "methods": {
            "paused()": {
                "details": "Returns true if the contract is paused, and false otherwise."
            },
            "settleSystemBadDebt(uint256)": {
                "details": "Settle system bad debt as SystemDebtEngine. This function could be called by anyone to settle the system bad debt when there is available surplus. The stablecoin held by SystemDebtEngine (which is the surplus) will be deducted to compensate the incurred bad debt."
            }
        },
        "version": 1
    },
    "userdoc": {
        "kind": "user",
        "methods": {},
        "notice": "A contract which manages the bad debt and the surplus of the system. SystemDebtEngine will be the debitor or debtor when a position is liquidated.  The debt recorded in the name of SystemDebtEngine will be considered as system bad debt unless it is cleared by liquidation. The stability fee will be accrued and kept within SystemDebtEngine. As it is the debtor, therefore SystemDebtEngine should be the holder of the surplus and use it to settle the bad debt.",
        "version": 1
    }
}